:100000000C94BF060C94E7060C94E7060C94E706E4
:100010000C94E7060C94E7060C94E7060C94E706AC
:100020000C94E7060C94E7060C94E7060C94BF2F9B
:100030000C94E7060C94E7060C94E7060C94E7068C
:100040000C9499380C94E7060C94E7060C94E70698
:100050000C94E7060C94E7060C94E7060C94E7066C
:100060000C94E7060C94E7060000060B0542000618
:100070000C058A00060B05CC00080C042C01090CA9
:10008000049801070C05EC01090D066102090B0734
:10009000C40209070703030B0405003C00FA3F8272
:1000A0009E5BEA9F97FAFB08000F00D00FA0FF3E6F
:1000B000A2FF6EA9FF79A9FF3E02D00F00C003E89E
:1000C000EF23FABB257A7989FE8F00F00002000049
:1000D0003AC000FAEF23006F96005F96FAEF233ADA
:1000E000C0000200000280003A8000FA6F22005B2C
:1000F000998056A5FA5B293A6002028000008000D0
:10010000080001E80303EAEF23FAEF960080970066
:10011000D000000008080000A0008002F80308E8F2
:10012000EF0700BF170000040000000800000000F7
:100130000000020828800808003F00802F00F81BFC
:1001400000B00700C008000D00002028283C083F30
:10015000D00AC00FF0033C0203340888A92E0F8F89
:100160009E1F0F03030147455420505359434845F0
:10017000442100000306090D101316191C1F222527
:10018000282B2E3134373A3C3F4244474A4C4F519A
:100190005456585B5D5F61636567696A6C6E6F7129
:1001A0007274757677797A7A7B7C7D7E7E7F7F7FAD
:1001B00080808080BE01D201E80106022002450055
:1001C0008401050018021C01200124012C013401C6
:1001D0000000450084010500340130012C01280194
:1001E000240120021C01000005004C01450074019F
:1001F000640160013401200105000C0104010801C3
:10020000FC0508010000050050018C029401FC016E
:100210002001FC0218011401FC0110020C01000075
:1002200005003C017004FC029401FC019402FC01F5
:100230009402000000FF01000001FF004552524FF0
:10024000522052454144494E472053442043415295
:10025000440053442043415244204D4F554E5420B6
:100260004552524F52004E4F20574F4C4633442E6A
:1002700044415420464F554E442100C102D002BF94
:1002800014B302ED15D902E8150000C102DE02CB5D
:1002900014D002BF14B302ED15D902E8150000E72F
:1002A00002FA02E0150D03D7151C03CE152A03C56B
:1002B000150000534F554E443A004F4646004F4EEE
:1002C00000574F4C46454E4455494E4F203344004D
:1002D0004E45572047414D45005155495400434F25
:1002E0004E54494E554500484F5720544F554748A6
:1002F0002041524520594F553F0043414E2049204F
:10030000504C41592C2044414444593F00444F4EE5
:1003100027542048555254204D452E004252494EF4
:10032000472027454D204F4E21004920414D204474
:10033000454154480A2020494E4341524E415445BC
:1003400021000000E002030C5F7DF66A994CAA6A66
:100350006000C045D1018C10C4111001841000024E
:10036000980C3F7EF243BD5EB17E877CB776BF7648
:10037000217CBF7EB77E4001500144454A2951117E
:10038000A10A2E5EBE78BF2A2E2A3F3ABF46BF047E
:100390002E769F7CF147083E9F6C1F42DF7C9E3C7F
:1003A0002E3A3F192E5BBF68B226E1071F7E0F3F32
:1003B0009F7D9B6C830FB94EE0478360F103220859
:1003C00000009665559696655596AAAAAA96565621
:1003D00055965656559656AAAA9656565996AA56C0
:1003E0005996665659AA6656599966AA5A99AA55AF
:1003F000599996AA5A99966559999665599996A5C3
:10040000AAAA96659595966595959665959596652E
:100410009595966595AAAAAAAA9556559595565565
:1004200095955655AA9556559695AAAAAAAA96653F
:1004300055969665559696655596966A559696A5DF
:10044000AAAA966555969A655596AAAAAA96FADF1B
:10045000F79FFADFF79FFA57D69F5A65D99FFA9B05
:100460005695FA97E6AF5A655995FA97D59FFADFF0
:10047000F79FFADFF79F9A65D9999A65D99996A55A
:10048000AAAA9665559696655596AAAAAAAA5A55F5
:1004900055955A5595965A61A9969A00A99A9A0027
:1004A000AA9A9A022AAA9AAA0AA85A9A2AA85A552D
:1004B000AA9A5A555595AAAAAAAA9665599996A58F
:1004C000AAAA6AAA9AAA5A5555955A5555955AAA4A
:1004D00069AA5A5555955AAAAAAA565555955AAA7F
:1004E000AAAA5A5555955AAAAAAA5A55559556AA2E
:1004F000AAAA5A5555955A5555956AAA9AAA6AAA0A
:100500009AAA96AAAAAA669595A56A9595A596A966
:10051000AAAA5656A9AA96995699AA9AAA999655F8
:100520005995965999A9969A9A95AA99A6AA56560E
:10053000A9AA96A9AAAA6A6559966665599696AA1D
:10054000AAAA6AAA9AAA5A5555955A5555955AAAC9
:1005500069AA5A5555955AAAAAAA565555955AAAFE
:10056000AAA05A5515955AAAAA805A55559156AA25
:10057000AA825A5555955A5555956AAA9AAA6AAAB1
:100580009AAA6AAA9AAA6AAA9AAA6AAA9AAA6A5560
:1005900095AA6AAA99AA6AAA99AA56AA59956AAA6C
:1005A000A9A96A5555A96AA6AAA96AA6AAA95655CB
:1005B0005595AAAA9AAAAAAA9AAA565595AA6AAA23
:1005C0009AAA6AAA9AAA6AAA9AAA6AAA9AAA6A5520
:1005D00055956A6A6AAA566A6AAAAA565595AAA63B
:1005E000A6AAAAA6A6AAAAA6A6AAAAA6A6AA56A5E0
:1005F000A6AAA656559556A69AAA6A5595AA6AAA73
:100600009AAA56555595A6AAAAAA6A4555A566015D
:1006100000A062A84AA4265665A52A6AAAAA266A44
:1006200065A5225669A5266665A5266AAAAA2A5640
:1006300025A426A84AA4664100A1A2AAAAAA5655A2
:10064000559556555595AAAAAAAA5A5555A55A552B
:1006500055A55A5595A65A61A9A69A00AAAA9A0024
:10066000AAAA9A022AAA9AAA0AA85A9A2AA85A555B
:10067000AAAA5A55A9A65A5555A5AAAAAAAA56552C
:1006800055955655559556555595AAAAAAAA565503
:1006900055950200008056555595AAAAAAAA565506
:1006A0005595020000805655559556555595AAAA60
:1006B000AAAA56555595565555950200008056558F
:1006C0005595AAAAAAAA96195095A629529596199F
:1006D00050955655559556015095560554954615C5
:1006E00055940655159406540594065515944615CB
:1006F0005594560554955601509556555595AAAAA8
:10070000AAAA5655559556555595A6AAAA9A66551C
:10071000559166000091664A049166020091664018
:1007200004916608049166424491664840916600CF
:1007300000916655559106000090565555955655B1
:1007400055955655559556555595A6AAAA9A665546
:100750005591665555916655559166555591665515
:100760005591665555916655559166555591665505
:10077000559166555591060000905655559556551C
:1007800055955655218056552180565521805655F0
:100790002180565521805655218056552180565529
:1007A0002180565521805655218056552180565519
:1007B0002180565521805655218056552180565509
:1007C0002180565965955659659556A96A95AA5A34
:1007D00065955659A5AA5659659556596595565920
:1007E000659556596595AA5A659556A96A955659BB
:1007F00065955659A5AA5659659556596595AA5AAB
:100800006595565965955659659556016095AA00A6
:100810004095168000AA06080294062208948600D5
:100820000294060820940A8208940608029416206E
:100830000095560080AA5601609556596595AA5AAA
:100840006595AAAAAAAAFEFFFFBF5E956AB55E5586
:1008500055B55EA56AB55E6566B55EA56AB55E55B9
:1008600055B55E5555B55E5555B55E5555B55E5594
:1008700055B55E5555B55E5555B5FEFFFFBFAAAAE5
:10088000AAAAAAAAAAAA5655559526000090665566
:10089000559166555591A6AAAA9A56555595AAAA54
:1008A000AAAAAAAAAAAA5655559506000090665566
:1008B000559166555591A6AAAA9A56555595AAAA34
:1008C000AAAA56555595AA5555959AA96A958A4941
:1008D00065959AA96A95AA55559556854A9516061D
:1008E00048929606689A1606489256854A95565535
:1008F000559556955A95AAAA58950A005895AAAAA8
:100900005A95AAAAAAAA5655559556555995565577
:100910006995565559955655599556555995565563
:100920005995565569955655599556555995565553
:100930005995565569955655599556555595AAAA9E
:10094000AAAA00000F1001F0000B04051C010B0403
:100950000548010F100138020F10010100000001CD
:100960000000000500000005000000050000000573
:1009700000000805000024050000A405000024056F
:10098000000008050000000500000005000000014F
:100990000000000100000020A6BA3C3C7A7E3C0C1E
:1009A0000C0420A6BA3C3C7A7E3C0C0C04010000EE
:1009B0000001000000050000000500000005000027
:1009C000000500000805000024050000A405000043
:1009D00024050000080500000005000000050000D7
:1009E0000001000000010000000100000001000003
:1009F00000050000000500000005000000050000E3
:100A00000805000024050000A405000024050000DE
:100A100008050000000500000005000000010000BE
:100A2000000100000000000D080268000609059E94
:100A300000050806C600080D042E01040D0662011B
:100A40000A1004A8AA8030AABE803CA83C0C3CFF37
:100A5000FFAC3C803CA8BE803CA8BE0030A8AA5891
:100A6000666A99A965A69699A2AA025AA1AAA6AAF7
:100A7000A6AA06AA020020000088082880AAA800CA
:100A8000AAAA55A98A0AA00A28808A000022000082
:100A900033802AFF3FAAFEFFABF23F0000A8000010
:100AA00000FE021080FF065055FEB6F37FA9BD5F21
:100AB0005555B513000005A0AA96AA0200005000E3
:100AC000000054010000020307060007040422008E
:100AD0000603063400060305460006030658000612
:100AE00003066A000603067C000603068E000B045C
:100AF00003BA000D0501FB000704041701070404F5
:100B00009A767071B67A7671B0ACEB7240CBBA2E31
:100B100007B4ACEB7240CBBA2E07B4ACEB7240CB4F
:100B2000BA2E0704080808888A0A080A8A82000878
:100B3000A880000208A0A0020A38E8A0A3820A0A3E
:100B4000080A080822080A080A08082208000006FD
:100B50000609240009070763000A0A06C7000D0CEE
:100B600003A86A25955002092000A2AA56622558BA
:100B70000226800220000800020028AA825A096684
:100B8000256896406502540A4025009402402200E0
:100B900008000000020000AA2A805A096069026861
:100BA000A50096A580952540550A40950040250052
:100BB00040090040020080000000000009090451C3
:100BC00000090B04B4000B10036401090E04280093
:100BD000580250A542A52A95AA56AA52A5822500D8
:100BE0002800080A0069094056A99095AA68A5AA94
:100BF00059A94A56A9909600080A00020000000967
:100C00000A0000A525000265958A0965A56A256A7E
:100C1000A5AA9565A56A2565958A09A525000209F5
:100C20000A000002000000820A009056020059A546
:100C3000029095AA2A5AA9AA9A95AA2A59A5029079
:100C4000560200820A0000000008080340000A095A
:100C5000019A000F0F01020002000200AA00650ABB
:100C600065A6650AAA00020008009000400200097B
:100C700000A80A50994265A69529A80A20002000DC
:100C8000080008000980094002600290009800A84E
:100C90008A95009569954065A6955A995609A88A3E
:100CA0009500008009000060020000980000000824
:100CB0000000000200050089300802380249786807
:100CC00014000045006801000005006801380100BB
:100CD000000500380168010000F6E8DBCFC3B8AEBC
:100CE000A49B928A827B746E68625C57524E49451F
:100CF000413E3A3734312E2C29272523211F1D1C34
:100D00001A1917161514131211100F0E0D0C0B0AC9
:100D100009080706180D1C0D0101F7030101FF0367
:100D200000000000240027002A0000000000250029
:100D300028002B00000000002300260029000404E6
:100D40000404040404040202020202020303030373
:100D5000030301020408102040800102040810204F
:100D60000102040810200000000700020100000337
:100D7000040600000000000000001B0B673811246F
:100D80001FBECFEFD8E0DEBFCDBF11E0A0E0B1E0E5
:100D9000EEEBF6E702C005900D92A638B107D9F741
:100DA00017E0A6E8B1E001C01D92AA34B107E1F74F
:100DB0001DE0CEE7DDE004C02297FE010E94523B19
:100DC000CA37D107C9F70E94A53A0C945D3B0C9431
:100DD00000000F93FC01608341831682822F90E014
:100DE00045E0880F991F4A95E1F7409693838283E7
:100DF000802F90E035E0880F991F3A95E1F74096F3
:100E0000958384832287038789E190E09187808797
:100E10000F910895FC0142815381B5E055954795A6
:100E2000BA95E1F76481758180913102282F3327CB
:100E300027FD309542175307BCF0A5E075956795DF
:100E4000AA95E1F780913202992787FD909568175E
:100E5000790754F0215F3F4F241735072CF020E02D
:100E60000F96861797070CF421E0220F84858D7F5B
:100E7000822B84870895FC014281538120912402B2
:100E800030912502C901809748175907C4F0205EA8
:100E90003F4F241735079CF044815581209126024D
:100EA00030912702C90180974817590744F080E024
:100EB000205E3F4F241735071CF081E0089580E045
:100EC0000895FC01209124023091250282819381B2
:100ED000281B390B37FF03C0309521953F4F95E014
:100EE000359527959A95E1F7422F2091260230916A
:100EF000270284819581281B390B37FF03C0309569
:100F000021953F4F85E0359527958A95E1F7822F0A
:100F100024170CF4842F08950F931F93CF93DF931E
:100F2000EC016A817B814C815D81209124023091AA
:100F30002502009126021091270281E392E00E948F
:100F4000160F882311F440E015C0CE010E946107FE
:100F5000082F0E94350D40E0282F30E0112707FDB3
:100F6000109580E190E0B8010E94003B26173707FA
:100F70000CF441E0842FDF91CF911F910F910895E0
:100F80000F931F93CF93DF93EC016A817B814C8198
:100F90005D8120912402309125020091260210915A
:100FA000270281E392E00E94160F882309F44FC0C4
:100FB000CE010E946107182F0E94350D90E0412F4D
:100FC000552747FD509520E130E0241B350B44E0C8
:100FD000220F331F4A95E1F782179307C4F51230A9
:100FE00034F40E94350D682F669566950EC0143056
:100FF0003CF40E94350D682F66956695669505C090
:101000000E94350D682F62956F70662301F184E2AE
:1010100092E00E94FD15809129028823C1F420E00E
:1010200030E04DE050E0249FC001259F900D349F9B
:10103000900D1124815D9B4FC817D90719F4209397
:101040002A0205C02F5F3F4F2530310561F7DF9140
:10105000CF911F910F9108950F931F93CF93DF931B
:10106000EC01162F042F81E392E00E94010E8823E9
:1010700009F44CC081E392E0612F402F0E94310EB1
:10108000882309F043C03CC081E392E06A85402F89
:101090000E94310E882309F042C032C081E392E001
:1010A000612F4B850E94310E882309F041C028C072
:1010B0002A9FC0012B9F900D3A9F900D1124815DB6
:1010C0009B4FC817D90791F08081882379F08781D9
:1010D00090851816190654F4818590E086179707B5
:1010E00029F4828590E08417950751F02F5F3F4FD8
:1010F0003D9625303105E1F61A870B8781E001C066
:1011000080E0DF91CF911F910F91089581E392E0EC
:101110006A85402F0E94010E882309F0B5CF81E334
:1011200092E0612F4B850E94010E882309F0B6CF13
:10113000E0E3F4E020E030E0ADE0B0E0612F7727BD
:1011400067FD7095402F552747FD5095B1CF0F9300
:101150001F93CF93DF93EC01162F042F6A85610F45
:101160004B85400F0E942C08882309F56A85610F82
:10117000CE014B850E942C088823C9F44B85400F73
:10118000CE016A850E942C08882389F46A85611B38
:101190004B85400FCE010E942C08882341F46A85BC
:1011A000610F4B85401BCE010E942C0801C081E0DD
:1011B000DF91CF911F910F9108950F931F93CF93BC
:1011C000DF93EC01809124029091250265E09595D2
:1011D00087956A95E1F72A85821B6FEF41E00E94AF
:1011E000100D082F809126029091270255E09595C9
:1011F00087955A95E1F72B85821B6FEF41E00E949E
:10120000100D182F0E94350D002341F4803410F486
:101210000FEF0CC087FD0AC001E008C0112331F4B4
:10122000803410F41FEF02C087FF11E0CE01602F61
:10123000412F0E94A708DF91CF911F910F91089530
:101240006F927F928F929F92AF92BF92CF92DF92D6
:10125000EF92FF920F931F93CF93DF937C0181E373
:1012600092E0F701628543850E94010E882349F0D0
:1012700081E392E0F701628543852FEF0E947C11A4
:101280004FC0F7018285A82EBB24A5E0AA0CBB1C89
:10129000AA95E1F780E190E0A80EB91E8385C82EDB
:1012A000DD2475E0CC0CDD1C7A95E1F7E0E1F0E09F
:1012B000CE0EDF1EF7018281FA2DF81B8F2F6FEF04
:1012C00041E00E94100D182FF7018481FC2DF81BBE
:1012D0008F2F6FEF41E00E94100D612E772467FC85
:1012E0007094F70102811381060D171D1383028389
:1012F000882E992487FC9094C481D581C80DD91D6E
:10130000D583C483C7010E943B07882359F006197F
:101310001709F70113830283C819D909D583C48338
:1013200080E00AC00A151B0531F4CC15DD0519F45F
:10133000C7010E94DD0881E0DF91CF911F910F91DD
:10134000FF90EF90DF90CF90BF90AF909F908F90E5
:101350007F906F900895FF920F931F93F62E042FA6
:10136000122F81E392E0642F422F0E94C50D882343
:1013700011F080E009C081E392E06F2D402F212F12
:101380000EEF0E94991081E01F910F91FF90089538
:101390007F928F929F92AF92BF92CF92DF92EF9205
:1013A000FF920F931F93CF93DF935C01762EFC0186
:1013B000C280D38015E0D594C7941A95E1F7E480F4
:1013C000F580B5E0F594E794BA95E1F7A6019701A9
:1013D0000E94AB098823D9F48601015010404701CF
:1013E00008948108910810C0E40109C0C501672D67
:1013F000A8019E010E94AB09882349F42196EC16AE
:10140000FD06A4F70F5F1F4FC016D1066CF7DF91E2
:10141000CF911F910F91FF90EF90DF90CF90BF90F1
:10142000AF909F908F907F900895FC016683643009
:10143000A9F0653028F4623051F06330A9F40BC094
:10144000663029F0663038F0673071F402C085E00C
:1014500003C089E001C083E087830895678384E740
:1014600094E063E00E944B0D0895CF93DF93EC016D
:10147000888599850097B1F1861797071CF419861E
:10148000188604C0861B970B99878887888599855D
:10149000892B21F5CE0166E00E94150A2881822F52
:1014A00086958695869590E0FC01EC53FC4F33E0E1
:1014B000880F991F3A95E1F730E0281B390B81E03E
:1014C00090E002C0880F991F2A95E2F72081282B0F
:1014D0002083CE0169E20E94C80904C0CE0162E007
:1014E0000E94150ADF91CF9108950F931F93CF9318
:1014F000DF93EC018981882309F474C0CE010E9436
:101500000A078C8581FD6EC020E080917004909167
:10151000710483709070892B09F421E01E811330CF
:1015200009F441C0143030F4113019F1123008F0D0
:1015300047C00CC0153009F443C01530C8F116304F
:1015400009F443C0173009F04CC04CC06A817B815C
:101550004C815D8120912402309125020091260268
:101560001091270281E392E00E94160F8823D1F1A7
:1015700029C0CE010E942009882361F08091700467
:1015800090917104959587959595879583708F8334
:10159000833009F41F83CE010E948C07882311F148
:1015A000CE0163E01BC02223E9F0CE0164E016C047
:1015B0002223C1F0CE010E94C007CE0165E00EC01B
:1015C000222381F0CE0161E009C0222359F08F81EE
:1015D0008F5F8F83893031F4CE0167E00E94150A56
:1015E00001C01F82DF91CF911F910F9108950F933A
:1015F0001F93FC01678185E0689FB0011124685941
:101600007F4F228133810481158186E891E04AE988
:1016100050E00E94BE1F1F910F910895FC016623A8
:1016200029F0ED55FF4F1082E35AF040E451FD4F91
:1016300086E08083089584E292E00E94FC15E3E353
:10164000F2E01082369682E0EB37F807D1F7089582
:10165000EF92FF920F93CF93DF937C01DC01A755AC
:10166000BD4FE0E0F0E08C918617F1F131961D96C8
:10167000E530F105C1F7D701A655BD4FE0E0F0E038
:101680008C91882351F48DE090E0E89FE001E99F80
:10169000D00DF89FD00D11241BC031961D96E5305A
:1016A000F10571F7A0E0B0E0CDE0D0E0AC9FC00163
:1016B000AD9F900DBC9F900D1124F701E80FF91F0D
:1016C000EB54FD4FE081E1FF0BC0E0FD09C0EC01F0
:1016D000C755DD4FCE0DDF1DCE010E94E90606C0C5
:1016E0001196A530B10511F7C0E0D0E0CE01DF9131
:1016F000CF910F91FF90EF900895AF92BF92CF924C
:10170000DF92EF92FF920F931F93CF93DF93DC0151
:10171000A451BD4F8C91AC5EB2408230A1F08230BA
:1017200040F0843011F1843050F0863009F06DC003
:101730000AC0CD018B559D4F0E94611566C0CD0139
:101740000E940D2862C088EF91E0EFEFF4E0EF0116
:101750009C01199221503040E1F7CD0166E671E01D
:1017600044E125E10E94D42350C0A651BD4F8D9184
:101770009C914E970CF041C0C0E0D0E091E0A92EC2
:10178000B12C0E94180D6C010E94180D7C010E9462
:10179000180D8C010E94180D080F191FC8018C0F1D
:1017A0009D1F60E370E00E94EC3A282F30E0F901C1
:1017B000EE0FFF1FEC5DFE4FEC0CFD1CC7018C0F04
:1017C0009D1F64E570E00E94EC3A0190F081E02DED
:1017D000E80FF11DE150FB4F27703070C50102C0CA
:1017E000880F991F2A95E2F79C018081822B8083C4
:1017F0002196CC3FD10529F608C08FEF94E06FEF1A
:1018000070E048EF51E00E94563BDF91CF911F916D
:101810000F91FF90EF90DF90CF90BF90AF90089521
:101820000F931F93CF93DF93EC01C451DD4F82E000
:101830008883CC5ED240FE01E755FD4F80E090E00A
:101840002FEF1182208301963D9685309105C9F7CF
:10185000CE0185559F4F0E946A14CE010E94BA1B8B
:101860008E0102561F4FC8010E94B317C8010E9483
:10187000F818C651DD4F1992199283E08883DF91E1
:10188000CF911F910F910895EF92FF920F931F93A5
:10189000CF93DF93EC01DC01A451BD4F8C918330D9
:1018A00081F0843020F4823008F064C043C0853079
:1018B00009F446C0853008F44EC0863009F05AC09D
:1018C00046C0CE0182569F4F0E94F818CD55DF4F7B
:1018D0008881C35AD0408823E1F0CE0185559F4FBF
:1018E0000E94791100E010E02DE0E22EF12C0E9D17
:1018F000C0010F9D900D1E9D900D112487559D4F89
:101900008C0F9D1F0E94750A0F5F1F4F0530110538
:1019100071F78091740486FF2DC0C451DD4F81E0C2
:101920008883CC5ED2408BE294E06BE872E00E9448
:101930005A1520C0CE018B559D4F0E94EE141AC03F
:10194000FE01E35EFE4F80818F5F808311C0CE0178
:101950000E94100C0FC0C651DD4F88819981CA5E6C
:10196000D2404E973CF0CD55DF4F1882C35AD0403D
:1019700086E08C93FE01E651FD4F808191810196B6
:1019800091838083DF91CF911F910F91FF90EF9012
:1019900008950F931F938C018B559D4F0E94CF1478
:1019A00003511D4F82E0F80180830D5E1240C80193
:1019B00085559F4F0E94BC0D04511D4FF8011082A8
:1019C0000F5C1140F80110821F910F91089581342E
:1019D00030F4E82FF0E0ED58FE4FE49109C0813873
:1019E00048F4E0E8F0E0E81BF109ED58FE4FE4911F
:1019F000F0E014C0282F30E0813C28F42D503F4FF8
:101A0000F901849106C0E3E7F2E0E21BF30BE491F5
:101A10008E2F90E0EE27FF27E81BF90BCF010895EA
:101A2000861724F0642F84170CF4682F862F0895EE
:101A300080912201909123019C0136952795309346
:101A400023012093220180FF08C080E094EB282727
:101A500039273093230120932201209122013091D4
:101A6000230121503040C90108950E94180D0895A6
:101A7000862F61E068278AE994E00E94E32F0895A9
:101A80008AE994E060E00E94F02F90E0882309F456
:101A900091E0892F0895E62FF0E0EE0FFF1FEC5440
:101AA000FE4F659174918AE994E040E00E94E22D36
:101AB0000895CF93DF93EC01188284E00E94753A79
:101AC000892B19F488818061888382E00E94753AAD
:101AD000892B19F488818062888381E10E94753A9C
:101AE000892B19F488818064888389E00E94753A83
:101AF000892B19F488818160888387E00E94753A78
:101B0000892B19F488818260888386E00E94753A67
:101B1000892B19F488818460888388E00E94753A53
:101B2000892B19F4888188608883DF91CF9108958B
:101B3000FC0180816817ECF071814717D4F0992778
:101B400087FD90950F96262F332727FD3095821716
:101B500093077CF050E0872F992787FD90950F968B
:101B6000242F332727FD3095821793071CF051E06F
:101B700001C050E0852F0895FC01E750FE4F108210
:101B8000E95FF140108211820895FC01808168179D
:101B90006CF15181451754F1992787FD90950F9667
:101BA000262F332727FD309582179307FCF0852FCA
:101BB000992787FD90950F96242F332727FD309581
:101BC000821793079CF04F70842F992787FD90957B
:101BD0006F7024E0880F991F2A95E1F7E80FF91F2D
:101BE000E60FF11DED58FF4F808108958FEF0895A6
:101BF0000E94C50D90E08150863108F491E0892F54
:101C00000895EF92FF920F931F93182F092FE62E3E
:101C1000F42E0E94C50D982F81508631E0F0955327
:101C20009630C8F0812F902F9C01F90190E022811D
:101C3000222359F083818E1541F484818F1529F474
:101C4000293049F08581803130F09F5F36969C3095
:101C500071F780E001C081E01F910F91FF90EF903C
:101C600008950E94C50D90E08751883008F491E0F6
:101C7000892F08954F925F926F927F928F929F92D9
:101C8000AF92BF92CF92DF92EF92FF920F931F938A
:101C9000CF93DF937C01762E642E922E802E6C01E2
:101CA000FC019FEF20E09F3F21F48281882309F40B
:101CB000922F8281882339F08381891521F48481D0
:101CC000881509F4A2C02F5F36962C3061F79F3F2C
:101CD00009F066C0E70110E08A81893009F487C005
:101CE000C7016B814C810E94980D882309F07FC049
:101CF00054C00091930110919401A0908B01B09079
:101D00008C01C0919501D091960140908D01509029
:101D10008E01E0E0D60112968C911297893009F479
:101D20006CC014968C911497682F772767FD709577
:101D300013968C91482F552747FD50954A195B09FA
:101D4000C201861B970B9C012C9FC0012D9F900DFB
:101D50003C9F900D1124409F9001419F300D509F5A
:101D6000300D1124820F931F80589F4FC4F06419C7
:101D70007509609FC001619F900D709F900D1124A7
:101D80004C9F90014D9F300D5C9F300D1124820FB0
:101D9000931F80589F4F1CF030C0912F01C09E2F81
:101DA000892F992787FD9095DC01AA0FBB1FA80FEB
:101DB000B91F9D01220F331F2E0D3F1DF901938284
:101DC000848215820196FC01EE0FFF1FE80FF91FB8
:101DD000EE0FFF1FEE0DFF1D10821196AA0FBB1F05
:101DE000AE0DBF1D7C92D90117966C920EC01F5F7D
:101DF00026961C3009F070CF7CCFEF5F26E030E0F4
:101E0000C20ED31EEC3009F085CFDF91CF911F9128
:101E10000F91FF90EF90DF90CF90BF90AF909F9089
:101E20008F907F906F905F904F9008952F923F9288
:101E30004F925F926F927F928F929F92AF92BF92DA
:101E4000CF92DF92EF92FF920F931F93DF93CF9386
:101E500000D000D000D0CDB7DEB79A8389831B01B4
:101E60004A0129011C830B836B0115E0D594C794AB
:101E70001A95E1F73901B5E075946794BA95E1F7E1
:101E80006C147D0409F497C0C614D70484F4960139
:101E90002F5F3F4FA5E0220F331FAA95E1F7261BC6
:101EA000370B3E832D83F1E0AF2EB12C0EC0C6015F
:101EB000E5E0880F991FEA95E1F7FB01E81BF90BB4
:101EC000FE83ED83AA24AA94BA2C8B819C81881965
:101ED00099097C010027F7FC0095102F75E0EE0CA6
:101EE000FF1C001F111F7A95D1F7C20182199309B7
:101EF00097FF03C0909581959F4F9C01442737FD24
:101F00004095542FC801B7010E94353BB901CA0161
:101F10006030F0E87F07F0E08F07F0E09F071CF0EB
:101F20000FEF1FE70CC0613020E872072FEF820728
:101F30002FEF92071CF401E010E801C08B01B801FB
:101F4000882777FD8095982FED81FE819F0144279A
:101F500037FD4095542F0E94B43A20E230E040E033
:101F600050E00E94353BC401820F931F9E838D83F6
:101F70007501EC0CFD1C6501C60CD71C4D815E8102
:101F800065E0559547956A95E1F7ED81FE81E00F93
:101F9000F11FFE83ED8389819A816E2D0E94C50D0C
:101FA000882321F08150863108F4A7C0EA0CFB1C7D
:101FB000EC14FD0419F7640135E0D594C7943A9503
:101FC000E1F76B807C8025E0759467942A95E1F7B2
:101FD0006C147D0409F493C0C614D70484F49601EC
:101FE0002F5F3F4F95E0220F331F9A95E1F7281995
:101FF00039093E832D8381E0A82EB12C0EC0C60185
:1020000005E0880F991F0A95E1F7F401E81BF90B29
:10201000FE83ED83AA24AA94BA2C42185308B20175
:10202000882777FD8095982F15E0660F771F881F0A
:10203000991F1A95D1F70B811C810819190917FFEF
:1020400003C0109501951F4F9801442737FD409517
:10205000542F0E94353BB901CA016030F0E87F0778
:10206000F0E08F07F0E09F072CF0BFEFEB2EBFE70B
:10207000FB2E0EC0613020E872072FEF82072FEF92
:1020800092072CF4A1E0EA2EA0E8FA2E01C07B0111
:10209000B701882777FD8095982FED81FE819F01FC
:1020A000442737FD4095542F0E94B43A20E230E097
:1020B00040E050E00E94353B4101820E931E8501B5
:1020C0000C0D1D1D6501C60CD71CB401F5E07595FE
:1020D0006795FA95E1F78E0C9F1C89819A81402FB4
:1020E0000E94C50D882319F08150863130F00A0D09
:1020F0001B1D0C151D0549F702C080E001C081E0E1
:1021000026960FB6F894DEBF0FBECDBFCF91DF91FC
:102110001F910F91FF90EF90DF90CF90BF90AF9005
:102120009F908F907F906F905F904F903F902F90F7
:102130000895BF92CF92DF92EF92FF920F931F9379
:10214000CF93DF937C01D62EC42EB22EFC01E65B2A
:10215000FF4FAFEF90E08081882311F4A92F05C0D5
:102160000E3F19F08381801799F19F5F34969A3062
:1021700091F7AF3F91F4E701C55BDF4F10E0C70176
:10218000688149810E94980D882311F4A12F05C010
:102190001F5F24961A3099F71BC0BB27A7FDB09587
:1021A000FD01EE0FFF1FEE0FFF1FEE0DFF1DE65BA3
:1021B000FF4FD082339600833297C0825396AA0F86
:1021C000BB1FAA0FBB1FAE0DBF1DBC9281E001C09B
:1021D00080E0DF91CF911F910F91FF90EF90DF9002
:1021E000CF90BF9008950F931F93CF93DF93EC018F
:1021F000EC81E23009F443C0E33020F4E13009F02F
:102200004CC034C0E73008F048C08B818F5F8B83AF
:10221000803209F042C01B822E2F30E02350304024
:10222000220F331FC9018C5C9D4FFC0164912B5C14
:102230003D4FF90144919981960F99838A81840FCA
:102240008A83062F090F182F140F81E392E0602F65
:10225000412F0E94980D8823F9F081E392E0602FCE
:10226000412F0E94F80D8823C1F016C08B818F3357
:1022700018F48F5F8B8311C082E08C830EC08B813A
:10228000882351F081508B83803139F484E794E0C6
:1022900061E00E944B0D01C01C82DF91CF911F9124
:1022A0000F910895EF92FF920F931F93CF93DF93B7
:1022B0007C018C01C0E0D0E0F8018281882361F0CC
:1022C000CE01880F991F8C0F9D1F0196880F991FB3
:1022D0008E0D9F1D0E94F31021960A5F1F4FCC3078
:1022E000D10551F7DF91CF911F910F91FF90EF90A2
:1022F00008950E9452110895BF92CF92DF92EF92FB
:10230000FF920F931F93CF93DF937C01C62EB42EC1
:10231000D22E8FEF281741F0C7010E94C50D8531DD
:1023200019F485E080937204F701C0E0D0E0928157
:10233000992309F46DC083818C1509F069C08481EB
:102340008B1509F065C09930B1F5EFEFDE1609F491
:1023500065C02D2D332727FD3095220F331FC9016E
:102360008C5C9D4FFC0104912B5C3D4FF901149155
:102370000C0D1B0D81E392E0602F412F0E94980D00
:10238000882309F44BC081E392E0602F412F0E9423
:10239000F80D882309F042C0CE010196FC01EE0F32
:1023A000FF1FE80FF91FEE0FFF1FEE0DFF1D83E06B
:1023B000D80ED08233C0CE010196FC01EE0FFF1F74
:1023C000E80FF91FEE0FFF1FEE0DFF1D808181301A
:1023D00089F0FE01EE0FFF1FEC0FFD1FEE0FFF1F38
:1023E000EE0DFF1D8581882329F484E794E060E0E9
:1023F0000E944B0DCE010196FC01EE0FFF1FE80F6E
:10240000F91FEE0FFF1FEE0DFF1D81E0808306C058
:1024100021963696CC30D10509F089CFDF91CF9146
:102420001F910F91FF90EF90DF90CF90BF90089594
:10243000FF920F931F93DC01162F742FF22E862F1D
:102440008751883068F48650823010F44CE001C027
:1024500042E1612F6651CD012F2D0E943A0E73C0CB
:10246000862F89528C3048F5E42FE695E695E6955F
:10247000F0E09F0143E0220F331F4A95E1F7872FD9
:1024800090E0821B930B21E030E002C0220F331F4B
:102490008A95E2F730E0EA0FFB1FED58FE4F80818E
:1024A00090E028233923232B09F04CC0CD014F2D78
:1024B000202F072F0E94991045C0862F8F518630FC
:1024C000B8F546954695469550E09A0193E0220F5F
:1024D000331F9A95E1F7872F90E0821B930B21E041
:1024E00030E002C0220F331F8A95E2F730E0A40FDC
:1024F000B51FAD56BE4F8C9190E028233923232B76
:1025000009F5603249F0613219F06F31D9F408C031
:10251000809173048330B0F080917304823090F026
:1025200086E891E0672F41E02F2D0E94280B0AC01A
:10253000603449F480917204823021F4CD0169E065
:102540000E943A0E10E0812F1F910F91FF90089585
:102550006F927F928F929F92AF92BF92CF92DF92B3
:10256000EF92FF920F931F93DF93CF9300D0CDB7DD
:10257000DEB73B01FC01E750FE4F8081882309F460
:102580004BC0332727FD3095E02FFF27E7FDF0955F
:10259000442349F4CF01E6E0880F991FEA95E1F75B
:1025A000820F931F0AC0C90176E0880F991F7A95A0
:1025B000E1F78E0F9F1F8050904F880F991F5C018D
:1025C000CC24B7FCC094DC2CFF24E7FCF094EE0C88
:1025D000FF1C00E010E04E010894811C911CC60114
:1025E000B5010E942533892B49F4C301B701A40129
:1025F0000E943634892B11F01A8219820F5F1F4F07
:102600000430110524F08CE392E00E947C2989813A
:102610009A818E159F0518F30F900F90CF91DF913F
:102620001F910F91FF90EF90DF90CF90BF90AF90F0
:102630009F908F907F906F9008958F929F92BF92FE
:10264000CF92DF92EF92FF920F931F93CF93DF937E
:10265000EC01B62EB3EBCB2EB1E0DB2EC80ED91EAB
:102660002881260FB60141E00981A0E1EA2E0E94EF
:10267000A81288818B0D8F7010E0882E992487FC1A
:102680009094E980E10E28812B0DCE01F601608146
:1026900041810E2D0E941812FFE0EF22FF24E7FC7B
:1026A000F094F4E0EE0CFF1CFA95E1F7EC0EFD1E41
:1026B000E80CF91C23E730E0E20EF31EF7018083FB
:1026C0001F5F22E030E0C20ED31E1031D1F6DF9141
:1026D000CF911F910F91FF90EF90DF90CF90BF901F
:1026E0009F908F900895AF92BF92CF92DF92EF921A
:1026F000FF920F931F93CF93DF93EC01A62E43EB32
:10270000C42E41E0D42EC80ED91E0981060FB60191
:1027100040E0288130E1E32E0E94A81289818A0DD1
:102720008F70E82EFF24E7FCF09414E0EE0CFF1C01
:102730001A95E1F7BB24EC0EFD1E18811B0D0981D3
:102740000A0DCE01F60160814181212F0E941812ED
:102750001F70F701E10FF11DED58FF4F8083B39417
:1027600082E090E0C80ED91E90E1B91631F7DF91F2
:10277000CF911F910F91FF90EF90DF90CF90BF907E
:10278000AF900895CF92DF92EF92FF920F931F9335
:10279000CF93DF937C0100E314E0C0E0D0E05DE084
:1027A000C52ED12CF8018081882359F0CC9DC00121
:1027B000CD9D900DDC9D900D1124815D9B4F0E945D
:1027C0000A072196035F1F4FC530D10559F710E066
:1027D000C701612F0E9473131F5F1031C9F7DF918A
:1027E000CF911F910F91FF90EF90DF90CF900895C0
:1027F0000F931F93CF93DF93EC0167FD60E047FDDC
:1028000040E0162F61330CF010E3042F41330CF03D
:1028100000E380917204823031F17881272F3327D1
:1028200027FD3095412F552747FD5095C9010F973A
:1028300048175907C4F0215F3F4F241735079CF014
:102840006981262F332727FD3095402F552747FDD7
:102850005095C9010F97481759072CF0215F3F4F3A
:102860002417350734F418830983CE010E94C2135C
:102870002CC0711749F4601739F427C08F5F888323
:10288000CE016FE00E941D1388818117BCF306C042
:1028900081508883CE0160E00E941D138881181743
:1028A000BCF306C08F5F8983CE016FE00E94731373
:1028B00089818017BCF306C081508983CE0160E016
:1028C0000E94731389810817BCF3DF91CF911F9188
:1028D0000F910895DF92EF92FF920F931F93CF9382
:1028E000DF93EC0163EDE62E61E0F62EE80EF91EB3
:1028F0008C0107501E4FDD24D39415C0C7010E94E0
:102900004C37892B61F480E091E00E943835892BA7
:1029100019F4F801D08207C086E692E002C082E591
:1029200092E00E947C29F8018081882339F3FE011E
:10293000ED58FE4F80E090E0108210A20196319693
:1029400080329105C9F7FE0180E090E01282019685
:1029500036968C309105D1F7FE01E65BFF4F80E0A3
:1029600090E01082019634968A309105D1F7DF917C
:10297000CF911F910F91FF90EF90DF9008958FE915
:1029800092E090932C0480932B0410922D0481E00C
:1029900080932E04089583E0809372040895FC01CF
:1029A0008BE792E091838083128281E08383089594
:1029B000FC014081518131E020E0E32FFF27E7FD5A
:1029C000F095EE0FFF1FE40FF51F85919491892B71
:1029D00019F03E5F2F5FF1CF822F08951F93CF93A1
:1029E000DF93EC018B81882309F05AC08091740435
:1029F00080FF0AC08A8181508A838F3F29F4CE01EB
:102A00000E94D81481508A838091740482FF09C087
:102A10001A811F5F1A83CE010E94D814181709F477
:102A20001A828091740484FF12C08A81992787FDDD
:102A300090950196880F991F880F991F28813981D9
:102A4000280F391FF90185919491FC010995809116
:102A50007404982F86FF07C080917204813019F4A6
:102A600083E08093720495FF1BC088819981F2E016
:102A70008F399F0779F480917204882319F08BE8CD
:102A800092E002C08BE792E0998388831A8281E00A
:102A90008B8306C08B58924019F483E080937204B4
:102AA00090E080917404811191E09B83DF91CF913C
:102AB0001F910895FC0171836083128281E08383FA
:102AC0000895FF920F931F93CF93DF938C0188EFAC
:102AD00091E0EFEFF4E0DF019C011D9221503040C6
:102AE000E1F7D801ED91FC916591749186E891E050
:102AF00045E021E00E94D423C2E0D0E03CE0F32E88
:102B0000D801ED91FC91EC0FFD1F65917491611559
:102B1000710539F186E891E048E02F2D0E94D42319
:102B2000D801ED91FC91EC0FFD1F85919491835B91
:102B3000924099F484E794E00E94400D882329F0A4
:102B400086E891E06AEB72E004C086E891E06EEB03
:102B500072E048E22F2D0E94D4232496E6E0FE0E78
:102B6000CFCFD80112962C9186E028029001112433
:102B7000245F86E891E06AE042E00E943B23DF9117
:102B8000CF911F910F91FF90089583E0809373047C
:102B900086E891E061E00E940E0B089582E0809348
:102BA000730486E891E061E00E940E0B089581E0D5
:102BB0008093730486E891E061E00E940E0B089513
:102BC0001092730486E891E061E00E940E0B089574
:102BD00085E794E00E94842B08950F931F9304E7E8
:102BE00014E0C8010E94400D61E06827C8010E94FE
:102BF000380D1F910F9108950895FC0185E0809391
:102C000086018581861710F415820895861B8583B9
:102C100008952F923F924F925F926F927F928F9280
:102C20009F92AF92BF92CF92DF92EF92FF920F935B
:102C30001F93DF93CF93CDB7DEB72E970FB6F894DF
:102C4000DEBF0FBECDBF9E878D8784E794E062E034
:102C50000E944B0DED85FE858085882319F08185C6
:102C600081508187ED85FE8584818195805C0E94FD
:102C7000E70C8C01ED85FE85848181950E94E70C2F
:102C8000A0E32A2EA4E03A2EFFEFFC831B821A82D7
:102C900019829801442737FD4095542F2D833E8398
:102CA0004F8358879C01442737FD4095542F29872F
:102CB0003A874B875C87F1018081882309F485C0BE
:102CC00087819085181619060CF07FC0818192814A
:102CD000ED85FE8520813181821B930B2C016624BA
:102CE00057FC6094762CF10183819481ED85FE85FB
:102CF00022813381821B930B5C01CC24B7FCC094EE
:102D0000DC2C6D817E818F819885A30192010E94C8
:102D1000B43A7B018C01F7E015950795F794E79499
:102D2000FA95D1F769857A858B859C85A6019501F1
:102D30000E94B43AE7E09595879577956795EA956F
:102D4000D1F74701861A970AF2E08F169104ECF149
:102D50006D817E818F8198850E94B43A7B018C01C0
:102D600037E015950795F794E7943A95D1F769857B
:102D70007A858B859C85A30192010E94B43A27E055
:102D800095958795779567952A95D1F7C701860F11
:102D9000971F2FEF893F9207C4F00897B4F430E0F3
:102DA000831630E193062CF0ED85FE85808588231F
:102DB00061F0FC81FF3F29F02A813B818216930656
:102DC00024F439813C839B828A8249814F5F498305
:102DD0008DE090E0280E391E453009F06CCF9C81C3
:102DE0009F3F09F463C0ED85FE858085882391F4BB
:102DF0000E94350D2DE0FC81F20290011124682F14
:102E000070E084E0759567958A95E1F7C901815D69
:102E10009B4F49C04C81242F332727FD3095ED85EA
:102E2000FE8560817181428153818DE090E0289F11
:102E30006001299FD00C389FD00C1124F601EA576D
:102E4000FE4FE555FD4F219131910081118181E3C4
:102E500092E00E94160F882349F12FE234E0C20E5F
:102E6000D31EC6010E946107182F823034F40E94DD
:102E7000350D682F6695669515C084306CF00E94FC
:102E8000350D6CE00E94D33A90E0212F332727FDC7
:102E900030958217930754F00E94350D66E00E942A
:102EA000D33A682FC60170E00E94350AED85FE8591
:102EB0008085882349F08185882331F41086138624
:102EC000128684858D7F84872E960FB6F894DEBF98
:102ED0000FBECDBFCF91DF911F910F91FF90EF906B
:102EE000DF90CF90BF90AF909F908F907F906F902A
:102EF0005F904F903F902F900895FC018091740453
:102F0000948585FF0BC090FD0BC0892F816084875D
:102F100081FD06C093609487138602C09E7F9487CC
:102F2000948591FF1FC083858F5F8387863091F0E2
:102F3000873028F4823081F08430A1F405C08830D5
:102F400059F08A3079F40BC082E08287CF010E9469
:102F50000916089583E001C081E0828708951286F2
:102F60009D7F94870895DF92EF92FF920F931F93B6
:102F7000CF93DF93EC018D81882331F481E0888742
:102F800088E0898784E68D831A868C858E7F8C877E
:102F9000EE24FF245CC081E392E0602F4D2D0E945F
:102FA000F813A0E0B0E02BC0822F8F70FB01E80F78
:102FB000F11DE25EFE4FE0818E2F85528430B0F429
:102FC000C901800F911FF5E0880F991FFA95E1F76D
:102FD0004096998388835B834A838E2F90E08697FF
:102FE000E6E0880F991FEA95E1F78C832F5F3F4F4A
:102FF00020313105C9F61196A031B105D1F08A2FE3
:103000008F70682F772767FD709594E0660F771FA4
:103010009A95E1F7AD014E0D5F1D85E0440F551FF8
:103020008A95E1F7405F5F4F20E030E06A577E4FBE
:10303000BBCF005F1F4F0034110509F0ACCF80E11A
:1030400090E0E80EF91E90E4E916F10421F0DE2C80
:1030500000E010E0A0CFDF91CF911F910F91FF9082
:10306000EF90DF900895B5E075956795BA95E1F713
:10307000A5E055954795AA95E1F781E392E00E9476
:10308000010E0895CF92DF92EF92FF920F931F935C
:10309000CF93DF93EC0190E3E92E94E0F92E00E06A
:1030A00010E08DE0C82ED12CF7018081882309F42F
:1030B00051C087819085181619060CF04BC00C9DE5
:1030C000C0010D9D900D1C9D900D1124815D9B4FA5
:1030D0000E943B078823F1F133C0688179816850F1
:1030E00070404A815B8148505040CE010E943318A5
:1030F000882331F568817981685F7F4F4A815B81E0
:1031000048505040CE010E9433188823C9F468818A
:103110007981685F7F4F4A815B81485F5F4FCE0155
:103120000E943318882361F4688179816850704067
:103130004A815B81485F5F4FCE010E94331801C016
:1031400081E0DF91CF911F910F91FF90EF90DF9081
:10315000CF9008950F5F1F4F8DE090E0E80EF91EAD
:103160000530110509F0A0CFB8CFEF92FF920F9371
:103170001F93CF93DF93EC017B018A0188819981B2
:10318000860F971F998388838A819B81840F951F5F
:103190009B838A83CE010E944218882311F18A8181
:1031A0009B81801B910B9B838A83CE010E944218D6
:1031B0008823B9F0888199818E199F099983888322
:1031C0008A819B81800F911F9B838A83CE010E94FD
:1031D0004218882331F08A819B81801B910B9B834D
:1031E0008A83DF91CF911F910F91FF90EF90089507
:1031F0002F923F924F925F926F927F928F929F9207
:10320000AF92BF92CF92DF92EF92FF920F931F93F4
:10321000CF93DF93EC018C81805C0E94E70C2C0142
:103220008C810E94E70C1C018D81882309F476C1F2
:1032300020917404822F90E064E0969587956A95BA
:10324000E1F7182F11702031A1F48F81882319F430
:1032500081E08F8318C08230B0F01F828885813072
:1032600011F4188610C08985882369F081E0888769
:103270000AC0222339F48F81882329F08F5F8F833E
:10328000803108F01F82CE010E947D178091740466
:10329000282F82FD05C060E070E040E050E020C0D3
:1032A000C20153E0880F991F5A95E1F784199509D7
:1032B000880F892F881F990B66277727681B790B42
:1032C000C10133E0880F991F3A95E1F782199309FC
:1032D000880F892F881F990B44275527481B590BA6
:1032E00020FF1CC0C201B3E0880F991FBA95E1F717
:1032F00084199509880F892F881F990B680F791FEA
:10330000C101F3E0880F991FFA95E1F7821993093B
:10331000880F892F881F990B480F591F23FF22C040
:103320001123E9F0C10133E0880F991F3A95E1F7C5
:1033300082199309880F892F881F990B680F791FAD
:10334000C201B3E0880F991FBA95E1F78419950976
:10335000880F892F881F990B481B590B03C08C813C
:1033600083508C8321FF22C01123E9F0C101F3E0D7
:10337000880F991FFA95E1F782199309880F892F11
:10338000881F990B681B790BC20133E0880F991FC6
:103390003A95E1F784199509880F892F881F990BB1
:1033A000480F591F03C08C818D5F8C83CE010E9412
:1033B000B5186881798105E0759567950A95E1F7FB
:1033C000C62E4A815B8115E0559547951A95E1F720
:1033D000E42E81E392E02FEF0E947C11920157FED0
:1033E00004C02227332724193509C10137FE04C040
:1033F000882799278219930982179307D4F4141404
:1034000015043CF46C2D6F5F81E392E04E2D21E0BA
:1034100006C06C2D615081E392E04E2D23E00E94A6
:103420007C110BE712E0B1E06B2E712C88248394A1
:1034300011C0121413043CF44E2D4F5F81E392E04F
:103440006C2D22E0ECCF4E2D415081E392E06C2DAB
:1034500020E0E5CFF8019081992309F457C08181DC
:103460008C1509F053C082818E1509F04FC09A3235
:10347000E1F09C3219F1993261F58985882321F4B4
:103480008885882309F488862985822F90E08B35EA
:10349000910514F083E602C0822F885F898784E754
:1034A00094E064E00E944B0D14C02D81822F90E0C7
:1034B0008C3491054CF4822F875E0AC02D81822FB7
:1034C00090E08B35910514F084E602C0822F865F70
:1034D0008D83F80110828381282F269526952695C5
:1034E00030E0F901EC55FC4FA3E0220F331FAA9501
:1034F000E1F790E0821B930B930102C0220F331F70
:103500008A95E2F7C9012081282B20830C5F1F4F89
:1035100032E0033A130709F09DCFCAC08C81819530
:10352000805C0E94E70C7C018C8181950E94E70CF5
:103530004C018E8190E00027F7FC0095102F2DE0C4
:1035400030E0829F6001839FD00C929FD00C1124A9
:1035500086E891E0C80ED91EEDEAF2E0CE0EDF1E3D
:10356000F601208131818A819B81281B390B4427F8
:1035700037FD4095542FC801B7010E94B43A7B0132
:103580008C01F7E015950795F794E794FA95D1F734
:10359000AA2497FCA094BA2CF6013291229188813A
:1035A0009981281B390B442737FD4095542FC501BD
:1035B000B4010E94B43AE7E09595879577956795B1
:1035C000EA95D1F73701660E771E8C811614170421
:1035D00014F48D5F01C083508C838C818195805C55
:1035E0000E94E70C7C018C8181950E94E70C4C01C4
:1035F0008E8190E00027F7FC0095102F2DE030E041
:10360000829F6001839FD00C929FD00C112426E8EA
:1036100031E0C20ED31E8DEA92E0C80ED91EF6012B
:10362000208131818A819B81281B390B442737FDFA
:103630004095542FC801B7010E94B43A7B018C0118
:1036400067E015950795F794E7946A95D1F7AA2452
:1036500097FCA094BA2CF60132912291888199812D
:10366000281B390B442737FD4095542FC501B40161
:103670000E94B43A57E095958795779567955A9546
:10368000D1F7C701860F971F77FE03C097FF06C0CB
:103690000CC0672851F0181619063CF084E080939E
:1036A0007204109271041092700485E08093860178
:1036B000C20163E170E00E94003B2881398145E04E
:1036C000359527954A95E1F7260F371F2850C101F8
:1036D00063E170E00E94003B4A815B8135E05595D3
:1036E00047953A95E1F7460F571F485081E392E01E
:1036F000622F0E94F813DF91CF911F910F91FF90DD
:10370000EF90DF90CF90BF90AF909F908F907F9081
:103710006F905F904F903F902F900895DC0112962C
:103720002C91129713964C911397842F8E5F1396BA
:103730008C931397883069F4ED91FC911197319631
:103740001196FC93EE93E4911296EC9312971396D4
:103750001C9283E090E0042E02C0880F991F0A9407
:10376000E2F730E08223932302C0959587954A952E
:10377000E2F708950895CF93DF93FC018081181636
:10378000ECF581508083A0912401B0912501A150D6
:10379000BB4FE0918201F0918301E150FB4F20E0AB
:1037A00030E08C9181608D938081806881932F5F60
:1037B0003F4F24353105A9F7C4E2D1E040E050E0A5
:1037C00061E070E0E991F991CA01877090709B0106
:1037D00002C0220F331F8A95E2F7C901DF01A15011
:1037E000BB4F2C91282B2C93EE5AFA4F2081822B21
:1037F00080834F5F5F4F4033510521F7DF91CF91B9
:1038000008956F927F928F929F92BF92CF92DF9294
:10381000EF92FF920F931F93DF93CF9300D000D0CE
:10382000CDB7DEB780912C02813081F0813018F065
:10383000823009F516C090912E0285E0989FB00164
:103840001124635B744FA1E6BBE015C090912E027A
:1038500085E0989FB00111246654744FAEECBBE034
:103860000AC090912E0285E0989FB0011124695BF7
:10387000734FA6E5BCE0FB0185919491AC01569590
:10388000479556954795242F220F220F821B880FAC
:103890008C83FD01E40FF51FFA83E983E491EB8348
:1038A0006E5F7F4FFB0114916F5F7F4FFB01B49000
:1038B0006F5F7F4FFB01849132E2E32EE80E180F19
:1038C0001E5DBA943E010894611C711C21E0822E99
:1038D000912C43C0FB2C0FE2CE2CDD243BC0C30156
:1038E0000E948E1B8823A1F1202F30E08130C1F48B
:1038F000F901EE0FFF1FEC5DFE4F0190F081E02D0E
:10390000EC0DFD1DE150FB4F27703070C40102C06B
:10391000880F991F2A95E2F780952081822317C08E
:10392000F901EE0FFF1FEC5DFE4F0190F081E02DDD
:10393000EC0DFD1DE150FB4F27703070C40102C03B
:10394000880F991F2A95E2F79C018081822B808342
:10395000FA940150F7FEC3CFE394E11609F0BACF11
:103960000F900F900F900F90CF91DF911F910F91BB
:10397000FF90EF90DF90CF90BF909F908F907F90BF
:103980006F9008952F923F924F925F926F927F9225
:103990008F929F92AF92BF92CF92DF92EF92FF925F
:1039A0000F931F93DF93CF9300D000D0CDB7DEB736
:1039B0005B012A01E02F8A011595079568E1E62E43
:1039C000F12CE01AF10A58E1652E712C600E711E7F
:1039D000F0E044E0EE0FFF1F4A95E1F7332727FDA3
:1039E0003095E20FF31FEE0FFF1FEE0FFF1FEE5398
:1039F000FC4F1C82FA83E983E491EB83CE010196AC
:103A00000E948E1B482F68010A2D10E021E0822EB3
:103A1000912C91E0292E312C2A203B2060C020E3FC
:103A2000E216F10408F04AC0413069F1413030F04B
:103A3000423079F0433009F041C006C0C7018A2501
:103A40009B2580FF06C01FC0C1018E219F21892BAD
:103A5000D1F02E2D30E0F901EE0FFF1FEC5DFE4F8F
:103A60000190F081E02DE00FF11FE150FB4F277036
:103A70003070C40102C0880F991F2A95E2F79C019B
:103A80008081822B1AC08E2D90E0FC01EE0FFF1F6B
:103A9000EC5DFE4F0190F081E02DE00FF11FE15051
:103AA000FB4F87709070940102C0220F331F8A95DC
:103AB000E2F7C901809520818223808381EF9FEF07
:103AC000C80ED91E07C0CE0101960E948E1B482F3A
:103AD000C40CD51CD7FCF7CF0894E11CF11CE614EC
:103AE000F7040CF49CCF90E369167104D4F4262DEE
:103AF00030E0F901EE0FFF1FEC5DFE4F0190F08109
:103B0000E02DEA0DF11DE150FB4F2770307081E090
:103B100090E002C0880F991F2A95E2F72081282B98
:103B200020830F900F900F900F90CF91DF911F91F6
:103B30000F91FF90EF90DF90CF90BF90AF909F904C
:103B40008F907F906F905F904F903F902F9008954F
:103B50002F923F924F925F926F927F928F929F929D
:103B6000AF92BF92CF92DF92EF92FF920F931F938B
:103B7000DF93CF93CDB7DEB76A970FB6F894DEBF69
:103B80000FBECDBF9B8B8A8B1B013A013A8F298FC9
:103B90001D8B0C8BEE8ACF8AA88EDC011996AD9016
:103BA000BC901A97CC24B7FCC094DC2C1196ED91F4
:103BB000FC911297F98BE88B2E1A3F0A442437FCAC
:103BC0004094542C1B968D919C911C979C014427EA
:103BD00037FD4095542F2C873D874E875F8713967E
:103BE0004D915C9114975B874A87641A750A882403
:103BF00077FC8094982CC201B101A60195010E9426
:103C0000B43A7B018C01F7E015950795F794E7949A
:103C1000FA95D1F7C401B3012C853D854E855F85AA
:103C20000E94B43AE7E09595879577956795EA9570
:103C3000D1F7D701A61BB70BB987A887C401B30179
:103C4000A60195010E94B43A7B018C0157E01595BD
:103C50000795F794E7945A95D1F7C201B1012C85E5
:103C60003D854E855F850E94B43A47E095958795DE
:103C7000779567954A95D1F7F701E60FF71FFF8310
:103C8000EE83298D3A8D48895989241B350B1901FA
:103C9000442437FC4094542C8C899D89AA85BB858B
:103CA0008A1B9B0B3C01882477FC8094982CC201D2
:103CB000B101A60195010E94B43A7B018C0137E065
:103CC00015950795F794E7943A95D1F7C401B30198
:103CD0002C853D854E855F850E94B43A27E09595F9
:103CE0008795779567952A95D1F7F701E61BF70B2E
:103CF000FA8FE98FC401B301A60195010E94B43A7D
:103D00007B018C0187E015950795F794E7948A95D8
:103D1000D1F7C201B1012C853D854E855F850E949A
:103D2000B43AB7E09595879577956795BA95D1F7A9
:103D3000F701E60FF71F298D3A8D1216130624F1AD
:103D400048855985141615060CF0FFC02E813F8159
:103D50002E1B3F0B81E090E0A98DBA8D8A1B9B0B37
:103D6000BA016A1B7B0BAC01249FC001259F900DFB
:103D7000349F900D11240E94003BE60FF71F81E055
:103D800090E09A8F898F26C0A885B9851A161B06E0
:103D90000CF19F014E815F81241B350B81E090E087
:103DA0008A1B9B0B698D7A8D6A1B7B0BDC012A9F1A
:103DB000C0012B9F900D3A9F900D11240E94003B53
:103DC0002E813F81260F371F3F832E8341E050E035
:103DD0005987488728E430E0E29FC001E39F900DB7
:103DE000F29F900D1124698D7A8D0E94003BFB019A
:103DF000BA96AE81BF81A29FC001A39F900DB29FD2
:103E0000900D1124688579850E94003B6B0129E2A1
:103E100030E0C20ED31E960144E5C416D10414F05E
:103E200023E530E0CF01F7FF02C080E090E02817E3
:103E300039070CF48AC080E099E0698D7A8D0E9480
:103E4000003B9B0180E099E0688579850E94003BFA
:103E50007601EE1AFF0A17013594279426173707C3
:103E600044F4DB01A21BB30BBC83AB8341E050E005
:103E700007C0D901A61BB70BBC83AB834FEF5FEF25
:103E80005A8349835F89888D58172CF4A82EA51A68
:103E900091E09D8305C0AF88A88DAA1ABFEFBD83AE
:103EA00071964A885B884E0E5F1E719731013A8F7A
:103EB000298F1F894F01BB24A7FCB09442C0E4E5C1
:103EC0008E169104D8F4D2018C9190E0E98DFA8D90
:103ED0008E179F079CF4EF3FF10509F01CF4F98D54
:103EE000FC9303C0EFEFD201EC938A899B89B40164
:103EF000498D5A8D212F0E890E94C21C2B813C8135
:103F0000221A330A6A187B081E141F045CF013C0BF
:103F1000498D5A8D89819A81480F591F5A8F498F2F
:103F20002E0C3F1C37FCF4CF04C09D81190F6E0C82
:103F30007F1C77FCFACF0894811C911C0894411CCB
:103F4000511CC814D9040CF0BACF6A960FB6F89475
:103F5000DEBF0FBECDBFCF91DF911F910F91FF90BC
:103F6000EF90DF90CF90BF90AF909F908F907F9019
:103F70006F905F904F903F902F9008952F923F92B7
:103F80004F925F926F927F928F929F92AF92BF9269
:103F9000CF92DF92EF92FF920F931F93DF93CF9315
:103FA000CDB7DEB72C970FB6F894DEBF0FBECDBFEE
:103FB0009C878B871B015A874987D901B80125E067
:103FC000759567952A95E1F7FC01A584B684AD0146
:103FD00085E0559547958A95E1F785819681481B3F
:103FE000590BC784D08887809084C401861B970BA7
:103FF0009C012C9DC0012D9D900D3C9D900D112488
:104000004A9D90014B9D300D5A9D300D1124820F19
:10401000931F80589F4F0CF46FC1681979096A9DEE
:10402000C0016B9D900D7A9D900D11244C9D9001C7
:104030004D9D300D5C9D300D1124820F931F8058D3
:104040009F4F0CF459C109C1C601B5012D813E81B4
:104050004F8158850E94B43A7B018C0157E0159539
:104060000795F794E7945A95D1F769817A818B8106
:104070009C81A30192010E94B43A47E095958795EF
:10408000779567954A95D1F7E60EF71E88E490E09C
:10409000FC01EE9EC001EF9E900DFE9E900D11243E
:1040A000B4010E94003B8B01CB018D5A9F4F873A90
:1040B000910508F021C180E099E0B4010E94003B25
:1040C0006B016F3F710521F01CF03FEFC32ED12C27
:1040D000EB85FC85E859FF4F20E030E0808191813D
:1040E000892B21F4522F2F3F41F506C02F5F3F4F00
:1040F00037962830310591F7AB85BC85AB59BF4F5A
:104100005C91852F90E0FC0123E0EE0FFF1F2A95C4
:10411000E1F7E81BF90B2B853C85E20FF31FE5590E
:10412000FF4F8081EB56F04090E08C159D050CF020
:10413000E3C0E459FF4F80818C93652F70E0DB0171
:1041400083E0AA0FBB1F8A95E1F7A61BB70B8B85EF
:104150009C85A80FB91FA659BF4F065D1F4F0D9331
:10416000CC9215972D923D92E985FA851196FC9394
:10417000EE93A856B0409C012B593F4FF901408166
:104180004F3F29F45083A459BF4F4C93B5C0842F9F
:1041900090E0FC0113E0EE0FFF1F1A95E1F7E81B1A
:1041A000F90B8B859C85E80FF91FE559FF4F80813E
:1041B00090E0C816D906ECF5A459BF4F4C93F9010D
:1041C00050839AC05C93CB0133E0880F991F3A95D6
:1041D000E1F7861B970B2B853C85280F391F245947
:1041E0003F4FF901408388C0842F90E0FC0123E019
:1041F000EE0FFF1F2A95E1F7E81BF90B2B853C8595
:10420000E20FF31FE559FF4F808190E0C816D906F1
:1042100084F4CB0103E0880F991F0A95E1F7861B10
:10422000970B280F391F24593F4FF90140835C93A6
:1042300063C0842F90E0DC0113E0AA0FBB1F1A9526
:10424000E1F7A81BB90B2B853C85A20FB31FA4591E
:10425000BF4F4C914F3F41F6B5CFEB85FC85818533
:1042600092859C01442737FD4095542F2D833E8332
:104270004F83588781819281A81BB90B9D014427E8
:1042800037FD4095542F29833A834B835C83838584
:1042900094852C01662457FC6094762C838194814C
:1042A000081B190B5801CC24B7FCC094DC2CCA01A4
:1042B000B9012D813E814F8158850E94B43A7B011E
:1042C0008C01B7E015950795F794E794BA95D1F767
:1042D000C601B501A30192010E94B43AA7E09595E9
:1042E000879577956795AA95D1F74701861A970A1A
:1042F000181419040CF4A8CE2C960FB6F894DEBF4F
:104300000FBECDBFCF91DF911F910F91FF90EF9026
:10431000DF90CF90BF90AF909F908F907F906F90E5
:104320005F904F903F902F9008952F923F924F9221
:104330005F926F927F928F929F92AF92BF92CF9235
:10434000DF92EF92FF920F931F93DF93CF93CDB73E
:10435000DEB768970FB6F894DEBF0FBECDBF7C0105
:1043600070E08B0193E0000F111F9A95E1F7061B97
:10437000170B0E0D1F1D86E6C82ED12CC00ED11EA8
:10438000D601ED91FC913296B490319694910559F5
:104390001F4FD8018C91282E3324910135952795F4
:1043A0003E872D87285E3F4F3C872B87492F50E063
:1043B000588B4F87429DC001439D900D529D900D9B
:1043C000112460E170E00E94003B261B370B3A8706
:1043D00029874B2D50E0429D3001439D700C529D2A
:1043E000700C1124A4E075946794AA95E1F73196B6
:1043F000E491D8012E918D0130E06D857E85261BDC
:10440000370B8E2F90E0DC01A29DC001A39D900D83
:10441000B29D900D1124F4E095958795FA95E1F7FA
:10442000280F391FF901E60DF71DF887EF832F5E7E
:104430003F4FB701620F731F7E836D832151304060
:1044400023014901AA24C80102979A8B898BDC8A2F
:10445000CB8AAB2DBB27A7FDB095BE8BAD8BFA01E8
:104460003197F88FEF8BE8C0F4E58F16910408F0D0
:10447000C4C0AD81BE818C9190E0821593050CF093
:10448000BCC0E989FA8900811181AB89BC892D9171
:104490003C91F901859194912A2D332727FD309580
:1044A000A9016F857889469F9001479F300D569FDF
:1044B000300D1124820F931FAC01569547955695E8
:1044C0004795242F220F220F821B880F8C83040F05
:1044D000151F1A830983F80184918B83CE010196FD
:1044E0000E948E1B482FED84FE840B851C85BB2407
:1044F000C82CDD2471C0003311050CF05CC04230C3
:1045000009F43FC04330E1F0413009F054C0802F3E
:1045100090E0FC01EE0FFF1FEC5DFE4F0190F0817B
:10452000E02DEC0DFD1DE150FB4F8770907021E0F8
:1045300030E002C0220F331F8A95E2F7C9011DC087
:10454000C8018825992580FF1CC0802F90E0FC01C0
:10455000EE0FFF1FEC5DFE4F0190F081E02DEC0DA2
:10456000FD1DE150FB4F87709070A1E0B0E002C0EC
:10457000AA0FBB1F8A95E2F7CD0180952081822387
:1045800019C0202F30E0F901EE0FFF1FEC5DFE4F48
:104590000190F081E02DEC0DFD1DE150FB4F2770E7
:1045A000307061E070E002C0660F771F2A95E2F775
:1045B0008081862B808381EF9FEFE80EF91E08C073
:1045C000CE0101960E948E1B482FE20CF31CB3947F
:1045D000F7FCF6CF01501040A985BA850A171B07D2
:1045E00064F017FD0AC08B2D992787FD9095EF8504
:1045F000F8898E179F070CF47ECF2D893E89421AC9
:10460000530A1614170424F00EC0A394460C571C2A
:104610008A2D992787FD90954F89588D8417950786
:1046200014F457FCF2CF0894811C911C6D817E819B
:104630006F5F7F4F7E836D838F8198858815990585
:104640000CF012CF68960FB6F894DEBF0FBECDBF48
:10465000CF91DF911F910F91FF90EF90DF90CF905E
:10466000BF90AF909F908F907F906F905F904F9092
:104670003F902F900895CF92DF92EF92FF920F9389
:104680001F93CF93DF93E62F042FC22EFF27E7FD62
:10469000F095EE0FFF1FEE5BFC4FBF016F5F7F4F8A
:1046A000D490A1E010E051E0E52EF12C49C08B2F11
:1046B0008C0D2A2F30E04D2D50E02423352390E03F
:1046C000232BC9F4FC01EE0FFF1FEC5DFE4F0190A0
:1046D000F081E02DEC0FFD1FE150FB4F87709070D3
:1046E000970102C0220F331F8A95E2F7C901809516
:1046F0002081822316C0FC01EE0FFF1FEC5DFE4FF0
:104700000190F081E02DEC0FFD1FE150FB4F877011
:104710009070970102C0220F331F8A95E2F78081C3
:10472000822B8083AA0F29F4FB016F5F7F4FD49007
:10473000A1E0BF5FB53009F0BACF1F5F133031F091
:10474000B0E0812F800FC82FD0E0B1CF30E00D5FF7
:10475000402F50E061E070E0832F8C0D90E0FC0171
:10476000EE0FFF1FEC5DFE4F0190F081E02DE40F96
:10477000F51FE150FB4F87709070DB0102C0AA0F5C
:10478000BB1F8A95E2F7CD0180952081822380832B
:104790003F5F353009F7DF91CF911F910F91FF9067
:1047A000EF90DF90CF900895CF92DF92EF92FF923B
:1047B0000F931F93CF93DF936C01E42EF22EEB0146
:1047C00011C00C5FFE0114912196612F605260347C
:1047D00028F4C601402F2F2D0E943B231A3021F4CC
:1047E000F6E0FF0E0E2DEECF112359F7DF91CF919A
:1047F0001F910F91FF90EF90DF90CF900895EF926F
:10480000FF920F931F93CF93DF93EC01062FF42EAB
:10481000E22E10E0101614F0112341F4802F6AE00C
:104820000E94DF3A692F605FCE0102C0CE0160E0D6
:104830004F2D2E2D0E943B231F5F133041F08CEF34
:10484000F80E802F6AE00E94DF3A082FE3CFDF9155
:10485000CF911F910F91FF90EF9008954F925F922B
:104860006F927F928F929F92AF92CF92EF92FF9230
:104870000F931F93CF93DF932C0103E3602E02E08D
:10488000702E1FE0F12ED3011596EC90159781E361
:1048900092E011966C91119712964C910E94980D8E
:1048A000882309F4E8C0F3019081993009F07FC0B2
:1048B0008181C82FDD27C7FDD095B5E0CC0FDD1F66
:1048C000BA95E1F78281882E992487FC9094A5E01F
:1048D000880C991CAA95E1F78481843081F0853099
:1048E00018F48330D9F405C0853071F08630B1F406
:1048F00011C0D30113968C91881A91080FC0F3014F
:104900008381C80FD11D0AC0D30113968C91880EE4
:10491000911C04C0F3018381C81BD109D2011196F7
:104920008D919C9112978C179D0754F4A401405EC1
:104930005F4FC201BE019E018401F301E5800FC0FB
:10494000C817D9078CF49E01205E3F4F8401005E9A
:104950001F4FC201B901A401D3011596EC90CC24DC
:10496000FFE0AF2E0E94A81DF20183819481840193
:10497000005E1F4F0817190754F4BE01605E7F4F99
:10498000C201A8019E01D3011596EC900CC08815B8
:1049900099050CF070C0C201BE01A401A0969E0151
:1049A0008401F301E580CC24EFE0AE2E62C0D30198
:1049B00013966C911397062F10E0003111050CF03F
:1049C0005AC011968C911197282F332727FD3095C7
:1049D00085E0220F331F8A95E1F712968C91482FBC
:1049E000552747FD5095B5E0440F551FBA95E1F79F
:1049F00090FD1CC0205F3F4FF20181819281FA013E
:104A0000B096000F111F8217930744F4040F151F6F
:104A1000AF2CA61AC201B901AF011FC0040F151FA8
:104A2000CF2CC61AC201B901A80121C0FA017096A3
:104A3000D20113968D919C911497000F111FD901EB
:104A40009096E817F9075CF4020F131FAF2CA61A13
:104A5000C201BD01AF0198018F01CC240AC0020F31
:104A6000131FCF2CC61AC201B801AF019D018F01DF
:104A7000AA240E94A81DE6E0F0E06E0E7F1EFBE770
:104A80006F16F2E07F0609F0FECEDF91CF911F9105
:104A90000F91FF90EF90CF90AF909F908F907F906D
:104AA0006F905F904F9008954F925F926F927F92B8
:104AB0008F929F92AF92BF92CF92DF92EF92FF922E
:104AC0000F931F93CF93DF933C01F62ED42E85E7EF
:104AD00094E00E94222C6F2D772767FD70950D2D95
:104AE000112707FD1095F301C585D685858196812F
:104AF000AB01481B590BA785B089A780B084C501BD
:104B0000801B910B9C012A9FC0012B9F900D3A9F07
:104B1000900D11244C9F90014D9F300D5C9F300DE6
:104B20001124820F931F80589F4F0CF4DBC1C801E2
:104B30008A199B09FC01EC9FC001ED9F900DFC9F21
:104B4000900D11244A9F90014B9F300D5A9F300DBC
:104B50001124820F931F80589F4F0CF4C3C1ACC126
:104B6000EB0185E0CC0FDD1F8A95E1F7480105E0F8
:104B7000880C991C0A95E1F78E2F8B538530A8F489
:104B80008E2F90E0CB97BC01660F771F660F771FC3
:104B9000680F791F6E5B764F609620E130E0820EE1
:104BA000931EC3014BE559E018C08E2F8553863004
:104BB000C8F48E2F90E0C597BC01660F771F660F73
:104BC000771F680F791F6B5D754F609680E190E0ED
:104BD000880E991EC30143E45AE09E0184010E949D
:104BE000BE1F80C1BE2EBA9495E19B1508F47AC110
:104BF000F3018381948121813281881599050CF01C
:104C0000A7C01D2D1150C217D3070CF054C081E36B
:104C100092E06F2D412F0E94310E882351F09E01AA
:104C2000205E3F4FC301BE01A4018401A3E1EA2E2F
:104C300010C081E392E06F2D412F0E94F80D882370
:104C400069F49E01205E3F4FC301BE01A4018401AF
:104C5000EB2CCC24FFE0AF2E0E94A81DA096F30100
:104C600081819281C817D9070CF03CC11F2D1F5FAD
:104C700081E392E0612F4D2D0E94310E882349F08F
:104C8000C301BE01A4019E01E0E2F0E08E0E9F1E72
:104C9000FBC081E392E0612F4D2D0E94F80D882327
:104CA00009F020C1C301BE01A4019E01E0E2F0E0D1
:104CB0008E0E9F1EF9C081E392E06F2D412F0E945E
:104CC000310E882351F09E01205E3F4FC301BE018B
:104CD000A4018401E3E1EE2E10C081E392E06F2D88
:104CE000412F0E94F80D882369F49E01205E3F4FFA
:104CF000C301BE01A4018401EB2CCC24BFE0AB2E88
:104D00000E94A81DF301818192818C179D070CF0F0
:104D1000E9C01F2D115081E392E0612F4D2D0E94BB
:104D2000310E882331F0A401405E5F4FC301BE0104
:104D3000AAC081E392E0612F4D2D0E94F80D8823D7
:104D400009F0D0C0A401405E5F4FC301BE01ABC0FB
:104D5000A0E24A2E512C480C591CC217D3070CF064
:104D600053C0481659064CF51D2D1F5F81E392E094
:104D70006F2D412F0E94310E882351F0BE01605EDD
:104D80007F4FC301A2019E018201F3E1EF2E10C00B
:104D900081E392E06F2D412F0E94F80D882369F482
:104DA000BE01605E7F4FC301A2019E018201EB2C18
:104DB000CC24EFE0AE2E0E94A81DA096F3018181C5
:104DC0009281C817D9070CF08DC01F2D1F5F81E39A
:104DD00092E0612F4D2D0E94310E882331F0C301E6
:104DE000BE01A4019E01820150C081E392E0612FC7
:104DF0004D2D0E94F80D882309F074C0C301BE0137
:104E0000A4019E01820151C0481659064CF51D2D82
:104E10001F5F81E392E06F2D412F0E94310E8823A6
:104E200051F0BE01605E7F4FC301A2019E0182016D
:104E3000B3E1EB2E10C081E392E06F2D412F0E9471
:104E4000F80D882369F4BE01605E7F4FC301A201A3
:104E50009E018201EB2CCC24AFE0AA2E0E94A81D5B
:104E6000F301818192818C179D07E4F51F2D11506C
:104E700081E392E0612F4D2D0E94310E882341F095
:104E8000C301BE01A2019E018401F3E1EF2E0EC019
:104E900081E392E0612F4D2D0E94F80D882311F5DA
:104EA000C301BE01A2019E018401EB2CCC24EFE0E2
:104EB000AE2E0E94A81D16C0ED2DEF70FF27E7FD56
:104EC000F0958F2D8F7094E0EE0FFF1F9A95E1F70C
:104ED000EA57FE4FE80FF11DE25EFE4FE081EE2340
:104EE00009F03ECEDF91CF911F910F91FF90EF908F
:104EF000DF90CF90BF90AF909F908F907F906F90FA
:104F00005F904F900895AF92BF92CF92DF92EF9251
:104F1000FF920F931F93CF93DF93EC0129853A857E
:104F20001216130644F4E0903102E0E1AE2EAE0C0E
:104F3000BB24B39409C080913102A82EAA947FE0CB
:104F4000E72EE80EBB24BA944B855C8557FF08C05A
:104F5000F090320260E1C62ECF0CDD24D39409C05C
:104F600080913202C82ECA949FE0F92EF80EDD24FB
:104F7000DA9437FF03C0309521953F4FCA0157FFA0
:104F800003C0909581959F4F2817390714F00E2D77
:104F900018C00F2D09C0CE01612F402F0E9454254B
:104FA0001B0D1A15C1F70D0D0C1579F01E2DF9CF3B
:104FB000CE01602F412F0E9454251D0D1C15C1F7F5
:104FC0000B0D0A1511F01F2DF9CFDF91CF911F9115
:104FD0000F91FF90EF90DF90CF90BF90AF9008952A
:104FE0008CEFEFEFF4E0DF011D928A95E9F78CEF8B
:104FF00090E035E50CC0308311822E5F3296243567
:10500000D1F78C5A9F4FB1E0883F9B0729F0FC01F4
:10501000E150FB4F20E0EFCF0895CF92DF92EF9267
:10502000FF920F931F93CF93DF93EC01CB59DF4F88
:105030008FEF8883C556D040FE01E859FF4F80E0CE
:10504000118210828F5F37968830D1F780912402C9
:10505000909125029A83898380912602909127025C
:105060009C838B83809128028195805C0E94E70C51
:105070009A8789878091280281950E94E70C9C87F6
:105080008B87809128028195805A0E94E70C9E8729
:105090008D879091280280E2891B0E94E70C988BF3
:1050A0008F87809124029091250245E09595879500
:1050B0004A95E1F79E838D83809126029091270285
:1050C00035E0959587953A95E1F798878F83FE01AE
:1050D00080E0118A8F5F31968435D9F7CE010E9426
:1050E000F027CE010E948327CE010E942E2420E3C8
:1050F000E22E24E0F22E00E010E09DE0C92ED12C3B
:10510000F7018081882391F00C9D90010D9D300D59
:105110001C9D300D1124F901E55CFB4F808181FD60
:1051200005C0C901815D9B4F0E94F70A0F5F1F4FA9
:105130008DE090E0E80EF91E0530110509F78BE7C8
:10514000E82E82E0F82EF7018081882331F190E08B
:105150008997BC01660F771F660F771F680F791F4D
:105160006C53754F2181332727FD309515E0220FB1
:10517000331F1A95E1F7205F3F4F0281112707FD8A
:105180001095B5E0000F111FBA95E1F7005F1F4FB2
:10519000CE0140E05BE00E94BE1F84E090E0E80E9C
:1051A000F91E93EAE91692E0F90669F6CB59DF4F4A
:1051B0001881C556D04013C0CE01612F0E949521A1
:1051C000812F90E0FC01A3E0EE0FFF1FAA95E1F70D
:1051D000E81BF90BEC0FFD1FE459FF4F10811F3F37
:1051E00059F7CE010E94011CCE010E94BB1BCE01CB
:1051F0006BE040E02BE20E943B23CE01609129024C
:105200004CE02BE20E94FF23CE016AE044E42BE253
:105210000E943B23CE0160912D0240E52BE20E94CB
:10522000FF23DF91CF911F910F91FF90EF90DF90BF
:10523000CF9008958FEF8EBD0DB407FEFDCF8EB5D4
:1052400008958EBD0DB407FEFDCF0895EF92FF9235
:105250000F931F9385E794E00E94222C84E794E04B
:105260000E94590D0E94E1387B018C018091FD0460
:105270009091FE042091F9043091FA04821B930B63
:105280008E0D9F1D9093FE048093FD048B3F91052E
:10529000C0F08AEF90E09093FE048093FD0411C06B
:1052A00086E891E00E94440C8091FD049091FE04F8
:1052B000C2979093FE048093FD0480917204833022
:1052C00031F48091FD049091FE04C39748F7E09279
:1052D000F904F092FA040093FB041093FC0486E8AE
:1052E00091E00E947D0B83EC94E00E94562A1F916E
:1052F0000F91FF90EF900895BC0186E891E040E0A7
:1053000020E00E94D42383EC94E00E94562A089562
:105310000F931F9305E714E0C8010E94DD2C81E084
:105320008093C5041092C70410928D04C8016EE1E9
:105330000E946F2B8FE397E06AE070E04AE159E248
:1053400021E239E20E946E3886E891E00E94C90CA1
:105350000E94E1386093F9047093FA048093FB048F
:105360009093FC041F910F910895882319F48CB534
:10537000806202C08CB58F7D8CBD08959CB5937FF3
:10538000982B9CBD08952CB5382F33702C7F322B71
:105390003CBD2DB590E09595879595958795817045
:1053A0002E7F822B8DBD08958AE061E00E94423AF3
:1053B0008AE061E00E94D6398CB580618CBD8CB5E5
:1053C00080648CBD8DE061E00E94D6398BE061E0A5
:1053D0000E94D63908950895089585E070E00E94EE
:1053E0007639089508950895FC0188E0808389E066
:1053F000818387E0828386E0838384E0848382E004
:10540000858381E18683089520E0FC01E60FF11D8C
:105410008781813009F421E0822F08950F931F9333
:10542000CF93DF93EC0110E00FEF888162E00E94E0
:10543000D63988810E94753A2F81892B19F42F5F04
:105440002F8307C0222349F02F3F11F41F8201C090
:105450000F83888160E00E94D6391F5F2196173044
:1054600021F7DF91CF911F910F9108951F93CF9353
:10547000DF93EC01162FF8948C8560E00E94423A8D
:105480008D8518161CF460E00E94423A1EBD0DB4D2
:1054900007FEFDCF8EB58D8518161CF461E00E94C5
:1054A000423A7894DF91CF911F910895FF920F9324
:1054B0001F93CF93DF93EC0189858F5F8987FF244A
:1054C00000E010E06F2D6064CE010E94362ACE010C
:1054D00060E80E94362A8C8561E00E94423A8D8500
:1054E00018161CF460E00E94423AF801E150FB4FAC
:1054F00090E080818EBD0DB407FEFDCF8EB59F5F1D
:1055000031969435B1F78D8518161CF461E00E9430
:10551000423AF3940C5A1F4F86E0F81699F6CE01E2
:1055200060E40E94362ADF91CF911F910F91FF9086
:105530000895CF93DF93DC0188EF91E0EFEFF4E083
:10554000EF019C01199221503040E1F716961C9210
:10555000169717961C92DF91CF910895EF920F93B3
:10556000CF93DF93EC014B876A872C87EE860D87FC
:1055700081E08D838D8F1E8E8B838C830E94D42936
:1055800081E00E94B52985E00E94C3298CE00E9439
:10559000BE298B8561E00E94D6398A8561E00E9430
:1055A000D6398C8561E00E94D6398E8518161CF498
:1055B00061E00E94D6398D8518161CF461E00E94C6
:1055C000D6398E8518166CF460E00E94423A6AE083
:1055D00070E080E090E00E9415398E8561E00E94C5
:1055E000423AEA852E2F332727FD3095F901E25CF8
:1055F000F24FE491F0E0EE0FFF1FE65DF24F859170
:1056000094919A8B898B2E5A324FF9018491888F0D
:10561000EB852E2F332727FD3095F901E25CF24F01
:10562000E491F0E0EE0FFF1FE65DF24F859194915B
:10563000988B8F872E5A324FF90184918F8BED858D
:105640002E2F332727FD3095F901E25CF24FE491CC
:10565000F0E0EE0FFF1FE65DF24F859194919C8B79
:105660008B8B2E5A324FF9018491898FEC852E2F26
:10567000332727FD3095F901E25CF24FE491F0E029
:10568000EE0FFF1FE65DF24F859194919E8B8D8BFF
:105690002E5A324FF90184918A8FCE0161E20E9425
:1056A000362ACE0164E10E94362A888587FF02C02F
:1056B0008FE7888768856068CE010E94362ACE0110
:1056C00060E20E94362ACE016CE00E94362ACE01AA
:1056D0000E94562ADF91CF910F91EF900895FC011F
:1056E000262FE458FF4F88EE93E070E00E94003BC5
:1056F0006083EC57F040822F64E10E94D33A882304
:1057000009F481E081A708958BE091E0EEEFFFE3DB
:1057100009950895CF93DF93DC01E0E8F7E78591E1
:105720009491ED01CA5ADF4FAD0143595F4F81504B
:10573000904C09F04EC0E6E9F7E7E491E883E7E929
:10574000F7E7E4911496EC931497E8E9F7E7E4910E
:105750001596EC931597E9E9F7E7859194911796DB
:105760009C938E931697EBE9F7E7859194911996A0
:105770009C938E931897EDE9F7E7E4919B96EC9351
:105780009B97EEE9F7E7E4919A96EC939A97EFE905
:10579000F7E7E491EA01E883E0EAF7E7859194917D
:1057A0005D969C938E935C97E2EAF7E785919491DE
:1057B0005F969C938E935E97E4EAF7E785919491C8
:1057C00091969C938E939097E6EAF7E78591949152
:1057D00032C08CE3888314961C9214972FEF159691
:1057E0002C93159780E293E017969C938E931697CF
:1057F00084ED93E019969C938E93189781E09B9685
:105800008C939B979A968C939A97FA0120838CEAB3
:105810009DE05D969C938E935C978EED9DE05F96E8
:105820009C938E935E9784E79EE091969C938E93D3
:1058300090978CE39FE093969C938E939297DF9141
:10584000CF910895AF92BF92CF92DF92EF92FF92E5
:105850000F931F93CF93DF93EC019DE7A92EB12CFB
:10586000AC0EBD1EF501E080F180028113810E9423
:10587000E138E61AF70A080B190B8CE7C82ED12C71
:10588000CC0EDD1EF601808190E0A0E0B0E08E1528
:105890009F05A007B10708F083C08E0108581F4F6D
:1058A000F80180819181A281B3810097A105B105A2
:1058B00009F476C00E94E138F6012081620F711D63
:1058C000811D911DF5016083718382839383FE01A5
:1058D000E259FF4F80819181A281B3810196A11D80
:1058E000B11D80839183A283B383F801108211825A
:1058F000128213820E94EF38CC58DF4F688379837D
:105900008A839B83C457D040CE010E94EC29CE01EC
:105910000A960E940E2ACE0148960E94F32981E041
:1059200034C08E010B5D1F4FC8010E942C2EC80190
:105930000E94A32EC8010E94862FCE5ADF4F888175
:10594000C255D040882329F0CE01825B9F4F0E9430
:10595000562AC05BDF4F8881C055D040882329F488
:10596000CE01825B9F4F0E94992A0E94EF38C8584F
:10597000DF4F688379838A839B83249728813981C9
:10598000621B730B7A936A9380E0DF91CF911F9132
:105990000F91FF90EF90DF90CF90BF90AF90089560
:1059A000C858DF4F88819981AA81BB81C857D040F0
:1059B0000097A105B10541F7B4CFAF92BF92CF9246
:1059C000DF92EF920F93CF93DF936C018CE790E01F
:1059D000C80ED91E82E3F601808381E090E0A0E04A
:1059E000B0E0B293A293929382936F0185EF9FEF01
:1059F000C80ED91E8FEFF601808383E99FEFC80E92
:105A0000D91EC6010E948A2BC6010E94EB29C6013D
:105A10006FEF0E94ED294AE0A42EB12CAC0CBD1C06
:105A2000C5010E94F429C5010E940E2AC6014896AC
:105A30000E94F229C601825B9F4F6DE04BE020E19E
:105A40000FE03EE0E32E0E94AE2AE601A596CE01CD
:105A50000E94F72FC50165E00E94042A882329F0DF
:105A6000CE0160E00E94E32F06C0CE0165EB7CE032
:105A700040E00E94E22DDF91CF910F91EF90DF90F7
:105A8000CF90BF90AF9008950F93DC01002309F0F1
:105A900069C0623009F443C0633030F4662359F0C2
:105AA000613009F05FC00DC0633009F444C0643058
:105AB00009F058C04CC04B3008F04AE056964C9361
:105AC00051C0842F90E0880F991F1F962D913C9113
:105AD0005097280F391FF9018591949190969C93C6
