:100000000C949F100C94C7100C94C7100C94C7103C
:100010000C94C7100C94C7100C94C7100C94C71004
:100020000C94C7100C94C7100C94C7100C945F2F3D
:100030000C94C7100C94C7100C94C7100C94C710E4
:100040000C94D62F0C94C7100C94C7100C94C710A6
:100050000C94C7100C94C7100C94C7100C94C710C4
:100060000C94C7100C94C710000306090D1013164A
:10007000191C1F2225282B2E3134373A3C3F42448D
:10008000474A4C4F515456585B5D5F6163656769E1
:100090006A6C6E6F717274757677797A7A7B7C7D13
:1000A0007E7E7F7F7F8080808001010101010101D0
:1000B0000101010101010101010101010101010130
:1000C0000101010101010101010101010101010120
:1000D0000101010101010101010101010101010110
:1000E0000101010101010101010101010101010100
:1000F00001010101010101010101010101010101F0
:1001000001010101010101010101010101010101DF
:1001100001010101010101010101010101010101CF
:1001200001010101010101010101010101010101BF
:1001300001010101010101010101010101010101AF
:10014000010101010101010101010101010101019F
:10015000010101010101010101010101010101018F
:10016000010101010101010101010101010101017F
:10017000010101010101010101010101010101016F
:10018000010101010101010101010101010101015F
:10019000010101010101010101010101010101014F
:1001A000010101010101010101010101010101013F
:1001B000010101010101010101010101010101012F
:1001C000010101010101010101010101010101011F
:1001D000010101010101010101010101010101010F
:1001E00001010101010101010101010101010101FF
:1001F00001010101010101010101010101010101EF
:1002000001010101010101010101010101010101DE
:1002100001010101010101010101010101010101CE
:1002200001010101010101010101010101010101BE
:1002300001010101010101010101010101010101AE
:1002400001010101010C0C0C0C0C0C0C0C0C0C0C25
:100250000C0C0C0C01010101010101010101010162
:10026000010101010101010101010101010101017E
:10027000010101010101010101010101010101016E
:1002800001010101010C0C0C0A0C0C0C0C0C0A0CE9
:100290000C0C0C0C01010101010101010101010122
:1002A000010101010101010101010101010101013E
:1002B000010101010101010101010101010101012E
:1002C00001010101010C35000000000000000000E8
:1002D000350C0C0C0C0C0C01010101010101010198
:1002E00001010101010101010101010101010124DB
:1002F000242828010101010101010101020201027A
:1003000002030102010A000031001A31000031002D
:10031000000A0C0C0C0C0C0101010101010101018E
:10032000010101010101010101010101010101249A
:10033000242A28010101010101010200000000003E
:1003400000000000000C00000000000000000000A1
:10035000000C2828290C0C010101010101010101F7
:10036000010101010101010101010101010101245A
:10037000242A2A0001010101010101003C000000C2
:10038000003C0000001300000000004000000000DE
:100390001B13001C280A0C010101010101010101CC
:1003A000010101010101010101010101010101241A
:1003B000242A0000010101010101020000000000E7
:1003C00000000000000C0000000000000000000021
:1003D000000C2929290C0C01010101010101010175
:1003E00001010101010101010101010101010102FC
:1003F00006010204020106010101010000000101E1
:1004000001030101020B00000000000000000000D9
:10041000000B0C0C0C0C0C0101010101010101018C
:1004200001010101010101010101010101010200BC
:1004300028293600362900000201010000000101D0
:1004400001010101010C000000000000000000009B
:10045000000C0C0C0C0C0C0101010101010101014B
:10046000010101010101010101010101010103007B
:10047000320000002800321C0301020000000102CB
:1004800001010101010C0C0C0A0C0C120C0C0A0CE1
:100490000C0C0C010101010101010101010101012B
:1004A000010101010101010101010101010101003D
:1004B000001A000000000000020000001A00000006
:1004C00001010101010C0C0C0C0C0000000C0C0CC7
:1004D0000C0C0C01010101010101010101010101EB
:1004E00001010101010101010101010101010200FC
:1004F00000000031001B0000130000003C00000061
:10050000010101010101010C0C0C001B000C0C0C81
:100510000C0C0C01010101010101010101010101AA
:1005200001010101010101010102020202010100B8
:1005300000000000000000000100000000001B009F
:10054000010101010101010C0C0B003C000B0C012D
:10055000010101010101010101010101010101018B
:100560000101010101010101010102010201032A4E
:10057000321C0000000032000301020106010201EA
:10058000010201010101010C0C0C0000000C0C0126
:10059000010101010101010101010101010101014B
:1005A0000101010101010101010200253A01012AB5
:1005B0002A0000000000001C0101010101010101ED
:1005C0000101010C0C0C0C0C0C0C0000000C0C0CB0
:1005D0000C01010101010101010101010101010100
:1005E00001010101010101010101003C00020102C0
:1005F00006010112010106020101010101010101CF
:100600000101010C0C0C0C0C0C0C0000000C0C0C6F
:100610000C010101010101010101010101010101BF
:1006200001010101010101010101000000010101BD
:1006300001010000000201010101010101010101AC
:100640000101010C0C00000A1A00003C00003B0CE8
:100650000C0101010101010101010101010101017F
:100660000101010101010101010201120101010168
:100670000103003C0003010101010101010101012D
:100680000101010C0C24000C0C0C0000000C0C0CE3
:100690000C0101010101010101010101010101013F
:1006A000010101010101010101010000000101023C
:1006B000010100000002010101010101010101012C
:1006C0000101010C0C24250C0C0C0000000C0C0C7E
:1006D0000C010101010101010101010101010101FF
:1006E00001010101010101010101003C00020000C2
:1006F00027010000000101010101010101010101C7
:100700000101010C0C2C250C0C0C0000000C0C0C35
:100710000C010101010101010101010101010101BE
:100720000101010101010101010100000000003C83
:100730001A03003C00030101010101010101010153
:100740000101010C0C0C0C0C0C0A003C000A0C0101
:100750000101010101010101010101010101010189
:10076000010101010101010101010000000100007E
:100770002902001C00010101010101010101010127
:100780000101010C0C0C0C0C0C0C0000000C0C01F9
:100790000101010101010101010101010109090931
:1007A00009090909090909090902000000010201F2
:1007B0000201011201010201010101010101010116
:1007C0000101010101010101010C0A120A0C0202DE
:1007D00002020202020101010101010101090808EE
:1007E00009080808090909080903003C0003011C5D
:1007F00000000000000000000101010101010101F1
:100800000101010201020103023800000038010366
:100810000102010102010101010101010109082791
:10082000000000003A3A3A08090200000001020004
:10083000380000000000380003010101010101013E
:100840000101010138001C00000000000000000050
:100850000000380202090909090909090909080003
:100860000000000000003A09090100000001020038
:10087000003C0000003C00000101010101010101F8
:10088000010101060000000000000000000000005F
:1008900000000006090808080908080809090800F6
:1008A000000000001A00000809010000000001001B
:1008B000000000000000000002010101010101012F
:1008C0000101010100000000000000000000000024
:1008D0000000000009000000000000000000080007
:1008E00000000000000000090901000000001300E2
:1008F0001A000000000000000301010101010101D4
:100900000101010200004000000000400000001A48
:100910004000000013000000000000000000130071
:1009200000000000000000050901000000000100B7
:1009300000000000000000000101010101010101AF
:1009400001010102000000000000000000000000A2
:100950000000000008000000000000000000090086
:100960000000000000000009090100000001010072
:10097000003C0000003C00000202010101010101F5
:10098000010101060000000000000000000000005E
:100990000000000608080800000000090908080017
:1009A0000030270030001C0809020000000101008F
:1009B00038000000000038000301010101010101BD
:1009C00001010102380000000000000000000000EA
:1009D00000003802020208080000080808080900A0
:1009E00000000000000000090901000000010100F2
:1009F0000000000000001C000101010101010101D3
:100A000001010101010401020100000000000102D6
:100A10000401020102010809000009080809080090
:100A200000000000002700080904003C0004010247
:100A30000101021201010202010101010101010192
:100A40000101010101010101010808120908080260
:100A50000202020202010809000008080909090946
:100A6000083A09080009080909010000000201010B
:100A70000101000000010101010101010101010169
:100A8000010101010101010108080000000908013C
:100A9000010101010101080800000908090909080C
:100AA00009090909090909090901000000010101F1
:100AB0000102000000020101010101010101010127
:100AC00001010101010101010809003C00090801BF
:100AD00001010101010108090000080809090909CB
:100AE00009090909090909090902000000011C0096
:100AF00033010000000101010101010101010101B7
:100B000001010101010101010808000000090801BB
:100B10000101010101010808001C09080808080872
:100B20000808080808080801010100000000003C4E
:100B30000003003C00030101010101010101010169
:100B4000010101010101010108090000000808017B
:100B5000010101010101080900000808090008005D
:100B60000900092608090801010200000002270007
:100B70000002000000020101010101010101010167
:100B8000010101010101010108090000000908013A
:100B90000101010101010808000000080000000037
:100BA00000000000000808010102003C00010102F1
:100BB0000101000000020101010102010101010126
:100BC00001010101010101010808003C00080801C0
:100BD00001010101010108080000001300000000EC
:100BE00000000000000508010101001B00020102D5
:100BF0000102001C000102010202030102010602BF
:100C000001020101010101010809001C000809019C
:100C10000101010101010809001A0008000000009B
:100C200000000000000808010102000000000000B0
:100C300000000000000000000000020000000000B2
:100C40001C03150101010101080800000009080149
:100C5000010101010101080809080808090008004C
:100C60000800080008090801010200000000003C1B
:100C7000000000000000003C0000130000001A000B
:100C8000001900150101010108090000000908010F
:100C900001010101010108080808080808080808FE
:100CA0000808080808080801010100000000000009
:100CB0000000000000000000000001000000000033
:100CC0001B031501010101010809003C000808018E
:100CD0000101010101010101010101010101010104
:100CE00001010101010101010101020201020201F0
:100CF00002020104010101020101010102010601D8
:100D0000020101020108080808080000000908089B
:100D100008080808010101010101010101010101A7
:100D200001010101010101010101010101010101B3
:100D3000010101150300000100000100250101016E
:100D40000101010108080908090808120808080833
:100D50000809080801010101010101010101010166
:100D60000101010101010101010101010101010173
:100D7000010115001900000100000100020101013C
:100D80000101010809002700000800000008000018
:100D90000000090801010101010101010101010136
:100DA0000101010101010101010101010101010133
:100DB0000101011503000000000001010101010112
:100DC00001010108080000000013003C0013003E70
:100DD00000000908010101010101010101010101F6
:100DE00001010101010101010101010101010101F3
:100DF00001010101010101010101010101010101E3
:100E000001010108080000000008000000080000BF
:100E100000000908010101010101010101010101B5
:100E200001010101010101010101010101010101B2
:100E300001010101010100000101010101010101A4
:100E4000010101080900000000090000000900007C
:100E50000000090801010101010101010101010175
:100E60000101010101010101010101010101010172
:100E70000101010101010000010101010101010164
:100E8000010101080808090808090000000808080D
:100E90000808080801010101010101010101010126
:100EA0000101010101010101010101010101010132
:100EB0000101010101010101010101010101010122
:100EC00001010108080000000008000000080000FF
:100ED00000000808010101010101010101010101F6
:100EE00001010101010101010101010101010101F2
:100EF00001010101010101010101010101010101E2
:100F000001010108090021003D13003C00132700E6
:100F100000000908010101010101010101010101B4
:100F200001010101010101010101010101010101B1
:100F300001010101010101010101010101010101A1
:100F4000010101080800000000080000000800007E
:100F50000000080801010101010101010101010175
:100F60000101010101010101010101010101010171
:100F70000101010101010101010101010101010161
:100F8000010101080809090808090000000908080A
:100F90000908080801010101010101010101010124
:100FA0000101010101010101010101010101010131
:100FB0000101010101010101010101010101010121
:100FC000010101080800000000000000000000000E
:100FD00000000808010101010101010101010101F5
:100FE00001010101010101010101010101010101F1
:100FF00001010101010101010101010101010101E1
:10100000010101080900003C0000003C0000003C18
:101010001B24080801010101010101010101010175
:1010200001010101010101010101010101010101B0
:1010300001010101010101010101010101010101A0
:1010400001010108081C000000000027000000004A
:101050000000080801010101010101010101010174
:101060000101010101010101010101010101010170
:101070000101010101010101010101010101010160
:1010800001010108080509080508090708090509FB
:101090000805080801010101010101010101010127
:1010A0000101010101010101019665559696655501
:1010B00096AAAAAA96565655965656559656AAAA2E
:1010C0009656565996AA565996665659AA6656592C
:1010D0009966AA5A99AA55599996AA5A99966559FC
:1010E000999665599996A5AAAA9665959596659536
:1010F000959665959596659595966595AAAAAAAAD9
:101100009556559595565595955655AA9556559675
:1011100095AAAAAAAA966555969665559696655576
:1011200096966A559696A5AAAA966555969A655575
:1011300096AAAAAA96FADFF79FFADFF79FFA57D680
:101140009F5A65D99FFA9B5695FA97E6AF5A65590B
:1011500095FA97D59FFADFF79FFADFF79F9A65D93F
:10116000999A65D99996A5AAAA96655596966555B0
:1011700096AAAAAAAA5A5555955A5595965A61A95A
:10118000969A00A99A9A00AA9A9A022AAA9AAA0A50
:10119000A85A9A2AA85A55AA9A5A555595AAAAAA57
:1011A000AA9665599996A5AAAA6AAA9AAA5A5555BD
:1011B000955A5555955AAA69AA5A5555955AAAAAA3
:1011C000AA565555955AAAAAAA5A5555955AAAAA41
:1011D000AA5A55559556AAAAAA5A5555955A5555DB
:1011E000956AAA9AAA6AAA9AAA96AAAAAA66959596
:1011F000A56A9595A596A9AAAA5656A9AA969956FA
:1012000099AA9AAA9996555995965999A9969A9AEA
:1012100095AA99A6AA5656A9AA96A9AAAA6A6559EC
:10122000966665599696AAAAAA6AAA9AAA5A55557E
:10123000955A5555955AAA69AA5A5555955AAAAA22
:10124000AA565555955AAAAAA05A5515955AAAAA0A
:10125000805A55559156AAAA825A5555955A5555B0
:10126000956AAA9AAA6AAA9AAA6AAA9AAA6AAA9A33
:10127000AA6AAA9AAA6A5595AA6AAA99AA6AAA996A
:10128000AA56AA59956AAAA9A96A5555A96AA6AAE9
:10129000A96AA6AAA956555595AAAA9AAAAAAA9A27
:1012A000AA565595AA6AAA9AAA6AAA9AAA6AAA9A4C
:1012B000AA6AAA9AAA6A5555956A6A6AAA566A6A71
:1012C000AAAA565595AAA6A6AAAAA6A6AAAAA6A654
:1012D000AAAAA6A6AA56A5A6AAA656559556A69AFD
:1012E000AA6A5595AA6AAA9AAA56555595A6AAAA6F
:1012F000AA6A4555A5660100A062A84AA4265665BB
:10130000A52A6AAAAA266A65A5225669A52666653F
:10131000A5266AAAAA2A5625A426A84AA466410098
:10132000A1A2AAAAAA5655559556555595AAAAAA54
:10133000AA5A5555A55A5555A55A5595A65A61A963
:10134000A69A00AAAA9A00AAAA9A022AAA9AAA0A5D
:10135000A85A9A2AA85A55AAAA5A55A9A65A55551A
:10136000A5AAAAAAAA565555955655559556555506
:1013700095AAAAAAAA565555950200008056555519
:1013800095AAAAAAAA565555950200008056555509
:101390009556555595AAAAAAAA56555595565555E6
:1013A000950200008056555595AAAAAAAA961950EA
:1013B00095A6295295961950955655559556015012
:1013C000955605549546155594065515940654059D
:1013D0009406551594461555945605549556015046
:1013E0009556555595AAAAAAAA5655559556555596
:1013F00095A6AAAA9A6655559166000091664A0478
:101400009166020091664004916608049166424428
:10141000916648409166000091665555910600001E
:10142000905655559556555595565555955655556D
:1014300095A6AAAA9A665555916655559166555531
:101440009166555591665555916655559166555518
:101450009166555591665555916655559106000012
:1014600090565555955655559556552180565521AA
:10147000805655218056552180565521805655213C
:10148000805655218056552180565521805655212C
:10149000805655218056552180565521805655211C
:1014A0008056552180565521805659659556596567
:1014B0009556A96A95AA5A65955659A5AA56596589
:1014C00095565965955659659556596595AA5A6523
:1014D0009556A96A95565965955659A5AA565965BE
:1014E0009556596595AA5A65955659659556596503
:1014F0009556016095AA004095168000AA0608023C
:10150000940622089486000294060820940A820811
:10151000940608029416200095560080AA56016091
:101520009556596595AA5A6595AAAAAAAAFEFFFFDB
:10153000BF5E956AB55E5555B55EA56AB55E6566D2
:10154000B55EA56AB55E5555B55E5555B55E555542
:10155000B55E5555B55E5555B55E5555B55E555597
:10156000B5FEFFFFBFAAAAAAAAAAAAAAAA565555BB
:1015700095260000906655559166555591A6AAAAE4
:101580009A56555595AAAAAAAAAAAAAAAA565555DC
:1015900095060000906655559166555591A6AAAAE4
:1015A0009A56555595AAAAAAAA56555595AA55557B
:1015B000959AA96A958A4965959AA96A95AA5555F1
:1015C0009556854A95160648929606689A160648D4
:1015D0009256854A955655559556955A95AAAA58A4
:1015E000950A005895AAAA5A95AAAAAAAA56555584
:1015F0009556555995565569955655599556555977
:101600009556555995565559955655699556555966
:101610009556555995565559955655699556555956
:101620009556555595AAAAAAAA00000000000000E8
:10163000400000004000000050000000500000008A
:101640005020000050180000501A000050180000F0
:10165000502000005000000050000000500000002A
:1016600050000000400000004000000000000000AA
:10167000000000000000000000000000000000006A
:10168000080000009A000000AE0000003C000000CE
:101690003C000000AD000000BD0000003C00000068
:1016A00030000000300000001000000000000000CA
:1016B000000000000000000000000000000000002A
:1016C000080000009A000000AE0000003C0000008E
:1016D0003C000000AD000000BD0000003C00000028
:1016E000300000003000000010000000000000008A
:1016F00040000000400000005000000050000000CA
:101700005020000050180000501A0000501800002F
:101710005020000050000000500000005000000069
:1017200050000000400000004000000000000000E9
:101730004000000040000000500000005000000089
:101740005020000050180000501A000050180000EF
:101750005020000050000000500000005000000029
:1017600050000000400000004000000000000000A9
:10177000000000AA2A00000C020000BEAA00003CE3
:101780000200003C2A00003C300000FFFF00003C4B
:101790003A00003C020000BE2A00003C020000BEED
:1017A0002A00000C00000000000000000000000003
:1017B000000000AA2A00000C020000BEAA00003CA3
:1017C0000200003C2A00003C300000FFFF00003C0B
:1017D0003A00003C020000BE2A00003C020000BEAD
:1017E0002A00000C000000000000000000000000C3
:1017F00000000000000000000000800000008808D9
:101800000000AA022880AA02A800AA56A500A802E1
:10181000A800A20228002002000000000000000032
:1018200000000000000000000000000000000000B8
:10183000000000000000000000000000000000AAFE
:101840002A00806696008066960080669600806614
:10185000960000AA2A00000000000000000000001E
:101860000000000000000000000000000000000078
:101870000000000000000000000000000000000068
:10188000000000AA2A0080669600806696008066A6
:1018900096008066960000AA2A0000000000000062
:1018A0000000000000000000000000000000000038
:1018B0000000000000000000000000000000000028
:1018C000000000540A0000A9AA0000A9AA0000A96B
:1018D000AA0000A80A0000000000000000000000AC
:1018E00000000000000000000000000000000000F8
:1018F00000000000000000000000800000008808D8
:101900000000AA022880AA02A800AA56A500A802E0
:10191000A800A20228002002000000000000000031
:1019200000000000000000000000000000000000B7
:101930000000000000000000000080000000880897
:101940000000AA022880AA02A800AA56A500A802A0
:10195000A800A202280020020000000000000000F1
:101960000000000000000000000000000000000077
:101970000000000000000000000000000000000067
:101980000000400400005515AA405595AA005015C6
:10199000AA0000000000000000000000000000009D
:1019A0000000000000000000000000000000000037
:1019B0000000000000000000000080000000880817
:1019C0000000AA022880AA02A800AA56A500A80220
:1019D000A800A20228002002000000000000000071
:1019E00000000000000000000000000000000000F7
:1019F00000000000000000000000800000008808D7
:101A00000000AA022880AA02A800AA56A500A802DF
:101A1000A800A20228002002000000000000000030
:101A200000000000000000000000000000000000B6
:101A300000000000000000000000A0020000F80B01
:101A40000000F92F40ECF95B55EFA7D6FFEC555598
:101A50005500050040A86AA9AA50000000540100E2
:101A60000000000000000000000000000000000076
:101A70000000000000000000000000000000000F57
:101A80000000C8FF2B0096DB2B00D6F6AF00C8FB8A
:101A9000AF00000F00000000000000000000000088
:101AA0000000000000000000000000000000000036
:101AB0000000000000000000000000000000007FA7
:101AC0000000C8FBAF0096FBAF00D6F6AF00C8FB26
:101AD000AF00007F000000000000000000000000D8
:101AE00000000000000000000000000000000000F6
:101AF0000000000000000000000000000000000FD7
:101B00000000C8FBAF0096FBAF00D6D62B00C8FF85
:101B10002B00000F0000000000000000000000008B
:101B200000000000000000000000000000000000B5
:101B30000000000000000000000000008000000322
:101B4000AC00C8FBAF0096F9000096F50000C8FB9A
:101B5000AF000003AC0000008000000000000000A7
:101B60000000000000000000000000000000000075
:101B70000000000000000000000000000000400025
:101B80002000C0C02B00C8FBAB0096FBAF00D60204
:101B9000000000070000200000000000000000001E
:101BA0000000000000000000000000000000000035
:101BB0000000000000000000000000000000000025
:101BC0000000000020000A00280002FC0200F4FED1
:101BD0000A00D4FE000040000000020000000000E7
:101BE0000080000000000000000000000000000075
:101BF00000000000000000000000000000000000E5
:101C0000000000000000A080000020200200003F33
:101C10000000802F000090BF0000D00E0000C80020
:101C2000000000070000200000000000000000008D
:101C300000000000000000000000000000000000A4
:101C40000000000000000028280000080F0000C06D
:101C50000F0000801E0000F0030000F0030000C829
:101C600003000000030000201C0000000000000032
:101C70000000000000000000000000000000000064
:101C8000080000009A000000AE0000003C000000C8
:101C90003C000000AD000000BD0000003C00000062
:101CA00030000000300000001000000000000000C4
:101CB00000000000000000000000000028000000FC
:101CC000960000A8550000AA560080AA560000AA57
:101CD000560000A8550000009600000028000000F3
:101CE00000000000000000000000000000000000F4
:101CF0000000000000000000000000808200006082
:101D00006900805A6500A06A6500A86AA500A06AFB
:101D10006500805A65000060690000808200000054
:101D200000000000000000000000000000000000B3
:101D30000000000000000000800000A0608000584B
:101D40005A60A2565958A95A5956AA5AA958A95A76
:101D50005960A256598000585A0000A06000000047
:101D600080000000000000000000000000000000F3
:101D70000000000000000000000000A082000058E9
:101D80006900805A6580AA6A65A0AA6AA580AA6AC5
:101D90006500805A65000058690000A082000000BC
:101DA000000000000000000000574F4C4633442064
:101DB00044454D4F0A0A436F6E74726F6C733A0A52
:101DC0002015207374726166650A20162072756E84
:101DD000200003053F213F0A100A1208120E1C0EB4
:101DE0000C1E0C141A14161F161E131E1E1B1E1E6C
:101DF0001F1E3F213F3A2F3A173D173F213F181F23
:101E000002040A041F0E04040E1F0A1F0A0E0E1FEE
:101E100004110E2E252E2F2A2E262929021F0208F4
:101E20001F08150E04040E150E15151B151B0406B0
:101E300004040C040000000017000300031F0A1F25
:101E400016371A1904130A153A000300000E11116F
:101E50000E000A040A040E040030000404040010FA
:101E6000001804031F111F121F101D151711151F35
:101E700007041F17151D1F151D01011F1F151F1713
:101E8000151F000A00003200040A110A0A0A110A8A
:101E9000040115020E11171E051E1F150A0E110A48
:101EA0001F110E1F15111F05010E111D1F041F11FB
:101EB0001F1108100F1F041B1F10101F061F1E04E8
:101EC0000F0E110E1F09060E112E1F051A121509ED
:101ED000011F011F101F0F180F1F0C1F1B041B03D6
:101EE0001C03191513001F11030418111F00020110
:101EF000022020200001020C121E1F120C0C1212D4
:101F00000C121F0C1A14041E05242A1E1F021C1476
:101F10001D1020201D1F0814111F101E041E1E025C
:101F20001C0C120C3E0A040C123E1E040214160A6B
:101F3000020F120E101E0E100E1E081E120C12267C
:101F4000281E322A26041E21001F00211E04010221
:101F5000013F213F0A4E6F20534420636172642089
:101F60006F720A6E6F204C4F414445522E484558BF
:101F70000A0A153A45786974001D20466C61736839
:101F8000696E670A20206C6F616465722E2E2E0ABE
:101F90000A444F4E2754205455524E204F46462156
:101FA000004E4F20424154544552590A0A504C4564
:101FB0004153450A5455524E204F4646001773610F
:101FC000766500166261636B001574797065000AAE
:101FD0000A0A153A6F6B617920163A6564697400D4
:101FE000596F7520656E74657265640A00540A0342
:101FF000E181867F3E186D830F0F0E01838660336B
:10200000186DC3198F1803C38E6033186DE330CF7A
:102010001803C39E603630CDE360CF3006C79E7E86
:102020003E30CDB360CF300CC6F6603330D9B660E9
:10203000CF33CFCCF66061B0DB1E60CF30D86CE61A
:10204000C061B0DB1E618F19986CC6C063B19B0E76
:10205000330F0FB078C6FF7E1F1B061E0F175344A9
:102060000016137800161314001510200015201008
:102070000000000500893008023802497868140021
:1020800000450068010000050068013801000005F6
:1020900000380168010000F6E8DBCFC3B8AEA49BAE
:1020A000928A827B746E68625C57524E4945413E0B
:1020B0003A3734312E2C29272523211F1D1C1A19AC
:1020C00017161514131211100F0E0D0C0B0A090818
:1020D0000706D620DA200101F7030101FF03000003
:1020E0000000240027002A0000000000250028002E
:1020F0002B00000000002300260029000404040433
:1021000004040404020202020202030303030303A1
:10211000010204081020408001020408102001027E
:10212000040810200000000700020100000304065C
:102130000000000000000000C9105911C82111243E
:102140001FBECFEFD8E0DEBFCDBF11E0A0E0B1E011
:10215000E2E3F9E602C005900D92A837B107D9F77E
:1021600015E0A8E7B1E001C01D92A83CB107E1F776
:1021700011E2CEE3D1E204C02297FE010E94933423
:10218000C833D107C9F70E9404320C9497340C94D9
:102190000000EEE0F2E011821082359682E0EC322F
:1021A000F807C9F78CE293E00E94FB1408958CE2D3
:1021B00093E00E94B1168AE092E00E94F81488E74A
:1021C00091E00E944D21089580EC97E090932F03B9
:1021D00080932E0380E094E090932D0380932C0352
:1021E00088E791E00E94EC178AE092E00E949F113C
:1021F0000895813430F4E82FF0E0E859FF4FE4917E
:1022000009C0813848F4E0E8F0E0E81BF109E8593A
:10221000FF4FE491F0E014C0282F30E0813C28F417
:1022200028513040F901849106C0E8E6F1E0E21B54
:10223000F30BE4918E2F90E0EE27FF27E81BF90BBC
:10224000CF01089550E070E02223D1F0FA01EE0FA3
:10225000FF1FE95FFE4F0190F081E02DE60FF71FB1
:10226000EF53FC4F4770507081E090E002C0880F40
:10227000991F4A95E2F780952081822380830895F3
:10228000FA01EE0FFF1FE95FFE4F0190F081E02D94
:10229000E60FF71FEF53FC4F4770507081E090E05E
:1022A00002C0880F991F4A95E2F72081282B2083CE
:1022B00008958DE691E09093370380933603089557
:1022C000CF93DF93EC011A8284E00E94D431892BF2
:1022D00019F48A8180618A8382E00E94D431892B3B
:1022E00019F48A8180628A8381E10E94D431892B2A
:1022F00019F48A8180648A8389E00E94D431892B11
:1023000019F48A8181608A8387E00E94D431892B05
:1023100019F48A8182608A8386E00E94D431892BF5
:1023200019F48A8184608A8388E00E94D431892BE1
:1023300019F48A8188608A83DF91CF910895FC0126
:1023400011821082138212820895FC012081318152
:1023500062177307ECF08281938148175907C4F024
:10236000215F3F4F261737079CF00F96841795077C
:102370007CF04F7050706F70707084E0440F551F88
:102380008A95E1F7E40FF51FE60FF71F82A1089584
:102390008FEF08950E94A51190E08150813108F4DB
:1023A00091E0892F0895EF92FF920F931F93CF939F
:1023B000DF93EC017B018A010E94A511982F8150C7
:1023C0008131A0F190539C3088F1DE0120E030E0B3
:1023D00014968D919C911597892B01F116968C91ED
:1023E0001697992787FD90958E159F05B9F4179636
:1023F0008C911797992787FD90958017910771F415
:10240000F901EE0FFF1FEE0FFF1FE20FF31FEC0F9E
:10241000FD1F80858F7390E0409744F02F5F3F4F02
:10242000159626303105A1F680E001C081E0DF91EC
:10243000CF911F910F91FF90EF9008950E94A511E9
:1024400090E08251883008F491E0892F0895EF924E
:10245000FF920F931F93E6E0000F111FEA95E1F73B
:10246000452B29F0020F131F80E090E01FC0020FE0
:10247000131F80E090E00BC0FC01E00FF11FE75557
:10248000FF4FE491DB01A80FB91FEC9301968E1565
:102490009F0594F30EC0F801E755FF4FE491DB016F
:1024A000A80FB91FEC930196005C1F4F8E159F0576
:1024B00094F31F910F91FF90EF900895CF92DF92C8
:1024C000EF92FF920F931F93CF93DF93EC016B0179
:1024D0008A017901AC01FC01AFEFBFEF20E030E0F1
:1024E0008FEFAF3FB80729F484819581892B09F4D8
:1024F000D90184819581892B79F08681992787FD7F
:1025000090958017910741F48781992787FD9095D1
:102510008E159F0509F442C02F5F3F4F3596263038
:102520003105F1F68FEFAF3FB80751F528813981BA
:10253000B901615F7F4FE0E0F0E0DA0116968C911F
:102540001697992787FD909582179307C4F068170F
:102550007907ACF017968C91992787FD9095AA8101
:10256000BB818A179B075CF01F96A817B9073CF040
:1025700031964B5F5F4FE630F105F9F60FC0DF0192
:10258000FD01EE0FFF1FEE0FFF1FEA0FFB1FEC0F09
:10259000FD1F0683E7821086D582C482DF91CF912A
:1025A0001F910F91FF90EF90DF90CF9008951F93B0
:1025B000FC01162F862F8251883068F4623121F495
:1025C000CF0161E070E005C0633129F4CF0162E022
:1025D00070E00E945E12812F1F9108956F927F928A
:1025E0008F929F92AF92BF92CF92DF92EF92FF9223
:1025F0000F931F93DF93CF93CDB7DEB760970FB6DE
:10260000F894DEBF0FBECDBF5C013B01DC012D9114
:102610003C911197260F371F12960D911C9113971D
:102620006E010894C11CD11CB60141E050E0E0E10C
:10263000EE2EF12C0E942712F50180809180860CED
:10264000971CFFE08F229924EE24FF24D5011296D7
:102650000D911C9113970E0D1F1DF601EE0DFF1D20
:102660004D915C91460D571DC501608198010E94F6
:10267000D7120F70107094E0000F111F9A95E1F7B8
:102680000A0D1B1D080D191DF80182A30894E11CF9
:10269000F11CF0E1EF16F104C9F660960FB6F8945C
:1026A000DEBF0FBECDBFCF91DF911F910F91FF9085
:1026B000EF90DF90CF90BF90AF909F908F907F90E2
:1026C0006F9008956F927F928F929F92AF92BF9278
:1026D000CF92DF92EF92FF920F931F93DF93CF93EE
:1026E000CDB7DEB760970FB6F894DEBF0FBECDBF93
:1026F0005C013B01DC012D913C91119712960D91EB
:102700001C911397060F171F6E010894C11CD11C52
:10271000B60140E050E0A0E1EA2EF12C0E94271221
:10272000F501E280F380E60CF71CFFE0EF22FF24C6
:10273000F4E0EE0CFF1CFA95E1F788249924EA0CEA
:10274000FB1CD5010D911C911197080D191DF60167
:10275000E80DF91D12962D913C911397260D371D0A
:10276000C5016081A8010E94D7120F7010700E0D74
:102770001F1DF80182A30894811C911CF0E18F16A3
:102780009104F9F660960FB6F894DEBF0FBECDBF88
:10279000CF91DF911F910F91FF90EF90DF90CF903D
:1027A000BF90AF909F908F907F906F9008950F9300
:1027B0001F93CF93DF938C01C0E0D0E0C801BE012E
:1027C0000E9462132196C031D105C1F7DF91CF91EC
:1027D0001F910F910895EF92FF920F931F93CF9344
:1027E000DF93EC0177FF02C060E070E09A0157FFD1
:1027F00002C020E030E08B016133710514F000E38A
:1028000010E07901213331051CF0B0E3EB2EF12CFF
:10281000288139812017310731F48A819B818E15F7
:102820009F0509F455C0C9010F97081719078CF0C7
:10283000215F3F4F2017310764F02A813B81C90196
:102840000F97E816F9062CF0215F3F4F2E153F0534
:1028500084F419830883FB82EA82CE010E94D71395
:1028600037C0019699838883CE016FE070E00E94A3
:10287000EE1288819981801791079CF308C0019717
:1028800099838883CE0160E070E00E94EE12888117
:102890009981081719079CF308C001969B838A83C6
:1028A000CE016FE070E00E9462138A819B818E15D9
:1028B0009F059CF308C001979B838A83CE0160E04B
:1028C00070E00E9462138A819B81E816F9069CF3EE
:1028D000DF91CF911F910F91FF90EF900895EF92AC
:1028E000FF920F931F93CF93DF93EC017B018A013B
:1028F0000E941E12882349F1FE0120E030E084810D
:102900009581892BE1F08681992787FD90958E1519
:102910009F05A9F48781992787FD909580179107D6
:1029200071F4F901EE0FFF1FEE0FFF1FE20FF31F0F
:10293000EC0FFD1F80858F738064808706C02F5F3A
:102940003F4F359626303105D1F6DF91CF911F915B
:102950000F91FF90EF900895FC019481892F82954B
:10296000869586958370282F30E02130310521F03F
:1029700022303105A1F409C0892F8F738F3311F0F4
:102980008F5F07C08FEB84830895892F8F7331F099
:10299000815C8F73907C982B9483089514820895A2
:1029A000EF92FF920F931F93CF93DF937C018C01E3
:1029B000C0E0D0E0F80184819581892B61F0CE01DF
:1029C000880F991F880F991F8C0F9D1F04968E0DDD
:1029D0009F1D0E94AC1421960B5F1F4FC630D1057E
:1029E00049F7DF91CF911F910F91FF90EF900895DC
:1029F0000E94D0140895FC0181E0858388E08683DD
:102A0000178281858E7F81870895FC01809138032C
:102A1000918585FF0BC090FD0BC0892F8160818758
:102A200081FD06C093609187108602C09E7F9187CA
:102A3000918591FF1BC080858F5F8087863071F004
:102A4000873028F4823061F0843081F405C088300A
:102A500039F08A3059F407C082E003C083E001C036
:102A600081E08783089517829D7F918708958F92D3
:102A70009F92AF92BF92CF92DF92EF92FF920F930D
:102A80001F93CF93DF937C015B014A01FC0180819E
:102A9000918160E270E00E944134EB018281938178
:102AA00060E270E00E9441348B01B7FE4FC06E01BE
:102AB0000894C108D1088AE092E0B601A8010E94FA
:102AC000D311882381F5C80135E0880F991F3A9505
:102AD000E1F70896F701228133812817390754F46A
:102AE000A801415050408AE092E0B6010E94D31103
:102AF0008823C9F4C80125E0880F991F2A95E1F7BA
:102B00008861F70122813381821793070CF06FC02F
:102B1000A8014F5F5F4F8AE092E0B6010E94D31197
:102B2000882309F464C0F701408151819E0185E04A
:102B3000220F331F8A95E1F7285F3F4FC501840FAD
:102B4000951F821793070CF052C04EC0A114B10418
:102B500009F44DC06E010894C11CD11C8AE092E0BA
:102B6000B601A8010E94D311882371F5C801B5E010
:102B7000880F991FBA95E1F70896F70122813381F2
:102B80002817390754F4A801415050408AE092E0D8
:102B9000B6010E94D3118823B9F4C801A5E0880FBB
:102BA000991FAA95E1F78861F70122813381821785
:102BB0009307ECF4A8014F5F5F4F8AE092E0B60103
:102BC0000E94D311882399F0F701408151819E0121
:102BD000F5E0220F331FFA95E1F72861C501840F54
:102BE000951F281739071CF45901A41AB50A97FE36
:102BF0004EC068010894C108D1088AE092E0BE0185
:102C0000A6010E94D311882379F5CE01E5E0880F53
:102C1000991FEA95E1F70896F7012081318128177D
:102C2000390754F4BE01615070408AE092E0A60179
:102C30000E94D3118823C1F4CE0175E0880F991F3B
:102C40007A95E1F78861F701208131818217930736
:102C50000CF06DC021968AE092E0BE01A6010E94B0
:102C6000D311882309F463C0F70122813381A801BD
:102C700065E0440F551F6A95E1F7485F5F4FC40157
:102C8000820F931F841795070CF051C04DC081141B
:102C9000910409F44CC068010894C11CD11C8AE05D
:102CA00092E0BE01A6010E94D311882369F5CE01EE
:102CB00035E0880F991F3A95E1F70896F7012081D2
:102CC00031812817390754F4BE01615070408AE001
:102CD00092E0A6010E94D3118823B1F4CE0125E031
:102CE000880F991F2A95E1F78861F70120813181CA
:102CF00082179307E4F421968AE092E0BE01A601D0
:102D00000E94D311882399F0F70122813381A80111
:102D100085E0440F551F8A95E1F74861C401820F91
:102D2000931F481759071CF44A01821A930AF701A6
:102D3000808191818A0D9B1D918380838281938103
:102D4000880D991D93838283DF91CF911F910F91FD
:102D5000FF90EF90DF90CF90BF90AF909F908F90BB
:102D60000895CF92DF92EF92FF920F931F93CF932C
:102D7000DF93EC018091380390E0E4E0969587952D
:102D8000EA95E1F7182F11708C81805C0E94F91090
:102D90007C018C810E94F9106C01CE010E94051506
:102DA00080913803282F82FD05C060E070E040E08C
:102DB00050E020C0C70173E0880F991F7A95E1F7B2
:102DC0008E199F09880F892F881F990B66277727EF
:102DD000681B790BC60153E0880F991F5A95E1F7DC
:102DE0008C199D09880F892F881F990B4427552717
:102DF000481B590B20FF1CC0C70133E0880F991FE7
:102E00003A95E1F78E199F09880F892F881F990B32
:102E1000680F791FC601B3E0880F991FBA95E1F7D3
:102E20008C199D09880F892F881F990B480F591FEE
:102E300023FF22C01123E9F0C601F3E0880F991F98
:102E4000FA95E1F78C199D09880F892F881F990B36
:102E5000680F791FC70133E0880F991F3A95E1F792
:102E60008E199F09880F892F881F990B481B590BB2
:102E700003C08C8183508C8321FF22C01123E9F091
:102E8000C601B3E0880F991FBA95E1F78C199D0927
:102E9000880F892F881F990B681B790BC701F3E0F6
:102EA000880F991FFA95E1F78E199F09880F892FCE
:102EB000881F990B480F591F03C08C818D5F8C832D
:102EC000CE010E9437158881998160E270E00E94EE
:102ED0004134FB013897C70163E170E00E9441343F
:102EE000E60FF71F8A819B8160E270E00E94413407
:102EF0009B0128503040C60163E170E00E944134DC
:102F0000260F371F8AE092E0BF01A9010E94EB1350
:102F10008881998160E270E00E9441348B018A814E
:102F20009B8160E270E00E944134EB018AE092E014
:102F3000B801AE010E946F141E141F0424F4B801DE
:102F40006F5F7F4F03C0B801615070408AE092E02C
:102F5000AE010E946F141C141D0414F4219601C0CC
:102F600021978AE092E0B801AE010E946F14DF91D0
:102F7000CF911F910F91FF90EF90DF90CF90089528
:102F8000DC0112962C91129713964C911397842F73
:102F90008E5F13968C931397883069F4ED91FC91B2
:102FA000119731961196FC93EE93E4911296EC935F
:102FB000129713961C9283E090E0042E02C0880FB3
:102FC000991F0A94E2F730E08223932302C095957B
:102FD00087954A95E2F7089508952F923F924F9270
:102FE0005F926F927F928F929F92AF92BF92CF9299
:102FF000DF92EF92FF920F931F93DF93CF93CDB7A2
:10300000DEB72A970FB6F894DEBF0FBECDBF9A8702
:1030100089871B01DC0114968D919C9115977C0189
:103020000027F7FC0095102FED82FE820F83188792
:103030008D919C91481B590BCA01AA2797FDA09519
:10304000BA2F89839A83AB83BC83A985BA851696E8
:103050008D919C9117972C01662457FC6094762CD7
:1030600012968D919C911397281B390B5901CC24F2
:10307000B7FCC094DC2C69817A818B819C81A8018A
:1030800097010E9402347B018C01F7E015950795AA
:10309000F794E794FA95D1F7C601B501A30192011F
:1030A0000E940234E7E09595879577956795EA95B4
:1030B000D1F74701861A970A181419040CF0FEC0BC
:1030C000C601B5012D813E814F8158850E94023491
:1030D0007B018C0157E015950795F794E7945A9575
:1030E000D1F769817A818B819C81A30192010E9431
:1030F000023447E095958795779567954A95D1F77E
:10310000E60EF71E88E490E0FC01EE9EC001EF9E03
:10311000900DFE9E900D1124B4010E9441348B014C
:10312000CB018D5A9F4F873A910508F0C7C080E0C8
:1031300099E0B4010E9441346B016F3F710521F0A9
:103140001CF03FEFC32ED12CE985FA85E05AFF4FE2
:1031500020E030E080819181892B21F4522F2F3F94
:1031600039F506C02F5F3F4F35962A30310591F76C
:10317000A985BA85A15ABF4F5C91852F90E0FC01CB
:10318000EE0FFF1FEE0FFF1FE80FF91FE984FA840F
:10319000EE0DFF1DED59FF4F8081E356F04090E0AA
:1031A0008C159D050CF08AC0EC59FF4F80818C93E3
:1031B000652F70E0DB01AA0FBB1FAA0FBB1FA60F74
:1031C000B71F29853A85A20FB31FAE59BF4F065DC1
:1031D0001F4F0D93CC92139711963C922E92A056AE
:1031E000B04029853A85215A3F4FF90140814F3F30
:1031F00029F45083AC59BF4F4C9360C0842F90E0AA
:10320000FC01EE0FFF1FEE0FFF1FE80FF91FE9840F
:10321000FA84EE0DFF1DED59FF4F808190E0C81636
:10322000D906CCF5AC59BF4F4C93D90132C05C9351
:10323000CB01880F991F880F991F860F971FE9856B
:10324000FA85E80FF91FEC59FF4F408337C0842FF0
:1032500090E0FC01EE0FFF1FEE0FFF1FE80FF91FBC
:10326000E984FA84EE0DFF1DED59FF4F808190E057
:10327000C816D90684F4CB01880F991F880F991FAF
:10328000860F971FE80EF91E87010C591F4FF80192
:1032900040835C9313C0842F90E0DC01AA0FBB1F16
:1032A000AA0FBB1FA80FB91FE984FA84AE0DBF1D7A
:1032B000AC59BF4F4C914F3F51F6B9CF2A960FB63C
:1032C000F894DEBF0FBECDBFCF91DF911F910F915C
:1032D000FF90EF90DF90CF90BF90AF909F908F9036
:1032E0007F906F905F904F903F902F9008952F9216
:1032F0003F924F925F926F927F928F929F92AF9286
:10330000BF92CF92DF92EF92FF920F931F93DF93C2
:10331000CF93CDB7DEB72C970FB6F894DEBF0FBEB4
:10332000CDBF70E0FB01EE0FFF1FEE0FFF1FE60F9A
:10333000F71FE80FF91FED59FF4F2081A22EBB2484
:1033400035017594679428E130E0261937093A87EA
:103350002987A301485E5F4F58874F83229130E051
:1033600026193709D901AA0DBB1DBE83AD83255F80
:103370003F4F1C01220E331E2B5030404301790178
:1033800044249F01225030403C872B876EC034E597
:10339000E316F10408F056C0D1018C9190E08A1533
:1033A0009B050CF04FC0842D992787FD9095880FC1
:1033B000991F880F991FAB85BC85ED91FC91E80F93
:1033C000F91FFA83E9831C82E491EB83CE01019615
:1033D0000E94C017582E630109851A850033110514
:1033E000E0F4B2E05B1691F0E3E05E1621F0F1E06C
:1033F0005F1699F405C0C8018E259F2580FF06C081
:1034000086E393E06E2D402F21E005C086E393E034
:103410006E2D402F20E00E94221121EF3FEFC20EBF
:10342000D31E07C0CE0101960E94C017582ECA0CA9
:10343000DB1CD7FCF7CF0F5F1F4F4F81588540171C
:10344000510764F680EF9FEF880E991EA114B10416
:1034500021F405C043948A0C9B1C97FCFBCF089475
:10346000E11CF11C0894211C311CAD81BE81AE15FC
:10347000BF050CF08CCF2C960FB6F894DEBF0FBEB4
:10348000CDBFCF91DF911F910F91FF90EF90DF9013
:10349000CF90BF90AF909F908F907F906F905F90F4
:1034A0004F903F902F9008952F923F924F925F92AE
:1034B0006F927F929F92AF92BF92CF92DF92EF92E4
:1034C000FF920F931F93DF93CF9300D000D0CDB71F
:1034D000DEB76B013A01E02F8A011595079598E157
:1034E000E92EF12CE01AF10A88E1A82EB12CA00EE9
:1034F000B11EF0E0B4E0EE0FFF1FBA95E1F73327FD
:1035000027FD3095E20FF31FEE0FFF1FEE0FFF1F99
:10351000E755FF4EFA83E9831C82E491EB831E0199
:103520000894211C311CC1010E94C017982E71E023
:10353000472E512C4C205D2036C080E3E816F10464
:1035400020F581E09816D1F0981638F082E09816B0
:1035500079F083E09816C9F406C0C7018C259D2533
:1035600080FF06C00BC0C2018E219F21892B31F044
:1035700086E393E06C2D4E2D20E005C086E393E0BA
:103580006C2D4E2D21E00E9422110F50104006C0DC
:10359000C1010E94C017982E060D171D17FDF8CF08
:1035A0000894E11CF11CEA14FB043CF280E3A81629
:1035B000B1043CF486E393E06C2D4A2D20E00E9498
:1035C00022110F900F900F900F90CF91DF911F91CC
:1035D0000F91FF90EF90DF90CF90BF90AF909F90B2
:1035E0007F906F905F904F903F902F9008952F9213
:1035F0003F924F925F926F927F928F929F92AF9283
:10360000BF92CF92DF92EF92FF920F931F93DF93BF
:10361000CF93CDB7DEB76A970FB6F894DEBF0FBE73
:10362000CDBF9B8B8A8B1B013A013A8F298F1D8B53
:103630000C8BEE8ACF8AA88EDC011496AD90BC90DC
:103640001597CC24B7FCC094DC2CED91FC9111971C
:10365000F98BE88B2E1A3F0A442437FC4094542CF3
:1036600016968D919C9117979C01442737FD4095A4
:10367000542F2C873D874E875F8712964D915C9122
:1036800013975B874A87641A750A882477FC8094AD
:10369000982CC201B101A60195010E9402347B0160
:1036A0008C0187E015950795F794E7948A95D1F7F3
:1036B000C401B3012C853D854E855F850E9402348F
:1036C00017E095958795779567951A95D1F7D70166
:1036D000A61BB70BB987A887C401B301A601950142
:1036E0000E9402347B018C01B7E015950795F79491
:1036F000E794BA95D1F7C201B1012C853D854E857D
:103700005F850E940234A7E0959587957795679528
:10371000AA95D1F7F701E60FF71FFF83EE83298DF6
:103720003A8D48895989241B350B1901442437FCEB
:103730004094542C8C899D89AA85BB858A1B9B0B40
:103740003C01882477FC8094982CC201B101A60129
:1037500095010E9402347B018C01F7E015950795D5
:10376000F794E794FA95D1F7C401B3012C853D8510
:103770004E855F850E940234E7E0959587957795A1
:103780006795EA95D1F7F701E61BF70BFA8FE98FFA
:10379000C401B301A60195010E9402347B018C0192
:1037A00067E015950795F794E7946A95D1F7C201FC
:1037B000B1012C853D854E855F850E94023457E01E
:1037C00095958795779567955A95D1F7F701E60F07
:1037D000F71F298D3A8D1216130624F14885598555
:1037E000141615060CF015C12E813F812E1B3F0BC0
:1037F00081E090E0A98DBA8D8A1B9B0BBA016A1BF0
:103800007B0BAC01249FC001259F900D349F900D30
:1038100011240E944134E60FF71F81E090E09A8F57
:10382000898F26C0A885B9851A161B060CF19F0141
:103830004E815F81241B350B81E090E08A1B9B0B3E
:10384000698D7A8D6A1B7B0BDC012A9FC0012B9F3F
:10385000900D3A9F900D11240E9441342E813F819A
:10386000260F371F3F832E8341E050E0598748875A
:1038700028E430E0E29FC001E39F900DF29F900D9D
:103880001124698D7A8D0E944134FB01BA96AE8174
:10389000BF81A29FC001A39F900DB29F900D1124E4
:1038A000688579850E9441346B0129E230E0C20EBF
:1038B000D31E960144E5C416D10414F023E530E08C
:1038C000CF01F7FF02C080E090E0281739070CF421
:1038D000A0C080E099E0698D7A8D0E9441349B01FF
:1038E00080E099E0688579850E9441347601EE1A7E
:1038F000FF0A1701359427942617370744F4DB0194
:10390000A21BB30BBC83AB8341E050E007C0D901DD
:10391000A61BB70BBC83AB834FEF5FEF5A83498382
:103920005F89888D58172CF4A82EA51A91E09D83E5
:1039300005C0AF88A88DAA1ABFEFBD833B964A8801
:103940005B884E0E5F1E3B9731013A8F298F1F898E
:103950004F01BB24A7FCB09458C0E4E58E16910437
:1039600088F5D2012C91822F90E0E98DFA8D8E1787
:103970009F0744F5222349F08091390390913A033F
:10398000019690933A0380933903298D3A8D2F3F06
:10399000310509F01CF4D2012C9303C02FEFF20182
:1039A0002083AA89BB891A968C911A978F5F1A96E1
:1039B0008C938A899B89B401498D5A8D212F0E8958
:1039C0000E94541AEB81FC812E1A3F0A6A187B0868
:1039D0001E141F045CF013C0298D3A8D49815A8151
:1039E000240F351F3A8F298F2E0C3F1C37FCF4CF44
:1039F00004C05D81150F6E0C7F1C77FCFACF089414
:103A0000811C911C0894411C511CC814D9040CF051
:103A1000A4CF6A960FB6F894DEBF0FBECDBFCF918C
:103A2000DF911F910F91FF90EF90DF90CF90BF90AB
:103A3000AF909F908F907F906F905F904F903F904E
:103A40002F9008956F927F928F929F92AF92CF9214
:103A5000EF92FF920F931F93CF93DF93EC011EE041
:103A6000612E12E0712E88249924BFE0FB2EF40110
:103A7000EE0FFF1FEE0FFF1FE80DF91DEE5EFD4F6D
:103A800080818F73482F50E0403151050CF09BC06E
:103A9000D30112968C911297282F332727FD30954A
:103AA000E0910A02F0910B022E173F070CF48BC035
:103AB00013968C911397082F112707FD109580916D
:103AC0000C0290910D02081719070CF47CC03F9668
:103AD000E217F3070CF477C00F96801791070CF4E8
:103AE00072C08D919C918230910591F575E0220F05
:103AF000331F7A95E1F7205F3F4F88819981F80164
:103B0000319664E0000F111F6A95E1F78217930761
:103B10007CF495E0EE0FFF1F9A95E1F7040F151F57
:103B2000000F111FAF2CA41ACE01B901AF0133C091
:103B3000040F151F000F111FA5E0EE0FFF1FAA9520
:103B4000E1F7CF2CC41ACE01B901A8018F0136C00C
:103B50000197C9F575E0000F111F7A95E1F7005F35
:103B60001F4F8A819B81F901319664E0220F331F38
:103B70006A95E1F70817190794F4B5E0EE0FFF1FF7
:103B8000BA95E1F7240F351F220F331FAF2CA41A6B
:103B9000CE01BF01A801E2E1EE2ECC2412C0240F19
:103BA000351F220F331FA5E0EE0FFF1FAA95E1F787
:103BB000CF2CC41ACE01B901A8019F01E2E1EE2E7B
:103BC000AA240E94F71A0894811C911CE5E0F0E0F9
:103BD0006E0E7F1EF6E08F16910409F048CFDF913C
:103BE000CF911F910F91FF90EF90CF90AF909F904A
:103BF0008F907F906F900895AF92CF92EF92FF9247
:103C00000F931F93E62F65E0440F551F6A95E1F768
:103C1000B5E0220F331FBA95E1F7A5E0000F111FA1
:103C2000AA95E1F7F5E0EE0CFF1CFA95E1F7BA0171
:103C3000A90198018701EE2ECC24EFE0AE2E0E9460
:103C4000F71A1F910F91FF90EF90CF90AF900895CA
:103C5000EF92FF920F931F93DF93CF9300D000D08A
:103C6000CDB7DEB7E0913303F0E076E0EE0FFF1F53
:103C70007A95E1F7E755F34EFA83E9831C82E491E4
:103C8000EB8302E27E010894E11CF11C15C0C70120
:103C90000E94C017882351F020E0813009F421E010
:103CA00086E393E0602F412F0E9422111F5F1033A3
:103CB00071F70F5F023311F010E2E9CF0F900F9010
:103CC0000F900F90CF91DF911F910F91FF90EF9088
:103CD00008955F926F927F928F929F92AF92BF9260
:103CE000CF92DF92EF92FF920F931F93CF93DF93C8
:103CF0004C01EB016A01FC018185992787FD9095B4
:103D0000841B950B26813781A901849F9001859F93
:103D1000300D949F300D11248085992787FD909553
:103D2000AB01481B590B84819581BC01469FC001A2
:103D3000479F900D569F900D1124280F391F121682
:103D400013060CF0DCC1F601EF70F070CE018F703D
:103D5000907014E0EE0FFF1F1A95E1F7E65FFD4F3C
:103D6000E80FF91F62A1662309F4C9C1862F8C539D
:103D70008530C0F470E0B6E0660F771FBA95E1F7C2
:103D8000675D784FA5E0CC0FDD1FAA95E1F760963F
:103D9000F5E0CC0CDD1CFA95E1F780E190E0C80E6F
:103DA000D91E1BC0862F80538C30E8F470E0E6E00B
:103DB000660F771FEA95E1F76759744F55E0CC0F0E
:103DC000DD1F5A95E1F7609645E0CC0CDD1C4A9565
:103DD000E1F7E0E1F0E0CE0EDF1EC401AE01960196
:103DE0000E94ED178CC1862F8A51863098F435E0F9
:103DF000CC0FDD1F3A95E1F7609625E0CC0CDD1C79
:103E00002A95E1F740E150E0C40ED51EC40169E6F1
:103E10007AE1E4CF862F84528C3098F495E0CC0F71
:103E2000DD1F9A95E1F7609685E0CC0CDD1C8A9544
:103E3000E1F760E170E0C60ED71EC40169E676E1E5
:103E4000CDCF562E5A9470E1751508F458C1F4017F
:103E500022813381C60105E0880F991F0A95E1F799
:103E60003E0115E0660C771C1A95E1F740815181FF
:103E7000281739070CF09BC08601015010406416CA
:103E800075060CF04CC08AE092E0BE01A8010E94C9
:103E90001E12882331F08E010F5F1F4FC40163E1B2
:103EA0000DC08AE092E0BE01A8010E94CA118823D9
:103EB00051F48E010F5F1F4FC401652DAE019601B5
:103EC00076010E94FC1D8E010F5F1F4F9801B5E027
:103ED000220F331FBA95E1F7F401808191812817F1
:103EE00039070CF00CC18AE092E0B801A6010E94EB
:103EF0001E12882319F0C40163E10BC08AE092E02E
:103F0000B801A6010E94CA11882309F0F8C0C401B3
:103F1000652DA80196010894C11CD11CEDC08AE052
:103F200092E0BE01A8010E941E12882331F08E018A
:103F30000F5F1F4FC40163E10DC08AE092E0BE0134
:103F4000A8010E94CA11882351F48E010F5F1F4FF0
:103F5000C401652DAE01960176010E94FC1DF4019D
:103F600080819181861597050CF0C9C08E010150A2
:103F700010408AE092E0B801A6010E941E12882338
:103F800031F096012F5F3F4FC40163E10EC08AE01C
:103F900092E0B801A6010E94CA11882309F0AFC0BF
:103FA00096012F5F3F4FC401652DAE01A4C056019D
:103FB0000894A11CB11C641675060CF053C0C50111
:103FC000A5E0880F991FAA95E1F78217930704F5DA
:103FD0008AE092E0BE01A5010E941E12882331F002
:103FE000AE014F5F5F4FC40163E10DC08AE092E014
:103FF000BE01A5010E94CA11882351F4AE014F5F92
:104000005F4FC401652D95018E0175010E94FC1D55
:104010008E010F5F1F4F9801F5E0220F331FFA95B5
:10402000E1F7F40180819181281739070CF067C00E
:104030008AE092E0B801A6010E941E12882319F0BE
:10404000C40163E10BC08AE092E0B801A6010E94BE
:10405000CA11882309F053C0C401652DA801960137
:1040600075014BC0C501E5E0880F991FEA95E1F79E
:104070008217930704F58AE092E0BE01A5010E9431
:104080001E12882331F0AE014F5F5F4FC40163E120
:104090000DC08AE092E0BE01A5010E94CA118823EA
:1040A00051F4AE014F5F5F4FC401652D95018E0144
:1040B00075010E94FC1DF401808191818615970590
:1040C000F4F48E01015010408AE092E0B801A6019C
:1040D0000E941E12882319F0C40163E10AC08AE01D
:1040E00092E0B801A6010E94CA11882341F4C401DC
:1040F000652DAE0195018E0176010E94FC1DDF91B8
:10410000CF911F910F91FF90EF90DF90CF90BF90D4
:10411000AF909F908F907F906F905F9008952F92B7
:104120003F924F925F926F927F928F929F92AF9247
:10413000BF92CF92DF92EF92FF920F931F93CF9394
:10414000DF933C01FC0124813581121613066CF4C7
:10415000C0900A02D0900B0260E1262E312C2C0C6C
:104160003D1C51E0452E512C10C080910A029091C7
:104170000B021C010894210831084FE0C42ED12CF9
:10418000C80ED91E44244A94542CF3014681578109
:1041900057FF0DC0E0900C02F0900D0290E1892EC7
:1041A000912C8E0C9F1C81E0A82EB12C10C0809108
:1041B0000C0290910D024C010894810891080FE0C7
:1041C000E02EF12CE80EF91EAA24AA94BA2C37FF8F
:1041D00003C0309521953F4FCA0157FF03C090950A
:1041E00081959F4F2817390714F086011FC087015A
:1041F0000CC0C301BE01A8010E94691EC40DD51DDB
:10420000C215D305B1F70A0D1B1D0815190599F044
:10421000E601F6CFC301B801AE010E94691ECA0DC6
:10422000DB1DC815D905B1F7040D151D02151305C1
:1042300011F0E701F6CFDF91CF911F910F91FF9021
:10424000EF90DF90CF90BF90AF909F908F907F9036
:104250006F905F904F903F902F9008958CEFE1EC1E
:10426000F3E0DF011D928A95E9F72CEF30E045E598
:104270000DC0408311820296329684359105C9F7AC
:104280002C5A3F4FB1E0283F3B0731F0F901EF5383
:10429000FC4F80E090E0EDCF08951F93CF93DF9324
:1042A000EC01C15ADF4F8FEF8883CF55D040FE011C
:1042B000E05AFF4F80E090E011821082019635961F
:1042C0008A309105C9F780912C0390912D03998331
:1042D000888380912E0390912F039B838A83809102
:1042E00030038195805C0E94F9109D838C838091BE
:1042F000300381950E94F9109F838E8310923A03B8
:104300001092390380912C0390912D0360E270E0AC
:104310000E944134688780912E0390912F0360E2C0
:1043200070E00E9441346987FE0180E090E01386CE
:104330000196319684359105D1F71A86CE010E94F7
:104340002E21CE010E948F20CE010E94221DC15A33
:10435000DF4F1881CF55D04012C0CE01612F0E948F
:104360007719812F90E0FC01EE0FFF1FEE0FFF1F6A
:10437000E80FF91FEC0FFD1FEC59FF4F10811F3F95
:1043800061F7CE010E94281EDF91CF911F91089501
:1043900010928C0310928B0383E791E090938A0331
:1043A0008093890308958BE393E00E94862A8823F3
:1043B00031F086E393E00E9460110E94D7100895C7
:1043C0000F931F930BE313E0C8010E94A72CC801B1
:1043D00069EA7DE10E94A22C10928F031092530390
:1043E000C8016EE10E94BE280E94E4101F910F9147
:1043F0000895882319F48CB5806202C08CB58F7D36
:104400008CBD08959CB5937F982B9CBD08952CB5C9
:10441000382F33702C7F322B3CBD2DB590E0959515
:1044200087959595879581702E7F822B8DBD0895F8
:104430008AE061E00E94A1318AE061E00E943531AA
:104440008CB580618CBD8CB580648CBD8DE061E0E5
:104450000E9435318BE061E00E9435310895FC0106
:1044600081E08083089585E070E00E94D530089552
:104470006F927F928F929F92AF92BF92CF92DF9274
:10448000EF92FF920F931F93CF93DF93EC018981FB
:104490009A818C0124E0000F111F2A95E1F7081B77
:1044A000190B85E10E94B330BC01600F711F84E0DD
:1044B000769567958A95E1F77A8369838881882361
:1044C00081F12E813F816217730710F4B90106C094
:1044D000888599858617970708F4BC0100D000D01D
:1044E00080E090E040E050E0E884F98400E010E0F3
:1044F000AD80BB24CC24DD246C80772488249924CF
:10450000EDB7FEB761827282838294820E949C32F0
:104510006B830F900F900F900F9085E070E00E94DA
:10452000D530DF91CF911F910F91FF90EF90DF90E9
:10453000CF90BF90AF909F908F907F906F90089595
:10454000FC018CE39FE09383828384E0818381E09C
:1045500084870895CF93DF93EC018C8590E08F7171
:104560009070892B69F584E10E94B330AA2797FDEA
:10457000A095BA2FBC01CD010E94133326EE3FE374
:104580004EEC50E40E949F330E94E5329B01AC0147
:104590007B836A836115710589F084E08983B901A1
:1045A000FE0120E0848195816817790710F4298342
:1045B0000AC02F5F32962430A9F702C08FEF89839B
:1045C0008C858F5F8C87DF91CF910895FC0188E007
:1045D000808389E0818387E0828386E0838384E02F
:1045E000848382E0858381E18683089520E0FC0155
:1045F000E60FF11D8781813009F421E0822F0895B3
:104600000F931F93CF93DF93EC0110E00FEF88819E
:1046100062E00E94353188810E94D4312F81892B3C
:1046200019F42F5F2F8307C0222349F02F3F11F485
:104630001F8201C00F83888160E00E9435311F5FB7
:104640002196173021F7DF91CF911F910F91089597
:10465000FC01678F60A30895FC01678F40A3089554
:10466000FC016435A8F547FD33C040338CF5878DD8
:10467000942F959595959595772767FD709547703B
:10468000882399F0E4E59E02F0011124E60FF71F5C
:10469000EF53FC4F81E090E002C0880F991F4A95CC
:1046A000E2F72081282B20830895E4E59E02F001A3
:1046B0001124E60FF71FEF53FC4F81E090E002C09A
:1046C000880F991F4A95E2F780952081282320833F
:1046D0000895AF92BF92CF92DF92EF92FF920F9325
:1046E0001F93CF93DF93EC01162FF42EE22EAA2412
:1046F000402F552747FD50958F2D992787FD909581
:10470000481B590B57FF03C0509541955F4F2E2D05
:10471000332727FD3095812F992787FD9095281BFA
:10472000390B37FF03C0309521953F4F24173507CC
:1047300044F4AA24A3948F2DF12E182F802F0E2D30
:10474000E82EE11634F48E2DE12E182F802F0F2D38
:10475000F82EDE2CD11A202F332727FD30958F2DF0
:10476000992787FD9095281B390B37FF03C030959B
:1047700021953F4FB22EF0161CF0CC24CA9402C0F3
:10478000CC24C3948D2DD7FC8F5F082F059511C0C5
:10479000AA2021F0CE016F2D412F03C0CE01612F41
:1047A0004F2D0E9430230B1907FF02C0FC0C0D0D8A
:1047B0001F5FE1166CF7DF91CF911F910F91FF9072
:1047C000EF90DF90CF90BF90AF9008950F93042F9C
:1047D000322F262F2150230F0E9469230F91089515
:1047E0000F93362F042F0150020F232F0E946923AD
:1047F0000F9108959F92AF92BF92CF92DF92EF9266
:10480000FF920F931F93CF93DF936C01B62E942EDC
:10481000A02EC0E0D0E0E62EFF24E7FCF094022FAB
:10482000112707FD10950E0D1F1D06C0C601492D4D
:104830002A2D0E94F02321966B2D6C0FCE018E0D38
:104840009F1D8017910794F3DF91CF911F910F91D6
:10485000FF90EF90DF90CF90BF90AF909F90089522
:104860002F923F925F926F927F928F929F92AF9220
:10487000BF92CF92DF92EF92FF920F931F93DF933D
:10488000CF9300D000D000D0CDB7DEB79E838D830C
:10489000C62ED42EEE24E394E21A8EEF289F502CDD
:1048A0001124842E8A94962E9A94A42EA394B62E24
:1048B000B394F22E662423E0722E10E0C8018470B7
:1048C00090709A838983F801E270F070FC83EB8327
:1048D00098E0292E312C202231220170107054C012
:1048E000E7FC04C0FA94F2E05F0EE50C6394898162
:1048F0009A81892B71F04F2D4D0D8D819E816B2DED
:104900000E9430236F2D6C0D8D819E814A2D0E9457
:104910003023EB81FC81EF2B71F04D2D4F198D81F0
:104920009E816B2D0E9430236F2D6C0D8D819E8199
:10493000482D0E9430232114310471F06C2D6F1921
:104940008D819E814A2D0E9430234F2D4D0D8D81EA
:104950009E81692D0E9430230115110571F06C2D87
:104960006F198D819E81482D0E9430234D2D4F1946
:104970008D819E81692D0E943023E70CF2E07F0E2D
:104980008A949A94A394B3946F140CF4A9CF2696A6
:104990000FB6F894DEBF0FBECDBFCF91DF911F9150
:1049A0000F91FF90EF90DF90CF90BF90AF909F90CE
:1049B0008F907F906F905F903F902F9008954F92CF
:1049C0005F926F927F928F929F92AF92BF92CF929F
:1049D000DF92EF92FF920F931F93CF93DF93EC013F
:1049E000A62E742E9E2DFF24F394F21A8EEF289F8C
:1049F000802C1124B42EBA9453E0C52ECE0CE22E96
:104A0000DD2443E0942E10E031E0432E512C40226F
:104A10005122692E63940270107034C0F7FC04C0F8
:104A2000EA9482E0880EF80CD3944114510489F082
:104A30006D2D6A0D472D4E192E2D220F260DCE01FC
:104A40000E94F0236E2D6A0DCE014B2D2C2D0E945D
:104A5000F0230115110589F06A2D6D19472D4E19A6
:104A60002E2D220F260DCE010E94F0236A2D6E19E5
:104A7000CE014B2D2C2D0E94F023F90C82E0980ED4
:104A8000BA94C80EDE1454F2DF91CF911F910F91AA
:104A9000FF90EF90DF90CF90BF90AF909F908F905E
:104AA0007F906F905F904F9008957F928F929F922A
:104AB000AF92BF92CF92DF92EF92FF920F931F932C
:104AC0006C01962EA42EF22E7E2C760E1EEFE19E09
:104AD000102D1124812E820E672D282D0E94E62391
:104AE000B02EBA0CBA94C601672D4B2D282D0E940A
:104AF000E623AE0C100FC601692D4A2D212F0E940E
:104B0000F023F90CFA94C6016F2D4A2D212F0E9433
:104B1000F023C601672D4A2D2E2D01E00E9430247E
:104B2000FE18C6016F2D4A2D2E2D02E00E94302462
:104B3000BE18C6016F2D4B2D2E2D04E00E9430248F
:104B4000C601672D4B2D2E2D08E00E9430241F91A9
:104B50000F91FF90EF90DF90CF90BF90AF909F901C
:104B60008F907F9008958F929F92AF92BF92CF9235
:104B7000DF92EF92FF920F931F936C01162FA42EDA
:104B8000922EF02EBE2C8E2C860E2EEFE29EE02C66
:104B900011242E2D290D682D0E94FA23AB0CFA94B6
:104BA000FE0C1150190D1B19C601612F4A2D2B2D1A
:104BB00001E0EF2C0E94DF24C601682D4A2D2B2D29
:104BC00002E00E94DF241F910F91FF90EF90DF9091
:104BD000CF90BF90AF909F908F9008953F924F924B
:104BE0005F926F927F928F929F92AF92BF92CF927D
:104BF000DF92EF92FF920F931F93CF93DF934C01BD
:104C0000362E442EF901A490319654906F010894E9
:104C1000C11CD11C8A2D992787FD9095079668E0C5
:104C200070E00E944134E62EFF24E7FCF09400E09F
:104C3000C0E0D0E060E8662E712C26C0E12FE5953B
:104C4000E595E595FF27E7FDF095EC0FFD1FEC0DD1
:104C5000FD1DE4912E2F30E0812F8770A30102C04B
:104C6000559547958A95E2F724233523232B31F078
:104C7000612F630DC4014B2D0E9430231F5F1A1555
:104C8000ECF20F5FCE0DDF1D051524F410E0B02E01
:104C9000B40CF5CFDF91CF911F910F91FF90EF9062
:104CA000DF90CF90BF90AF909F908F907F906F904C
:104CB0005F904F903F900895DC01FB0184918F5FDE
:104CC00014968C931497319684918F5F15968C93DC
:104CD000159731965E96FC93EE935D9708953F92FB
:104CE0004F925F926F927F928F929F92AF92BF92FC
:104CF000CF92DF92EF92FF920F931F93CF93DF93A8
:104D0000EC01862EA42E422F102F3F8C23E5261770
:104D10000CF4ABC03FE23A150CF4A7C0C02EDD2462
:104D20008C8190E001979C01C29EC001C39E900DB2
:104D3000D29E900D1124262F332727FD3095820F08
:104D4000931F181619060CF090C08D8190E09C01FD
:104D5000C29EC001C39E900DD29E900D11242A2D9B
:104D6000332727FD3095820F931F181619060CF074
:104D70007CC09924442E55246DC09C0121503040A4
:104D80004217530711F460E00EC0429EC001439EDB
:104D9000900D529E900D1124840F951FED8DFE8D68
:104DA000E80FF91F64914C9DC0014D9D900D5C9DD5
:104DB000900D1124682C680EBB24792C780C3FC010
:104DC000E62EFF2460FF19C0113039F44B2D4A0D37
:104DD000CE01672D0E9430232EC02C9DC0012D9D39
:104DE000900D3C9D900D11244A2D480FCE01662D4B
:104DF000212F012F0E94FA231EC098A18F8D981792
:104E0000D1F09F8F113039F44B2D4A0DCE01672D13
:104E10000E9430230FC02C9DC0012D9D900D3C9D04
:104E2000900D11244A2D480FCE01662D212F012F00
:104E30000E94FA233F8EF594E7946E2DB3942B2DA8
:104E4000332727FD30958D8190E0281739070CF422
:104E5000B7CF9394492D552747FD50958C8190E00D
:104E6000481759070CF489CF3F8EDF91CF911F91DE
:104E70000F91FF90EF90DF90CF90BF90AF909F90F9
:104E80008F907F906F905F904F903F9008950F9319
:104E9000CF93DF93EC01262F6A3049F48D819885FA
:104EA000899F802D11249A85980F9A8726C06D308E
:104EB00029F169854A8508850E946F269C8168854D
:104EC000969F402D11248985480F49878F8188231B
:104ED000A9F0552747FD5095699F9001112484E55D
:104EE00090E0821B930B8417950744F49D81699F82
:104EF000902D11248A85890F8A87198681E090E098
:104F0000DF91CF910F9108951F93CF93DF93EC0121
:104F1000162FF8948E8560E00E94A1318F851816B7
:104F20001CF460E00E94A1311EBD0DB407FEFDCF50
:104F30008EB58F8518161CF461E00E94A13178941B
:104F4000DF91CF911F910895FF920F931F93CF93FD
:104F5000DF93EC01FF2400E010E06F2D6064CE01D0
:104F60000E948427CE0160E80E9484278E8561E03C
:104F70000E94A1318F8518161CF460E00E94A131B7
:104F8000F801EF53FC4F90E080818EBD0DB407FE19
:104F9000FDCF8EB59F5F31969435B1F78F8518168A
:104FA0001CF461E00E94A131F3940C5A1F4F86E07B
:104FB000F81699F6CE0160E40E948427DF91CF9124
:104FC0001F910F91FF900895CF93DF93DC0188EF3D
:104FD00091E0E1ECF3E0EF019C01199221503040A7
:104FE000E1F719961C9219971A961C92DF91CF91AE
:104FF0000895EF920F93CF93DF93EC014D876C8769
:105000002E87E88A0F8781E088878F8F18A28F8389
:10501000CE0162ED7DE10E945C260E94182281E0B3
:105020000E94F92185E00E9407228CE00E94022262
:105030008D8561E00E9435318C8561E00E943531BB
:105040008E8561E00E943531888918161CF461E074
:105050000E9435318F8518161CF461E00E943531AD
:10506000888918166CF460E00E94A1316AE070E053
:1050700080E090E00E945230888961E00E94A13176
:10508000EC852E2F332727FD3095F901E450FF4D95
:10509000E491F0E0EE0FFF1FE851FF4D85919491F0
:1050A0009C8B8B8B205F3E4DF90184918A8FED851F
:1050B0002E2F332727FD3095F901E450FF4DE49161
:1050C000F0E0EE0FFF1FE851FF4D859194919A8B10
:1050D000898B205F3E4DF9018491898FEF852E2FBA
:1050E000332727FD3095F901E450FF4DE491F0E0BE
:1050F000EE0FFF1FE851FF4D859194919E8B8D8B94
:10510000205F3E4DF90184918B8FEE852E2F332742
:1051100027FD3095F901E450FF4DE491F0E0EE0FEA
:10512000FF1FE851FF4D85919491988F8F8B205FE1
:105130003E4DF90184918C8FCE0161E20E9484275B
:10514000CE0164E10E9484278B8587FF02C08FE730
:105150008B876B856068CE010E948427CE0160E258
:105160000E948427CE016CE00E948427CE010E9419
:10517000A427DF91CF910F91EF900895FC01262F86
:10518000E258FF4F88EE93E070E00E944134608364
:10519000EE57F040822F64E10E94213481A70895E8
:1051A000CF93DF93DC01E0E8FFE685919491ED0178
:1051B000C75ADF4FAD0141595F4F8150904C09F004
:1051C0004EC0E6E9FFE6E491E883E7E9FFE6E49113
:1051D0001496EC931497E8E9FFE6E4911596EC93A6
:1051E0001597E9E9FFE68591949117969C938E9324
:1051F0001697EBE9FFE68591949119969C938E930F
:105200001897EDE9FFE6E4919B96EC939B97EEE906
:10521000FFE6E4919A96EC939A97EFE9FFE6E49122
:10522000EA01E883E0EAFFE6859194915D969C931C
:105230008E935C97E2EAFFE6859194915F969C934A
:105240008E935E97E4EAFFE68591949191969C9304
:105250008E939097E6EAFFE68591949132C08CE3B5
:10526000888314961C9214972FEF15962C931597FC
:1052700080E293E017969C938E93169784ED93E0CB
:1052800019969C938E93189781E09B968C939B978D
:105290009A968C939A97FA0120838CEA9DE05D960A
:1052A0009C938E935C978EED9DE05F969C938E937E
:1052B0005E9784E79EE091969C938E9390978CE303
:1052C0009FE093969C938E939297DF91CF91089550
:1052D000EF92FF920F931F93CF93DF937C018C018A
:1052E000025B1F4FC8010E94E427C80169E77FE104
:1052F0000E943D32C8010E94A42783E00E94072239
:1053000080E091E0EEEFFFE3099584E590E0E80EA0
:10531000F91EF7011082C80164E57FE10E9488321E
:10532000C8010E94A427E701CA54D040CE010E94C0
:105330000023CE0164E00E94F622882339F462E360
:1053400070E080E090E00E945230F0CFDF91CF918A
:105350001F910F91FF90EF9008950F931F93CF939C
:10536000DF93EC018C01025B1F4FC80161E040E05C
:105370000E942C23FE01E95AFF4FCE5ADF4F85E5EC
:105380009881891B808326961882C855D040698DE4
:10539000613081F1613028F0888D653008F043C0BC
:1053A0003DC0CE0185960E94782DCE0160E00E941E
:1053B0003322C8010E94E427CA5ADF4F81E0888364
:1053C000C80161EA7FE10E943D32C8010E94A42722
:1053D00083B7817F846083BF83B7816083BF83B7D6
:1053E000816083BF889583B78E7F83BF83B78E7FAD
:1053F00083BF1FC0C059DF4F88819981AA81BB81BB
:105400008F709070A070B0700897A105B10518F466
:10541000C80167E00CC0C80168E709C0882349F0EB
:105420006B5FC80104C0882321F0C8016FE20E94AD
:105430006032DF91CF911F910F910895AF92BF928B
:10544000CF92DF92EF92FF920F931F93CF93DF9350
:10545000EC01CB57DF4F8881C558D040882309F431
:105460004AC08C3010F010E002C01CE0181BCA5A71
:10547000DF4F81E08883C655D0406EE4C62ED12C24
:10548000CC0EDD1EC60160E00E94282353E5A52E48
:10549000B12CAC0EBD1EF50100814DE2F42E4F2D56
:1054A000401B410F0D5FC60160E024E533E0E32EB1
:1054B0000E94B325C60161E00E942823F501008106
:1054C000F01AF10E0D5FC60160E04F2D24E50E9439
:1054D0005525C95ADF4F84E08993F5018081181B57
:1054E000115D1883AB9669917991C6010E943D3296
:1054F000888181508883DF91CF911F910F91FF9018
:10550000EF90DF90CF90BF90AF900895AF92BF9291
:10551000CF92DF92EF92FF920F931F93CF93DF937F
:10552000EC01EFE7AE2EB12CA80EB91EF501E0801C
:10553000F180028113810E941E30E61AF70A080BDF
:10554000190B7EE7C72ED12CCC0EDD1EF601808113
:1055500090E0A0E0B0E08E159F05A007B10708F02D
:1055600081C08E0106581F4FF80180819181A28170
:10557000B3810097A105B10509F474C00E941E30E3
:10558000F6012081620F711D811D911DF50160835F
:10559000718382839383FE01E059FF4F8081918163
:1055A000A281B3810196A11DB11D80839183A28345
:1055B000B383F80110821182128213820E942C3070
:1055C000CA58DF4F688379838A839B83C657D0404C
:1055D000CE010E943822CE010A960E940023CE01FD
:1055E00048960E94AA2281E032C08E010B5D1F4FB7
:1055F000C8010E94C62DC8010E94432EC8010E9406
:10560000262FCE010E941E2ACE010E94AD298E01B6
:10561000025B1F4FC8010E94A427CC5ADF4F88812C
:10562000C455D040882319F4C8010E94E4270E9481
:105630002C30C658DF4F688379838A839B832497F5
:1056400028813981621B730B7A936A9380E0DF9122
:10565000CF911F910F91FF90EF90DF90CF90BF906F
:10566000AF900895C658DF4F88819981AA81BB8188
:10567000CA57D0400097A105B10541F7B6CF2F9288
:105680003F924F925F926F927F928F929F92AF92D2
:10569000BF92CF92DF92EF92FF920F931F93DF930F
:1056A000CF93CDB7DEB72B970FB6F894DEBF0FBE02
:1056B000CDBF9B878A877A8369835C834B838C0108
:1056C00001591F4FF8018081882309F422C18A857E
:1056D0009B858A5A9F4F9B878A8781E0EA85FB8555
:1056E000808312921292E455F040FB87EA87108E75
:1056F0009EE4E92EF12CEE0EFF1EC70161E00E9430
:1057000028238AE0282E312C8A859B85280E391E75
:10571000B5E26B2E712C680E791EE981FA81F49145
:10572000FD83A7E58A2E912C880E991EF8E5CF2ED1
:10573000D12CC80ED91EE2E54E2E512C480E591E12
:105740008D5A9F4F9F838E8370E7A72EB12C8A8539
:105750009B85A80EB91E198708878A859B850E949C
:10576000862A8823D1F39D81992311F410E003C088
:10577000EE81FF811081C70160E040E02DEE3FE146
:105780000E94EE258B819C81892B41F0145FC7011B
:1057900060E0412F2B813C810E94EE25F4011082B4
:1057A0008CE0F6018083C70169817A810E943D32D5
:1057B000F201208130E0C901880F991F820F931FE9
:1057C000909581959F4F8D5AF4018083EE81FF81E2
:1057D000208130E0C901880F991F820F931F909597
:1057E00081959F4F835DF6018083F501808184FF61
:1057F00004C0C7016DE670E203C0C70169E670E24C
:105800000E948832F201208130E0C901880F991F7F
:10581000820F931F909581959F4F8D5AF40180833D
:10582000F60180818F5F8083EA85FB8582A58823CE
:1058300021F0C70165E670E203C0C70161E670E2CE
:105840000E948832F201808190E09C01220F331F78
:10585000280F391F309521953F4F2D5AF401208391
:10586000F60180818F5F8083C7016DE570E20E9441
:105870008832C10165E00E94F622882351F0EA8552
:10588000FB8562A56F5FC3010E948F2FC3010E9439
:10589000892FC10164E00E94F622882399F4E885EB
:1058A000F9856081262F30E040E050E0F5018081ED
:1058B0009181A281B38182179307A407B50708F1EC
:1058C0006F3FF9F08A859B8581599F4F9B878A8717
:1058D0008FEFEA85FB858083EF56F040FB87EA87F0
:1058E000C30160E00E946D2DC3010E94832F81E0FF
:1058F000EA85FB85808F0DC08A859B850E9468297B
:105900002CCFC10166E00E94F622882309F425CF3E
:10591000F3CF2B960FB6F894DEBF0FBECDBFCF915D
:10592000DF911F910F91FF90EF90DF90CF90BF908C
:10593000AF909F908F907F906F905F904F903F902F
:105940002F90089540E050E00E943F2B0895AF92C1
:10595000BF92CF92DF92EF920F93CF93DF936C01C0
:105960008EE790E0C80ED91E82E3F601808381E0C5
:1059700090E0A0E0B0E0B293A293929382936F0183
:1059800085EF9FEFC80ED91E8FEFF601808381E966
:105990009FEFC80ED91EC6010E94D028C6010E94E2
:1059A0002F22C6016FEF0E9433224AE0A42EB12CB1
:1059B000AC0CBD1CC5010E94E622C5010E9400235B
:1059C000C60148960E94A022C601825B9F4F6DE0EF
:1059D0004BE020E10FE03EE0E32E0E94F927E601D4
:1059E000A596CE010E949C2FC50165E00E94F6227B
:1059F000882329F0CE0160E00E948F2F06C0CE01DF
:105A000063E770E240E00E947C2DDF91CF910F911F
:105A1000EF90DF90CF90BF90AF9008950F93DC018F
:105A2000002309F047C06230A1F1633030F46623EF
:105A300051F0613009F03EC009C0633081F164303B
:105A400009F038C032C056964C9334C0842F90E091
:105A5000880F991F1F962D913C915097280F391F41
:105A6000F9018591949190969C938E935F97FC0198
:105A700045915491642F91964C939197252F3327FC
:105A8000842F90E02817390708F4652F92966C93BD
:105A900011C059964C9359975A962C930BC05B960C
:105AA0004C935B975C962C9305C05D964C935D97E9
:105AB0005E962C930F910895FC01662369F4178A72
:105AC000158A14A213A2108E1092BD051092BC0567
:105AD0001092BA051092B4000895CF93DF93EC01B1
