:100000000C947E0E0C94A60E0C94A60E0C94A60EC8
:100010000C94A60E0C94A60E0C94A60E0C94A60E90
:100020000C94A60E0C94A60E0C94A60E0C94952B74
:100030000C94A60E0C94A60E0C94A60E0C94A60E70
:100040000C940C2C0C94A60E0C94A60E0C94A60EDC
:100050000C94A60E0C94A60E0C94A60E0C94A60E50
:100060000C94A60E0C94A60E000306090D10131690
:10007000191C1F2225282B2E3134373A3C3F42448D
:10008000474A4C4F515456585B5D5F6163656769E1
:100090006A6C6E6F717274757677797A7A7B7C7D13
:1000A0007E7E7F7F7F8080808001010101010101D0
:1000B0000101010101010101010101010101010130
:1000C0000101010101010101010101010101010120
:1000D0000101010101010101010101010101010110
:1000E0000101010101010101010101010101010100
:1000F00001010101010101010101010101010101F0
:1001000001010101010101010101010101010101DF
:1001100001010101010101010101010101010101CF
:1001200001010101010101010101010101010101BF
:1001300001010101010101010101010101010101AF
:10014000010101010101010101010101010101019F
:10015000010101010101010101010101010101018F
:10016000010101010101010101010101010101017F
:10017000010101010101010101010101010101016F
:10018000010101010101010101010101010101015F
:10019000010101010101010101010101010101014F
:1001A000010101010101010101010101010101013F
:1001B000010101010101010101010101010101012F
:1001C000010101010101010101010101010101011F
:1001D000010101010101010101010101010101010F
:1001E00001010101010101010101010101010101FF
:1001F00001010101010101010101010101010101EF
:1002000001010101010101010101010101010101DE
:1002100001010101010101010101010101010101CE
:1002200001010101010101010101010101010101BE
:1002300001010101010101010101010101010101AE
:1002400001010101010C0C0C0C0C0C0C0C0C0C0C25
:100250000C0C0C0C01010101010101010101010162
:10026000010101010101010101010101010101017E
:10027000010101010101010101010101010101016E
:1002800001010101010C0C0C0A0C0C0C0C0C0A0CE9
:100290000C0C0C0C01010101010101010101010122
:1002A000010101010101010101010101010101013E
:1002B000010101010101010101010101010101012E
:1002C00001010101010C000000000000000000001D
:1002D000000C0C0C0C0C0C010101010101010101CD
:1002E00001010101010101010101010101010100FF
:1002F00000000001010101010101010102020102EE
:1003000002030102010A00000000000000000000DA
:10031000000A0C0C0C0C0C0101010101010101018E
:1003200001010101010101010101010101010100BE
:1003300000000001010101010101020000000000B4
:1003400000000000000C00000000000000000000A1
:10035000000C0000000C0C01010101010101010170
:10036000010101010101010101010101010101007E
:100370000000000001010101010101000000000076
:1003800000000000005A0000000000000000000013
:10039000005A006A000A0C0101010101010101017A
:1003A000010101010101010101010101010101003E
:1003B0000000000001010101010102000000000035
:1003C00000000000000C0000000000000000000021
:1003D000000C0000000C0C010101010101010101F0
:1003E00001010101010101010101010101010102FC
:1003F00006010204020106010101010000000101E1
:1004000001030101020B00000000000000000000D9
:10041000000B0C0C0C0C0C0101010101010101018C
:1004200001010101010101010101010101010200BC
:1004300000000000000000000201010000000101B6
:1004400001010101010C000000000000000000009B
:10045000000C0C0C0C0C0C0101010101010101014B
:10046000010101010101010101010101010103007B
:100470000000000000000000030102000000010273
:1004800001010101010C0C0C0A0C0C5B0C0C0A0C98
:100490000C0C0C010101010101010101010101012B
:1004A000010101010101010101010101010101003D
:1004B000000000000000000002000000000000003A
:1004C00001010101010C0C0C0C0C0000000C0C0CC7
:1004D0000C0C0C01010101010101010101010101EB
:1004E00001010101010101010101010101010200FC
:1004F00000000000000000005A00000000000000A2
:10050000010101010101010C0C0C0000000C0C0C9C
:100510000C0C0C01010101010101010101010101AA
:1005200001010101010101010102020202010100B8
:1005300000000000000000000100000000000000BA
:10054000010101010101010C0C0B0000000B0C0169
:10055000010101010101010101010101010101018B
:100560000101010101010101010102010201030078
:10057000000000000000000003010201060102016A
:10058000010201010101010C0C0C0000000C0C0126
:10059000010101010101010101010101010101014B
:1005A000010101010101010101020000000101003E
:1005B0000000000000000000010101010101010133
:1005C0000101010C0C0C0C0C0C0C0000000C0C0CB0
:1005D0000C01010101010101010101010101010100
:1005E00001010101010101010101000000020102FC
:1005F0000601015B01010602010101010101010186
:100600000101010C0C0C0C0C0C0C0000000C0C0C6F
:100610000C010101010101010101010101010101BF
:1006200001010101010101010101000000010101BD
:1006300001010000000201010101010101010101AC
:100640000101010C0C00000A6A0000000000000C0F
:100650000C0101010101010101010101010101017F
:1006600001010101010101010102015B010101011F
:100670000103000000030101010101010101010169
:100680000101010C0C00000C0C0C0000000C0C0C07
:100690000C0101010101010101010101010101013F
:1006A000010101010101010101010000000101023C
:1006B000010100000002010101010101010101012C
:1006C0000101010C0C00000C0C0C0000000C0C0CC7
:1006D0000C010101010101010101010101010101FF
:1006E00001010101010101010101000000020000FE
:1006F00000010000000101010101010101010101EE
:100700000101010C0C00000C0C0C0000000C0C0C86
:100710000C010101010101010101010101010101BE
:1007200001010101010101010101000000000000BF
:1007300000030000000301010101010101010101A9
:100740000101010C0C0C0C0C0C0A0000000A0C013D
:100750000101010101010101010101010101010189
:10076000010101010101010101010000000100007E
:10077000000200000001010101010101010101016C
:100780000101010C0C0C0C0C0C0C0000000C0C01F9
:100790000101010101010101010101010109090931
:1007A00009090909090909090902000000010201F2
:1007B0000201015B010102010101010101010101CD
:1007C0000101010101010101010C0A5B0A0C020295
:1007D00002020202020101010101010101090808EE
:1007E00009080808090909080903000000030100B5
:1007F00000000000000000000101010101010101F1
:1008000001010102010201030200000000000103D6
:1008100001020101020101010101010101090800B8
:1008200000000000000000080902000000010200B2
:1008300000000000000000000301010101010101AE
:1008400001010101000000000000000000000000A4
:10085000000000020209090909090909090908003B
:100860000000000000000009090100000001020072
:100870000000000000000000010101010101010170
:10088000010101060000000000000000000000005F
:1008900000000006090808080908080809090800F6
:1008A0000000000000000008090100000000010035
:1008B000000000000000000002010101010101012F
:1008C0000101010100000000000000000000000024
:1008D0000000000009000000000000000000080007
:1008E00000000000000000090901000000005A009B
:1008F00000000000000000000301010101010101EE
:1009000001010102000000000000000000000000E2
:10091000000000005A0000000000000000005A0023
:1009200000000000000000050901000000000100B7
:1009300000000000000000000101010101010101AF
:1009400001010102000000000000000000000000A2
:100950000000000008000000000000000000090086
:100960000000000000000009090100000001010072
:10097000000000000000000002020101010101016D
:10098000010101060000000000000000000000005E
:100990000000000608080800000000090908080017
:1009A0000000000000000008090200000001010032
:1009B000000000000000000003010101010101012D
:1009C0000101010200000000000000000000000022
:1009D00000000002020208080000080808080900D8
:1009E00000000000000000090901000000010100F2
:1009F00000000000000000000101010101010101EF
:100A000001010101010401020100000000000102D6
:100A10000401020102010809000009080809080090
:100A200000000000000000080904000000040102AA
:100A30000101025B01010202010101010101010149
:100A400001010101010101010108085B0908080217
:100A50000202020202010809000008080909090946
:100A60000800090800090809090100000002010145
:100A70000101000000010101010101010101010169
:100A8000010101010101010108080000000908013C
:100A9000010101010101080800000908090909080C
:100AA00009090909090909090901000000010101F1
:100AB0000102000000020101010101010101010127
:100AC00001010101010101010809000000090801FB
:100AD00001010101010108090000080809090909CB
:100AE00009090909090909090902000000010000B2
:100AF00000010000000101010101010101010101EA
:100B000001010101010101010808000000090801BB
:100B1000010101010101080800000908080808088E
:100B2000080808080808080101010000000000008A
:100B300000030000000301010101010101010101A5
:100B4000010101010101010108090000000808017B
:100B5000010101010101080900000808090008005D
:100B60000900090008090801010200000002000054
:100B70000002000000020101010101010101010167
:100B8000010101010101010108090000000908013A
:100B90000101010101010808000000080000000037
:100BA000000000000008080101020000000101022D
:100BB0000101000000020101010102010101010126
:100BC00001010101010101010808000000080801FC
:100BD00001010101010108080000005A00000000A5
:100BE00000000000000508010101000000020102F0
:100BF00001020000000102010202030102010602DB
:100C000001020101010101010809000000080901B8
:100C100001010101010108090000000800000000B5
:100C200000000000000808010102000000000000B0
:100C300000000000000000000000020000000000B2
:100C40000003150101010101080800000009080165
:100C5000010101010101080809080808090008004C
:100C60000800080008090801010200000000000057
:100C7000000000000000000000005A00000000001A
:100C800000640015010101010809000000090801C4
:100C900001010101010108080808080808080808FE
:100CA0000808080808080801010100000000000009
:100CB0000000000000000000000001000000000033
:100CC0006A0315010101010108090000000808017B
:100CD0000101010101010101010101010101010104
:100CE00001010101010101010101020201020201F0
:100CF00002020104010101020101010102010601D8
:100D0000020101020108080808080000000908089B
:100D100008080808010101010101010101010101A7
:100D200001010101010101010101010101010101B3
:100D30000101011503000001000001000001010193
:100D400001010101080809080908085B08080808EA
:100D50000809080801010101010101010101010166
:100D60000101010101010101010101010101010173
:100D700001011500640000010000010002010101F1
:100D8000010101080900000000080000000800003F
:100D90000000090801010101010101010101010136
:100DA0000101010101010101010101010101010133
:100DB0000101011503000000000001010101010112
:100DC0000101010808000000005A0000005A00005C
:100DD00000000908010101010101010101010101F6
:100DE00001010101010101010101010101010101F3
:100DF00001010101010101010101010101010101E3
:100E000001010108080000000008000000080000BF
:100E100000000908010101010101010101010101B5
:100E200001010101010101010101010101010101B2
:100E300001010101010100000101010101010101A4
:100E4000010101080900000000090000000900007C
:100E50000000090801010101010101010101010175
:100E60000101010101010101010101010101010172
:100E70000101010101010000010101010101010164
:100E8000010101080808090808090000000808080D
:100E90000808080801010101010101010101010126
:100EA0000101010101010101010101010101010132
:100EB0000101010101010101010101010101010122
:100EC00001010108080000000008000000080000FF
:100ED00000000808010101010101010101010101F6
:100EE00001010101010101010101010101010101F2
:100EF00001010101010101010101010101010101E2
:100F00000101010809000000005A0000005A000019
:100F100000000908010101010101010101010101B4
:100F200001010101010101010101010101010101B1
:100F300001010101010101010101010101010101A1
:100F4000010101080800000000080000000800007E
:100F50000000080801010101010101010101010175
:100F60000101010101010101010101010101010171
:100F70000101010101010101010101010101010161
:100F8000010101080809090808090000000908080A
:100F90000908080801010101010101010101010124
:100FA0000101010101010101010101010101010131
:100FB0000101010101010101010101010101010121
:100FC000010101080800000000000000000000000E
:100FD00000000808010101010101010101010101F5
:100FE00001010101010101010101010101010101F1
:100FF00001010101010101010101010101010101E1
:1010000001010108090000000000000000000000CC
:1010100000000808010101010101010101010101B4
:1010200001010101010101010101010101010101B0
:1010300001010101010101010101010101010101A0
:10104000010101080800000000000000000000008D
:101050000000080801010101010101010101010174
:101060000101010101010101010101010101010170
:101070000101010101010101010101010101010160
:1010800001010108080509080508090708090509FB
:101090000805080801010101010101010101010127
:1010A0000101010101010101019565559695655503
:1010B00096AAAAAA96555655965556559655AAAA31
:1010C0009655565996AA565996655659AA6556592F
:1010D0009965AA5A99AA55599995AA5A99956559FF
:1010E000999565599995A5AAAA956595959565953A
:1010F000959565959595659595956595AAAAAAAADC
:101100009555559595555595955555AA9555559679
:1011100095AAAAAAAA956555969565559695655579
:1011200096956A559695A5AAAA9565559699655579
:1011300096AAAAAA96F9DFF79FF9DFF79FF957D683
:101140009F5965D99FFA9B5695F997E6AF5965590E
:1011500095F997D59FFADFF79FF9DFF79F9965D942
:10116000999965D99995A5AAAA95655596956555B4
:1011700096AAAAAAAA59555595595595965961A95D
:10118000969900A99A9A00AA9A99022AAA99AA0A53
:10119000A8599A2AA85A55AA9A59555595A9AAAA5A
:1011A000AA9565599995A5AAAA80002000800020DB
:1011B000004055555540AA416A4055415540AAAA9C
:1011C0006A6A55555540AAAA6A4055555540AAAA7B
:1011D0006A405555556AAAAA6A40555555000020DF
:1011E00000AAAA2A008000200095AAAAAA25808029
:1011F000202980802082A8AAAA0256A92A821154F6
:1012000011AA120A11825551158251110182121A26
:1012100015AA1124200256A92A82A8AAAA292008C0
:10122000022520080295AAAAAA800020008000209A
:10123000004055555540AA416A4055415540AAAA1B
:101240006A6A55555540AAAA684055555440AA2A7D
:1012500040405555156AAAAA6240555555000020D0
:1012600000AAAA2A00800020008000200080002020
:10127000008000200080AA2A008000220080002236
:1012800000AA00A2AA8000020280AAAA0280080086
:101290000280080002AAAAAAAA00002000000020DA
:1012A00000AAAA2A008000200080002000800020E0
:1012B000008000200080AAAAAA80808000AA8080E6
:1012C0000002A8AAAA0208080002080800020808EA
:1012D0000002080800AA0A080008A8AAAAAA08206A
:1012E0000080AA2A008000200056555555A6AAAABB
:1012F0006A6A4555A56601006062A84A24265665BB
:10130000652A6AAAAA266A6565225669252666653F
:1013100065266AAA6A2A5625A426A84A6466410058
:1013200061A2AAAA2A5655555556555555AAAAAA94
:101330006A5A5555A55A5555655A5595265A61A963
:10134000669A00AAAA9A00AA6A9A022A2A9AAA0A5D
:10135000685A9A2A685A55AAAA5A55A9665A5555DA
:1013600065AAAAAA2A565555555655555556555546
:1013700055AAAAAAAA565555550200000056555519
:1013800055AAAAAAAA565555550200000056555509
:101390005556555555AAAAAAAA56555555565555A6
:1013A000550200000056555555AAAAAAAA961950EA
:1013B00095A6295295961950955655559556015012
:1013C000955605549546155594065515940654059D
:1013D0009406551594461555945605549556015046
:1013E0009556555595AAAAAAAA55555555555555D8
:1013F00055A5AAAA5A6555555165000051654A047C
:10140000516502005165400451650804516542442C
:101410005165484051650000516555555105000022
:101420005055555555555555555555555555555571
:1014300055A5AAAA5A655555516555555165555535
:10144000516555555165555551655555516555551C
:101450005165555551655555516555555105000016
:1014600050555555555555555555552100555521EE
:101470000055552100555521005555210055552140
:101480000055552100555521005555210055552130
:101490000055552100555521005555210055552120
:1014A00000555521005555210056596595565965E9
:1014B0009556A96A95AA5A65955659A5AA56596589
:1014C00095565965955659659556596595AA5A6523
:1014D0009556A96A95565965955659A5AA565965BE
:1014E0009556596595AA5A65955659659556596503
:1014F0009556016095AA004095168000AA0608023C
:10150000940622089486000294060820940A820811
:10151000940608029416200095560080AA56016091
:101520009556596595AA5A659565666666FEFFFFEC
:101530007F5D956AB55E5555755DA56AB55E656654
:10154000755DA56AB55E5555755D5555B55E5555C4
:10155000755D5555B55E5555755D5555B55E555519
:1015600075FDFFFFBF9999995955555555010000D3
:1015700040595555455955554559555545A9AAAA56
:101580006A55555555AAAAAAAAAAAAAAAA5555554E
:101590005501000040595555455955554559555522
:1015A00045A9AAAA6A5555555555555555A9555594
:1015B0005599A96A558949655599A96A55A95555F5
:1015C0005555854A55150648529506685A150648D8
:1015D0005255854A555555555555955A55A9AA58A8
:1015E0005509005855A9AA5A556666666655555557
:1015F000555555595555556955555559555555597B
:10160000555555595555555955555569555555596A
:10161000555555595555555955555569555555595A
:101620005555555555666666660000000000000079
:101630000000000000000000000000000000000F9B
:101640000000C8FF2B0096DB2B00D6F6AF00C8FBCE
:10165000AF00000F000000000000000000000000CC
:10166000000000000000000000000000000000007A
:101670000000000000000000000000000000007FEB
:101680000000C8FBAF0096FBAF00D6F6AF00C8FB6A
:10169000AF00007F0000000000000000000000001C
:1016A000000000000000000000000000000000003A
:1016B0000000000000000000000000000000000F1B
:1016C0000000C8FBAF0096FBAF00D6D62B00C8FFCA
:1016D0002B00000F000000000000000000000000D0
:1016E00000000000000000000000000000000000FA
:1016F0000000000000000000000000008000000367
:10170000AC00C8FBAF0096F9000096F50000C8FBDE
:10171000AF000003AC0000008000000000000000EB
:1017200000000000000000000000000000000000B9
:101730000000000000000000000000000000400069
:101740002000C0C02B00C8FBAB0096FBAF00D60248
:101750000000000700002000000000000000000062
:101760000000000000000000000000000000000079
:101770000000000000000000000000000000000069
:101780000000000020000A00280002FC0200F4FE15
:101790000A00D4FE0000400000000200000000002B
:1017A00000800000000000000000000000000000B9
:1017B0000000000000000000000000000000000029
:1017C000000000000000A080000020200200003F78
:1017D0000000802F000090BF0000D00E0000C80065
:1017E00000000007000020000000000000000000D2
:1017F00000000000000000000000000000000000E9
:101800000000000000000028280000080F0000C0B1
:101810000F0000801E0000F0030000F0030000C86D
:1018200003000000030000201C0000000000000076
:1018300000000000000000000000000000000000A8
:10184000080000009A000000AE0000003C0000000C
:101850003C000000AD000000BD0000003C000000A6
:101860003000000030000000100000000000000008
:101870000000000000000000000000002800000040
:10188000960000A8550000AA560080AA560000AA9B
:10189000560000A855000000960000002800000037
:1018A0000000000000000000000000000000000038
:1018B0000000000000000000800000A06000005850
:1018C0005A00A0565900A85A5900AA5AA900A85A65
:1018D0005900A056590000585A0000A060000000AE
:1018E0008000000000000000000000000000000078
:1018F0000000000000000000800000A06080005890
:101900005A60A2565958A95A5956AA5AA958A95ABA
:101910005960A256598000585A0000A0600000008B
:101920008000000000000000000000000000000037
:101930000000000000000000000000A0820000582D
:101940006900805A6580AA6A65A0AA6AA580AA6A09
:101950006500805A65000058690000A08200000000
:101960000000000000000000002020202033442060
:1019700044454D4F0A0A436F6E74726F6C733A0A96
:101980002015207374726166650A20162072756EC8
:10199000200003053F213F0A100A1208120E1C0EF8
:1019A0000C1E0C141A14161F161E131E1E1B1E1EB0
:1019B0001F1E3F213F3A2F3A173D173F213F181F67
:1019C00002040A041F0E04040E1F0A1F0A0E0E1F33
:1019D00004110E2E252E2F2A2E262929021F020839
:1019E0001F08150E04040E150E15151B151B0406F5
:1019F00004040C040000000017000300031F0A1F6A
:101A000016371A1904130A153A000300000E1111B3
:101A10000E000A040A040E0400300004040400103E
:101A2000001804031F111F121F101D151711151F79
:101A300007041F17151D1F151D01011F1F151F1757
:101A4000151F000A00003200040A110A0A0A110ACE
:101A5000040115020E11171E051E1F150A0E110A8C
:101A60001F110E1F15111F05010E111D1F041F113F
:101A70001F1108100F1F041B1F10101F061F1E042C
:101A80000F0E110E1F09060E112E1F051A12150931
:101A9000011F011F101F0F180F1F0C1F1B041B031A
:101AA0001C03191513001F11030418111F00020154
:101AB000022020200001020C121E1F120C0C121218
:101AC0000C121F0C1A14041E05242A1E1F021C14BB
:101AD0001D1020201D1F0814111F101E041E1E02A1
:101AE0001C0C120C3E0A040C123E1E040214160AB0
:101AF000020F120E101E0E100E1E081E120C1226C1
:101B0000281E322A26041E21001F00211E04010265
:101B1000013F213F0A4E6F205344206361726420CD
:101B20006F720A6E6F204C4F414445522E48455803
:101B30000A0A153A45786974001D20466C6173687D
:101B4000696E670A20206C6F616465722E2E2E0A02
:101B50000A444F4E2754205455524E204F4646219A
:101B6000004E4F20424154544552590A0A504C45A8
:101B70004153450A5455524E204F46460017736153
:101B8000766500166261636B001574797065000AF2
:101B90000A0A153A6F6B617920163A656469740018
:101BA000596F7520656E74657265640A00540A0386
:101BB000E181867F3E186D830F0F0E0183866033AF
:101BC000186DC3198F1803C38E6033186DE330CFBF
:101BD0001803C39E603630CDE360CF3006C79E7ECB
:101BE0003E30CDB360CF300CC6F6603330D9B6602E
:101BF000CF33CFCCF66061B0DB1E60CF30D86CE65F
:101C0000C061B0DB1E618F19986CC6C063B19B0EBA
:101C1000330F0FB078C6FF7E1F1B061E0F175344ED
:101C2000001613780016131400151020001520104C
:101C30000000000500893008023802497868140065
:101C4000004500680100000500680138010000053A
:101C500000380168010000F6E8DBCFC3B8AEA49BF2
:101C6000928A827B746E68625C57524E4945413E4F
:101C70003A3734312E2C29272523211F1D1C1A19F0
:101C800017161514131211100F0E0D0C0B0A09085C
:101C90000706961C9A1C0101F7030101FF030000CF
:101CA0000000240027002A00000000002500280072
:101CB0002B00000000002300260029000404040477
:101CC00004040404020202020202030303030303E6
:101CD00001020408102040800102040810200102C3
:101CE00004081020000000070002010000030406A1
:101CF0000000000000000000A80EB91D11241FBE46
:101D0000CFEFD8E0DEBFCDBF11E0A0E0B1E0EEE95B
:101D1000F1E602C005900D92A837B107D9F715E09A
:101D2000A8E7B1E001C01D92A239B107E1F71CE1BB
:101D3000CCEFDCE104C02297FE010E94C930C83F0D
:101D4000D107C9F70E943A2E0C94CD300C940000B4
:101D5000EBEDF1E011821082359681E0E93FF80762
:101D6000C9F7089589EF92E00E94ED1387ED91E0A5
:101D70000E94701288E791E00E94071D089580EC90
:101D800097E09093FC028093FB0280E094E09093B4
:101D9000FA028093F90288E791E00E94281587ED06
:101DA00091E00E94170F0895813430F4E82FF0E09D
:101DB000E859FF4FE49109C0813848F4E0E8F0E0C9
:101DC000E81BF109E859FF4FE491F0E014C0282F17
:101DD00030E0813C28F428513040F901849106C05C
:101DE000E8E6F1E0E21BF30BE4918E2F90E0EE27A2
:101DF000FF27E81BF90BCF010895FC0120813181F9
:101E0000621773078CF0828193814817590764F039
:101E1000215F3F4F261737073CF020E00F968417CD
:101E200095071CF021E001C020E0822F0895FC01FD
:101E300011821082138212820895FC012081318167
:101E400062177307ECF08281938148175907C4F039
:101E5000215F3F4F261737079CF00F968417950791
:101E60007CF04F7050706F70707084E0440F551F9D
:101E70008A95E1F7E40FF51FE60FF71F82A1089599
:101E80008FEF08950E941D0F8F3F11F480E0089599
:101E9000815008950E941D0F90E08150853108F413
:101EA00091E0892F0895EF92FF920F931F93CF93A4
:101EB000DF93EC017B018A010E941D0F982F815056
:101EC000853198F19F3F89F1DE0120E030E01496E2
:101ED0008D919C911597892B01F116968C911697EF
:101EE000992787FD90958E159F05B9F417968C91CB
:101EF0001797992787FD90958017910771F4F9013D
:101F0000EE0FFF1FEE0FFF1FE20FF31FEC0FFD1F81
:101F100080858F7390E0409744F02F5F3F4F159678
:101F200026303105A1F680E001C081E0DF91CF913C
:101F30001F910F91FF90EF9008950E941D0F90E068
:101F40008A55823008F491E0892F0895EF92FF922C
:101F50000F931F93E6E0000F111FEA95E1F7452B61
:101F600029F0020F131F80E090E01FC0020F131F23
:101F700080E090E00BC0FC01E00FF11FE755FF4F40
:101F8000E491DB01A80FB91FEC9301968E159F0514
:101F900094F30EC0F801E755FF4FE491DB01A80F61
:101FA000B91FEC930196005C1F4F8E159F0594F3AB
:101FB0001F910F91FF90EF900895CF92DF92EF92D3
:101FC000FF920F931F93CF93DF93EC016B018A0174
:101FD0007901AC01FC01AFEFBFEF20E030E08FEF03
:101FE000AF3FB80729F484819581892B09F4D90181
:101FF00084819581892B79F08681992787FD909539
:102000008017910741F48781992787FD90958E1558
:102010009F0509F442C02F5F3F4F359626303105AA
:10202000F1F68FEFAF3FB80751F528813981B9013B
:10203000615F7F4FE0E0F0E0DA0116968C91169731
:10204000992787FD909582179307C4F06817790741
:10205000ACF017968C91992787FD9095AA81BB814A
:102060008A179B075CF01F96A817B9073CF03196BA
:102070004B5F5F4FE630F105F9F60FC0DF01FD0160
:10208000EE0FFF1FEE0FFF1FEA0FFB1FEC0FFD1FF0
:102090000683E7821086D582C482DF91CF911F919B
:1020A0000F91FF90EF90DF90CF9008951F93162F20
:1020B0006B3519F461E070E004C06A3521F462E028
:1020C00070E00E94DD0F812F1F9108956F927F9223
:1020D0008F929F92AF92BF92CF92DF92EF92FF9238
:1020E0000F931F93DF93CF93CDB7DEB760970FB6F3
:1020F000F894DEBF0FBECDBF5C013B01DC012D912A
:102100003C911197260F371F12960D911C91139732
:102110006E010894C11CD11CB60141E050E0E0E121
:10212000EE2EF12C0E94A60FF50180809180860C86
:10213000971CFFE08F229924EE24FF24D5011296EC
:102140000D911C9113970E0D1F1DF601EE0DFF1D35
:102150004D915C91460D571DC501608198010E940B
:1021600056100F70107094E0000F111F9A95E1F750
:102170000A0D1B1D080D191DF80182A30894E11C0E
:10218000F11CF0E1EF16F104C9F660960FB6F89471
:10219000DEBF0FBECDBFCF91DF911F910F91FF909A
:1021A000EF90DF90CF90BF90AF909F908F907F90F7
:1021B0006F9008956F927F928F929F92AF92BF928D
:1021C000CF92DF92EF92FF920F931F93DF93CF9303
:1021D000CDB7DEB760970FB6F894DEBF0FBECDBFA8
:1021E0005C013B01DC012D913C91119712960D9100
:1021F0001C911397060F171F6E010894C11CD11C68
:10220000B60140E050E0A0E1EA2EF12C0E94A60FBA
:10221000F501E280F380E60CF71CFFE0EF22FF24DB
:10222000F4E0EE0CFF1CFA95E1F788249924EA0CFF
:10223000FB1CD5010D911C911197080D191DF6017C
:10224000E80DF91D12962D913C911397260D371D1F
:10225000C5016081A8010E9456100F7010700E0D0C
:102260001F1DF80182A30894811C911CF0E18F16B8
:102270009104F9F660960FB6F894DEBF0FBECDBF9D
:10228000CF91DF911F910F91FF90EF90DF90CF9052
:10229000BF90AF909F908F907F906F9008950F9315
:1022A0001F93CF93DF938C01C0E0D0E0C801BE0143
:1022B0000E94DA102196C031D105C1F7DF91CF918C
:1022C0001F910F910895EF92FF920F931F93CF9359
:1022D000DF93EC0177FF02C060E070E09A0157FFE6
:1022E00002C020E030E08B016133710514F000E39F
:1022F00010E07901213331051CF0B0E3EB2EF12C15
:10230000288139812017310731F48A819B818E150C
:102310009F0509F455C0C9010F97081719078CF0DC
:10232000215F3F4F2017310764F02A813B81C901AB
:102330000F97E816F9062CF0215F3F4F2E153F0549
:1023400084F419830883FB82EA82CE010E944F1134
:1023500037C0019699838883CE016FE070E00E94B8
:10236000661088819981801791079CF308C00197B6
:1023700099838883CE0160E070E00E9466108881B6
:102380009981081719079CF308C001969B838A83DB
:10239000CE016FE070E00E94DA108A819B818E1579
:1023A0009F059CF308C001979B838A83CE0160E060
:1023B00070E00E94DA108A819B81E816F9069CF38E
:1023C000DF91CF911F910F91FF90EF900895EF92C1
:1023D000FF920F931F93CF93DF93EC017B018A0150
:1023E0000E949D0F882349F1FE0120E030E08481A6
:1023F0009581892BE1F08681992787FD90958E152F
:102400009F05A9F48781992787FD909580179107EB
:1024100071F4F901EE0FFF1FEE0FFF1FE20FF31F24
:10242000EC0FFD1F80858F738064808706C02F5F4F
:102430003F4F359626303105D1F6DF91CF911F9170
:102440000F91FF90EF900895FC019481892F829560
:10245000869586958370282F30E02130310521F054
:1024600022303105A1F409C0892F8F738F3311F009
:102470008F5F07C08FEB84830895892F8F7331F0AE
:10248000815C8F73907C982B9483089514820895B7
:10249000EF92FF920F931F93CF93DF937C018C01F8
:1024A000C0E0D0E0F80184819581892B61F0CE01F4
:1024B000880F991F880F991F8C0F9D1F04968E0DF2
:1024C0009F1D0E94241221960B5F1F4FC630D1051D
:1024D00049F7DF91CF911F910F91FF90EF900895F1
:1024E0000E94481208958F929F92AF92BF92CF920E
:1024F000DF92EF92FF920F931F93CF93DF937C01B4
:102500005B014A01FC018081918160E270E00E94E0
:102510007730EB018281938160E270E00E94773036
:102520008B01B7FE4FC06E010894C108D10887ED3A
:1025300091E0B601A8010E94530F882381F5C801DC
:1025400035E0880F991F3A95E1F70896F701228147
:1025500033812817390754F4A8014150504087EDC2
:1025600091E0B6010E94530F8823C9F4C80125E009
:10257000880F991F2A95E1F78861F701228133813D
:10258000821793070CF06FC0A8014F5F5F4F87ED74
:1025900091E0B6010E94530F882309F464C0F7014B
:1025A000408151819E0185E0220F331F8A95E1F71A
:1025B000285F3F4FC501840F951F821793070CF0CA
:1025C00052C04EC0A114B10409F44DC06E0108946C
:1025D000C11CD11C87ED91E0B601A8010E94530FE8
:1025E000882371F5C801B5E0880F991FBA95E1F706
:1025F0000896F701228133812817390754F4A8017E
:102600004150504087ED91E0B6010E94530F88235E
:10261000B9F4C801A5E0880F991FAA95E1F7886170
:10262000F7012281338182179307ECF4A8014F5FF1
:102630005F4F87ED91E0B6010E94530F882399F018
:10264000F701408151819E01F5E0220F331FFA9579
:10265000E1F72861C501840F951F281739071CF47D
:102660005901A41AB50A97FE4EC068010894C10822
:10267000D10887ED91E0BE01A6010E94530F882387
:1026800079F5CE01E5E0880F991FEA95E1F7089604
:10269000F701208131812817390754F4BE016150B8
:1026A000704087ED91E0A6010E94530F8823C1F48A
:1026B000CE0175E0880F991F7A95E1F78861F701DF
:1026C00020813181821793070CF06DC0219687ED30
:1026D00091E0BE01A6010E94530F882309F463C054
:1026E000F70122813381A80165E0440F551F6A95E7
:1026F000E1F7485F5F4FC401820F931F841795076E
:102700000CF051C04DC08114910409F44CC0680113
:102710000894C11CD11C87ED91E0BE01A6010E9466
:10272000530F882369F5CE0135E0880F991F3A953C
:10273000E1F70896F701208131812817390754F411
:10274000BE016150704087ED91E0A6010E94530FD9
:102750008823B1F4CE0125E0880F991F2A95E1F76F
:102760008861F7012081318182179307E4F4219673
:1027700087ED91E0BE01A6010E94530F882399F0D6
:10278000F70122813381A80185E0440F551F8A9506
:10279000E1F74861C401820F931F481759071CF4E1
:1027A0004A01821A930AF701808191818A0D9B1D4B
:1027B0009183808382819381880D991D9383828385
:1027C000DF91CF911F910F91FF90EF90DF90CF900D
:1027D000BF90AF909F908F900895CF92DF92EF922D
:1027E000FF920F931F93CF93DF93EC01809104032B
:1027F00090E054E0969587955A95E1F7182F11705F
:102800008C81805C0E94D40E7C018C810E94D40E4D
:102810006C0180910403A82F85FD05C027E030E0FE
:10282000E3E0F0E004C02EE030E0E6E0F0E0A2FDFE
:1028300005C060E070E040E050E01EC02E9DC00189
:102840002F9D900D3E9D900D1124880F892F881F7C
:10285000990B66277727681B790B2C9DC0012D9D4E
:10286000900D3C9D900D1124880F892F881F990B86
:1028700044275527481B590BA0FF1AC02E9DC001A5
:102880002F9D900D3E9D900D1124880F892F881F3C
:10289000990B680F791F2C9DC0012D9D900D3C9DBB
:1028A000900D1124880F892F881F990B480F591FED
:1028B000A3FF20C01123D9F02C9DC0012D9D900DA8
:1028C0003C9D900D1124880F892F881F990B680F4C
:1028D000791F2E9DC0012F9D900D3E9D900D1124BE
:1028E000880F892F881F990B481B590B03C08C81B7
:1028F0008E1B8C83A1FF20C01123D9F02C9DC00119
:102900002D9D900D3C9D900D1124880F892F881FBF
:10291000990B681B790B2E9DC0012F9D900D3E9D3C
:10292000900D1124880F892F881F990B480F591F6C
:1029300003C08C818E0F8C83CE010E94731288811C
:10294000998160E270E00E947730FB013897C701FF
:1029500063E170E00E947730E60FF71F8A819B8168
:1029600060E270E00E9477309B0128503040C60141
:1029700063E170E00E947730260F371F87ED91E00A
:10298000BF01A9010E9463118881998160E270E012
:102990000E9477308B018A819B8160E270E00E9407
:1029A0007730EB0187ED91E0B801AE010E94E711AD
:1029B0001E141F0424F4B8016F5F7F4F03C0B801D9
:1029C0006150704087ED91E0AE010E94E7111C1448
:1029D0001D0414F4219601C0219787ED91E0B80100
:1029E000AE010E94E711DF91CF911F910F91FF90EF
:1029F000EF90DF90CF900895DC0112962C91129702
:102A000013964C911397842F8E5F13968C93139784
:102A1000883069F4ED91FC91119731961196FC93F1
:102A2000EE93E4911296EC93129713961C9283E026
:102A300090E0042E02C0880F991F0A94E2F730E05C
:102A40008223932302C0959587954A95E2F70895CE
:102A500008952F923F924F925F926F927F928F9242
:102A60009F92AF92BF92CF92DF92EF92FF920F931D
:102A70001F93DF93CF93CDB7DEB768970FB6F89467
:102A8000DEBF0FBECDBF2C01788F6F8BDC0114969B
:102A90008D919C9115977C010027F7FC0095102FD4
:102AA000EB8AFC8A0D8B1E8B8D919C911197481B94
:102AB000590BBA01882777FD8095982F6F87788BFF
:102AC000898B9A8B16968D919C9117977C01002784
:102AD000F7FC0095102FEB86FC860D871E8712965B
:102AE0008D919C911397281B390B3901882477FC11
:102AF0008094982C6F85788989899A892B893C895B
:102B00004D895E890E9438307B018C0167E0159504
:102B10000795F794E7946A95D1F7C401B3012B8523
:102B20003C854D855E850E94383057E095958795A8
:102B3000779567955A95D1F75701A61AB70A1A14CF
:102B40001B040CF0CAC080E099E0B5010E94773008
:102B50006B011B013594279408E110E00219130959
:102B60001A8709879101285E3F4F38872F83C40158
:102B7000B3012B893C894D895E890E9438307B01E5
:102B80008C0137E015950795F794E7943A95D1F7BE
:102B90006F85788989899A892B853C854D855E85E5
:102BA0000E94383027E095958795779567952A9507
:102BB000D1F7E60EF71E88E490E0AC01E49EC00178
:102BC000E59E900DF49E900D1124B5010E94773082
:102BD000665D7F4F62197309CB018C0D9D1D9E832D
:102BE0008D83655F7F4F460E571E6B5070404101CD
:102BF0007B0166246CC094E5E916F10408F054C02A
:102C0000D2018C9190E08C159D050CF04DC0E62D05
:102C1000FF27E7FDF095EE0FFF1FEE0FFF1F0F8957
:102C2000188DE00FF11FFA83E9831C82E491EB8396
:102C3000CE0101960E94FC14782E510109851A8557
:102C400000331105E0F422E0721691F033E07316C0
:102C500021F041E0741699F405C0C8018E259F2526
:102C600080FF06C082E093E06E2D402F21E005C07A
:102C700082E093E06E2D402F20E00E94821D61EFE4
:102C80007FEFA60EB71E07C0CE0101960E94FC146E
:102C9000782EAC0CBD1CB7FCF7CF0F5F1F4F8F8198
:102CA00098858017910764F6A0EFBFEF8A0E9B1EF0
:102CB000C114D10421F405C063948C0C9D1C97FCB5
:102CC000FBCF0894E11CF11C0894411C511CED81C0
:102CD000FE81EE15FF050CF08ECF68960FB6F894C6
:102CE000DEBF0FBECDBFCF91DF911F910F91FF903F
:102CF000EF90DF90CF90BF90AF909F908F907F909C
:102D00006F905F904F903F902F9008952F923F9239
:102D10004F925F926F927F928F929F92BF92CF92CB
:102D2000DF92EF92FF920F931F93DF93CF9300D028
:102D300000D0CDB7DEB76B014A01E02F7A01F594E0
:102D4000E79408E110E00E191F0988E1482E512C84
:102D50004E0C5F1CF0E0B4E0EE0FFF1FBA95E1F7F8
:102D6000332727FD3095E20FF31FEE0FFF1FEE0F05
:102D7000FF1FE755FF4EFA83E9831C82E491EB8342
:102D80001E010894211C311CC1010E94FC14B82EA4
:102D900071E0672E712C6C207D2036C00033110548
:102DA00020F581E0B816D1F0B81638F092E0B916E7
:102DB00079F083E0B816C9F406C0C8018C259D25BA
:102DC00080FF06C00BC0C30180239123892B31F003
:102DD00082E093E06C2D402F20E005C082E093E07C
:102DE0006C2D402F21E00E94821D81EF9FEFE80EA5
:102DF000F91E06C0C1010E94FC14B82EE80CF91C93
:102E0000F7FCF8CF0F5F1F4F401651063CF60F90AE
:102E10000F900F900F90CF91DF911F910F91FF9026
:102E2000EF90DF90CF90BF909F908F907F906F90AA
:102E30005F904F903F902F9008952F923F924F9226
:102E40005F926F927F928F929F92AF92BF92CF923A
:102E5000DF92EF92FF920F931F93DF93CF93CDB743
:102E6000DEB76A970FB6F894DEBF0FBECDBF9B8B5F
:102E70008A8B1B013A013A8F298F1D8B0C8BEE8AAE
:102E8000CF8AA88EDC011496AD90BC901597CC2407
:102E9000B7FCC094DC2CED91FC911197F98BE88B79
:102EA0002E1A3F0A442437FC4094542C16968D91D8
:102EB0009C9117979C01442737FD4095542F2C87F0
:102EC0003D874E875F8712964D915C9113975B8784
:102ED0004A87641A750A882477FC8094982CC2016A
:102EE000B101A60195010E9438307B018C0187E079
:102EF00015950795F794E7948A95D1F7C401B30126
:102F00002C853D854E855F850E94383017E095956C
:102F10008795779567951A95D1F7D701A61BB70BBB
:102F2000B987A887C401B301A60195010E94383072
:102F30007B018C01B7E015950795F794E794BA9556
:102F4000D1F7C201B1012C853D854E855F850E9478
:102F50003830A7E09595879577956795AA95D1F72D
:102F6000F701E60FF71FFF83EE83298D3A8D48891D
:102F70005989241B350B1901442437FC4094542CE7
:102F80008C899D89AA85BB858A1B9B0B3C01882463
:102F900077FC8094982CC201B101A60195010E9492
:102FA00038307B018C01F7E015950795F794E7948D
:102FB000FA95D1F7C401B3012C853D854E855F8517
:102FC0000E943830E7E09595879577956795EA9563
:102FD000D1F7F701E61BF70BFA8FE98FC401B301B4
:102FE000A60195010E9438307B018C0167E01595A0
:102FF0000795F794E7946A95D1F7C201B1012C8542
:103000003D854E855F850E94383057E095958795C0
:10301000779567955A95D1F7F701E60FF71F298D38
:103020003A8D1216130624F1488559851416150693
:103030000CF015C12E813F812E1B3F0B81E090E0EB
:10304000A98DBA8D8A1B9B0BBA016A1B7B0BAC0145
:10305000249FC001259F900D349F900D11240E9444
:103060007730E60FF71F81E090E09A8F898F26C0B6
:10307000A885B9851A161B060CF19F014E815F8148
:10308000241B350B81E090E08A1B9B0B698D7A8DA8
:103090006A1B7B0BDC012A9FC0012B9F900D3A9F7E
:1030A000900D11240E9477302E813F81260F371F0B
:1030B0003F832E8341E050E05987488728E430E081
:1030C000E29FC001E39F900DF29F900D1124698D46
:1030D0007A8D0E947730FB01BA96AE81BF81A29FA4
:1030E000C001A39F900DB29F900D11246885798532
:1030F0000E9477306B0129E230E0C20ED31E9601A8
:1031000044E5C416D10414F023E530E0CF01F7FF05
:1031100002C080E090E0281739070CF4A0C080E0DE
:1031200099E0698D7A8D0E9477309B0180E099E06B
:10313000688579850E9477307601EE1AFF0A1701BB
:10314000359427942617370744F4DB01A21BB30BF1
:10315000BC83AB8341E050E007C0D901A61BB70B8D
:10316000BC83AB834FEF5FEF5A8349835F89888DC0
:1031700058172CF4A82EA51A91E09D8305C0AF889E
:10318000A88DAA1ABFEFBD833B964A885B884E0E76
:103190005F1E3B9731013A8F298F1F894F01BB2456
:1031A000A7FCB09458C0E4E58E16910488F5D201CE
:1031B0002C91822F90E0E98DFA8D8E179F0744F5B0
:1031C000222349F08091FE029091FF020196909394
:1031D000FF028093FE02298D3A8D2F3F310509F0C1
:1031E0001CF4D2012C9303C02FEFF2012083AA8993
:1031F000BB891A968C911A978F5F1A968C938A893D
:103200009B89B401498D5A8D212F0E890E94861603
:10321000EB81FC812E1A3F0A6A187B081E141F04DA
:103220005CF013C0298D3A8D49815A81240F351FD6
:103230003A8F298F2E0C3F1C37FCF4CF04C05D81E0
:10324000150F6E0C7F1C77FCFACF0894811C911C23
:103250000894411C511CC814D9040CF0A4CF6A96E0
:103260000FB6F894DEBF0FBECDBFCF91DF911F9197
:103270000F91FF90EF90DF90CF90BF90AF909F9015
:103280008F907F906F905F904F903F902F90089518
:103290006F927F928F929F92AF92CF92EF92FF9216
:1032A0000F931F93CF93DF93EC011BED612E11E081
:1032B000712E88249924BFE0FB2EF401EE0FFF1F2E
:1032C000EE0FFF1FE80DF91DE152FE4F80818F7355
:1032D000482F50E0403151050CF09BC0D3011296AD
:1032E0008C911297282F332727FD3095E091D70135
:1032F000F091D8012E173F070CF48BC013968C91D8
:103300001397082F112707FD10958091D9019091EF
:10331000DA01081719070CF47CC03F96E217F3078F
:103320000CF477C00F96801791070CF472C08D9142
:103330009C918230910591F575E0220F331F7A95AB
:10334000E1F7205F3F4F88819981F801319664E071
:10335000000F111F6A95E1F7821793077CF495E03F
:10336000EE0FFF1F9A95E1F7040F151F000F111FB5
:10337000AF2CA41ACE01B901AF0133C0040F151F41
:10338000000F111FA5E0EE0FFF1FAA95E1F7CF2C4C
:10339000C41ACE01B901A8018F0136C00197C9F541
:1033A00075E0000F111F7A95E1F7005F1F4F8A81CA
:1033B0009B81F901319664E0220F331F6A95E1F792
:1033C0000817190794F4B5E0EE0FFF1FBA95E1F75F
:1033D000240F351F220F331FAF2CA41ACE01BF01BB
:1033E000A801E2E1EE2ECC2412C0240F351F220FDB
:1033F000331FA5E0EE0FFF1FAA95E1F7CF2CC41AEB
:10340000CE01B901A8019F01E2E1EE2EAA240E949B
:103410001D170894811C911CE5E0F0E06E0E7F1EE4
:10342000F6E08F16910409F048CFDF91CF911F91FC
:103430000F91FF90EF90CF90AF909F908F907F90E3
:103440006F900895AF92CF92EF92FF920F931F93D8
:10345000E62F65E0440F551F6A95E1F7B5E0220FAE
:10346000331FBA95E1F7A5E0000F111FAA95E1F708
:10347000F5E0EE0CFF1CFA95E1F7BA01A9019801FD
:103480008701EE2ECC24EFE0AE2E0E941D171F9177
:103490000F91FF90EF90CF90AF900895EF92FF9231
:1034A0000F931F93DF93CF9300D000D0CDB7DEB73B
:1034B000E9E6F8E1FA83E9831C82E491EB8302E216
:1034C0007E010894E11CF11C15C0C7010E94FC1488
:1034D000882351F020E0813009F421E082E093E07C
:1034E000602F412F0E94821D1F5F103371F70F5F05
:1034F000023311F010E2E9CF0F900F900F900F9070
:10350000CF91DF911F910F91FF90EF9008955F92FF
:103510006F927F928F929F92AF92BF92CF92DF92E3
:10352000EF92FF920F931F93CF93DF934C01EB0128
:103530006A0187ED91E00E94FD0E882309F499C18C
:1035400087ED91E0BE01A6010E944A0F882309F48D
:1035500090C187ED91E0BE01A6010E941D0F882356
:1035600009F487C1F4018185992787FD90958C190D
:103570009D0926813781A901849F9001859F300D87
:10358000949F300D11248085992787FD9095AE0179
:10359000481B590B84819581BC01469FC001479F00
:1035A000900D569F900D1124280F391F12161306E7
:1035B0000CF05FC187ED91E0BE01A6010E94420FB1
:1035C000582EF40122813381C60115E0880F991F1E
:1035D0001A95E1F73E01B5E0660C771CBA95E1F764
:1035E00040815181281739070CF09BC0860101509A
:1035F0001040641675060CF04CC087ED91E0BE01DA
:10360000A8010E949D0F882331F08E010F5F1F4F8C
:10361000C40163E10DC087ED91E0BE01A8010E94E5
:103620004A0F882351F48E010F5F1F4FC401652D8F
:10363000AE01960176010E94221A8E010F5F1F4F84
:103640009801A5E0220F331FAA95E1F7F4018081CC
:103650009181281739070CF00CC187ED91E0B80172
:10366000A6010E949D0F882319F0C40163E10BC0DD
:1036700087ED91E0B801A6010E944A0F882309F066
:10368000F8C0C401652DA80196010894C11CD11C85
:10369000EDC087ED91E0BE01A8010E949D0F882337
:1036A00031F08E010F5F1F4FC40163E10DC087ED44
:1036B00091E0BE01A8010E944A0F882351F48E01B7
:1036C0000F5F1F4FC401652DAE01960176010E9468
:1036D000221AF40180819181861597050CF0C9C0EA
:1036E0008E010150104087ED91E0B801A6010E94C3
:1036F0009D0F882331F096012F5F3F4FC40163E196
:103700000EC087ED91E0B801A6010E944A0F882300
:1037100009F0AFC096012F5F3F4FC401652DAE0188
:10372000A4C056010894A11CB11C641675060CF0C7
:1037300053C0C501F5E0880F991FFA95E1F782178C
:10374000930704F587ED91E0BE01A5010E949D0F4E
:10375000882331F0AE014F5F5F4FC40163E10DC0BC
:1037600087ED91E0BE01A5010E944A0F882351F424
:10377000AE014F5F5F4FC401652D95018E0175014C
:103780000E94221A8E010F5F1F4F9801E5E0220F61
:10379000331FEA95E1F7F4018081918128173907F9
:1037A0000CF067C087ED91E0B801A6010E949D0F63
:1037B000882319F0C40163E10BC087ED91E0B801E3
:1037C000A6010E944A0F882309F053C0C401652D49
:1037D000A801960175014BC0C50175E0880F991FBE
:1037E0007A95E1F78217930704F587ED91E0BE0122
:1037F000A5010E949D0F882331F0AE014F5F5F4FFE
:10380000C40163E10DC087ED91E0BE01A5010E94F6
:103810004A0F882351F4AE014F5F5F4FC401652DFD
:1038200095018E0175010E94221AF4018081918117
:1038300086159705F4F48E010150104087ED91E054
:10384000B801A6010E949D0F882319F0C40163E10D
:103850000AC087ED91E0B801A6010E944A0F8823B3
:1038600041F4C401652DAE0195018E0176010E94DF
:10387000221ADF91CF911F910F91FF90EF90DF906F
:10388000CF90BF90AF909F908F907F906F905F9000
:1038900008952F923F924F925F926F927F928F92F4
:1038A0009F92AF92BF92CF92DF92EF92FF920F93CF
:1038B0001F93CF93DF933C01FC01248135811216C5
:1038C00013066CF4C090D701D090D801B0E12B2E34
:1038D000312C2C0C3D1CA1E04A2E512C10C08091A3
:1038E000D7019091D8011C01089421083108FFE00C
:1038F000CF2ED12CC80ED91E44244A94542CF30147
:103900004681578157FF0DC0E090D901F090DA0150
:10391000E0E18E2E912C8E0C9F1C71E0A72EB12C15
:1039200010C08091D9019091DA014C01089481086E
:1039300091086FE0E62EF12CE80EF91EAA24AA9455
:10394000BA2C37FF03C0309521953F4FCA0157FF6E
:1039500003C0909581959F4F2817390714F0860171
:103960001FC087010CC0C301BE01A8010E94871AB5
:10397000C40DD51DC215D305B1F70A0D1B1D0815C1
:10398000190599F0E601F6CFC301B801AE010E9416
:10399000871ACA0DDB1DC815D905B1F7040D151D11
:1039A0000215130511F0E701F6CFDF91CF911F91BA
:1039B0000F91FF90EF90DF90CF90BF90AF909F90CE
:1039C0008F907F906F905F904F903F902F900895D1
:1039D0008CEFEBE8F3E0DF011D928A95E9F72CEF1D
:1039E00030E045E50DC04083118202963296843561
:1039F0009105C9F72C5A3F4FB1E0283F3B0731F002
:103A0000F901E557FC4F80E090E0EDCF08950F936A
:103A10001F93CF93DF93EC018091F9029091FA020A
:103A2000998388838091FB029091FC029B838A8317
:103A30008091FD028195805C0E94D40E9D838C83D1
:103A40008091FD0281950E94D40E9F838E831092F7
:103A5000FF021092FE028091F9029091FA0260E258
:103A600070E00E94773068878091FB029091FC02A1
:103A700060E270E00E9477306987FE0180E090E0AC
:103A800013860196319684359105D1F71A86CE01B9
:103A90000E94E81CCE010E94491CCE010E944819D8
:103AA000809100039091010301969093010380930C
:103AB000000364E070E00E947730CB0169E070E0C1
:103AC0000E9477308C0136E0000F111F3A95E1F724
:103AD000075D194ECE01B80140E054E020EC37E01C
:103AE0000E942915CE01B80140E054E020E034E006
:103AF0000E942915CE010E944E1ADF91CF911F918D
:103B00000F91089550E070E02223D1F0FA01EE0FFA
:103B1000FF1FE95FFE4F0190F081E02DE60FF71FD8
:103B2000E557FC4F4770507081E090E002C0880F6D
:103B3000991F4A95E2F7809520818223808308951A
:103B4000FA01EE0FFF1FE95FFE4F0190F081E02DBB
:103B5000E60FF71FE557FC4F4770507081E090E08B
:103B600002C0880F991F4A95E2F72081282B2083F5
:103B700008958DE691E090930303809302031092E1
:103B800056031092550383E791E09093540380937A
:103B9000530308950F931F9305E013E0C8010E949B
:103BA000DD28C80169E679E10E94D82810925903FE
:103BB00010921D03C8016EE10E94F4240E94BF0E02
:103BC0001F910F910895CF93DF93EC011A8284E047
:103BD0000E940A2E892B19F48A8180618A8382E0EF
:103BE0000E940A2E892B19F48A8180628A8381E1DE
:103BF0000E940A2E892B19F48A8180648A8389E0C5
:103C00000E940A2E892B19F48A8181608A8387E0B9
:103C10000E940A2E892B19F48A8182608A8386E0A9
:103C20000E940A2E892B19F48A8184608A8388E095
:103C30000E940A2E892B19F48A8188608A83DF9179
:103C4000CF91089585E093E00E94BC26882331F04F
:103C500082E093E00E94E31D0E94B20E0895882343
:103C600019F48CB5806202C08CB58F7D8CBD08952F
:103C70009CB5937F982B9CBD08952CB5382F33703D
:103C80002C7F322B3CBD2DB590E095958795959571
:103C9000879581702E7F822B8DBD08958AE061E02B
:103CA0000E94D72D8AE061E00E946B2D8CB5806167
:103CB0008CBD8CB580648CBD8DE061E00E946B2D65
:103CC0008BE061E00E946B2D0895FC0181E0808310
:103CD000089585E070E00E940B2D08956F927F9209
:103CE0008F929F92AF92BF92CF92DF92EF92FF920C
:103CF0000F931F93CF93DF93EC0189819A818C01FD
:103D000024E0000F111F2A95E1F7081B190B85E12C
:103D10000E94E92CBC01600F711F84E076956795C5
:103D20008A95E1F77A8369838881882381F12E81DE
:103D30003F816217730710F4B90106C08885998521
:103D40008617970708F4BC0100D000D080E090E00F
:103D500040E050E0E884F98400E010E0AD80BB244E
:103D6000CC24DD246C80772488249924EDB7FEB719
:103D700061827282838294820E94D22E6B830F9022
:103D80000F900F900F9085E070E00E940B2DDF9157
:103D9000CF911F910F91FF90EF90DF90CF90BF9048
:103DA000AF909F908F907F906F900895FC018CE36F
:103DB0009FE09383828384E0818381E084870895F8
:103DC000CF93DF93EC018C8590E08F719070892BFD
:103DD00069F584E10E94E92CAA2797FDA095BA2FE6
:103DE000BC01CD010E94492F26EE3FE34EEC50E48A
:103DF0000E94D52F0E941B2F9B01AC017B836A83FD
:103E00006115710589F084E08983B901FE0120E024
:103E1000848195816817790710F429830AC02F5F80
:103E200032962430A9F702C08FEF89838C858F5F8B
:103E30008C87DF91CF910895FC0188E0808389E031
:103E4000818387E0828386E0838384E0848382E0C9
:103E5000858381E18683089520E0FC01E60FF11D52
:103E60008781813009F421E0822F08950F931F93F9
:103E7000CF93DF93EC0110E00FEF888162E00E94A6
:103E80006B2D88810E940A2E2F81892B19F42F5FB8
:103E90002F8307C0222349F02F3F11F41F8201C056
:103EA0000F83888160E00E946B2D1F5F2196173081
:103EB00021F7DF91CF911F910F910895FC01678F3A
:103EC00060A30895FC01678F40A30895FC01643549
:103ED000A8F547FD33C040338CF5878D942F959519
:103EE00095959595772767FD70954770882399F08C
:103EF000E4E59E02F0011124E60FF71FE557FC4FA1
:103F000081E090E002C0880F991F4A95E2F7208176
:103F1000282B20830895E4E59E02F0011124E60F8A
:103F2000F71FE557FC4F81E090E002C0880F991F12
:103F30004A95E2F780952081282320830895AF9247
:103F4000BF92CF92DF92EF92FF920F931F93CF9386
:103F5000DF93EC01162FF42EE22EAA24402F5527D2
:103F600047FD50958F2D992787FD9095481B590B3C
:103F700057FF03C0509541955F4F2E2D332727FDE6
:103F80003095812F992787FD9095281B390B37FF96
:103F900003C0309521953F4F2417350744F4AA24D8
:103FA000A3948F2DF12E182F802F0E2DE82EE116C1
:103FB00034F48E2DE12E182F802F0F2DF82EDE2CAD
:103FC000D11A202F332727FD30958F2D992787FD74
:103FD0009095281B390B37FF03C0309521953F4F33
:103FE000B22EF0161CF0CC24CA9402C0CC24C39488
:103FF0008D2DD7FC8F5F082F059511C0AA2021F0C9
:10400000CE016F2D412F03C0CE01612F4F2D0E9495
:10401000661F0B1907FF02C0FC0C0D0D1F5FE11698
:104020006CF7DF91CF911F910F91FF90EF90DF9090
:10403000CF90BF90AF9008950F93042F322F262F6B
:104040002150230F0E949F1F0F9108950F93362F29
:10405000042F0150020F232F0E949F1F0F910895DC
:104060009F92AF92BF92CF92DF92EF92FF920F9307
:104070001F93CF93DF936C01B62E942EA02EC0E039
:10408000D0E0E62EFF24E7FCF094022F112707FD75
:1040900010950E0D1F1D06C0C601492D2A2D0E9428
:1040A000262021966B2D6C0FCE018E0D9F1D801743
:1040B000910794F3DF91CF911F910F91FF90EF90B3
:1040C000DF90CF90BF90AF909F9008952F923F9236
:1040D0005F926F927F928F929F92AF92BF92CF9298
:1040E000DF92EF92FF920F931F93DF93CF9300D055
:1040F00000D000D0CDB7DEB79E838D83C62ED42EE0
:10410000EE24E394E21A8EEF289F502C1124842E83
:104110008A94962E9A94A42EA394B62EB394F22E3B
:10412000662423E0722E10E0C801847090709A8398
:104130008983F801E270F070FC83EB8398E0292E0C
:10414000312C202231220170107054C0E7FC04C0D1
:10415000FA94F2E05F0EE50C639489819A81892BD1
:1041600071F04F2D4D0D8D819E816B2D0E94661F2C
:104170006F2D6C0D8D819E814A2D0E94661FEB81F3
:10418000FC81EF2B71F04D2D4F198D819E816B2D90
:104190000E94661F6F2D6C0D8D819E81482D0E949F
:1041A000661F2114310471F06C2D6F198D819E8171
:1041B0004A2D0E94661F4F2D4D0D8D819E81692DC8
:1041C0000E94661F0115110571F06C2D6F198D810C
:1041D0009E81482D0E94661F4D2D4F198D819E8115
:1041E000692D0E94661FE70CF2E07F0E8A949A9474
:1041F000A394B3946F140CF4A9CF26960FB6F89439
:10420000DEBF0FBECDBFCF91DF911F910F91FF9009
:10421000EF90DF90CF90BF90AF909F908F907F9066
:104220006F905F903F902F9008954F925F926F92A2
:104230007F928F929F92AF92BF92CF92DF92EF9236
:10424000FF920F931F93CF93DF93EC01A62E742E52
:104250009E2DFF24F394F21A8EEF289F802C1124B8
:10426000B42EBA9453E0C52ECE0CE22EDD2443E0EA
:10427000942E10E031E0432E512C40225122692E21
:1042800063940270107034C0F7FC04C0EA9482E0BA
:10429000880EF80CD3944114510489F06D2D6A0DE9
:1042A000472D4E192E2D220F260DCE010E942620BD
:1042B0006E2D6A0DCE014B2D2C2D0E94262001154E
:1042C000110589F06A2D6D19472D4E192E2D220FDB
:1042D000260DCE010E9426206A2D6E19CE014B2D8F
:1042E0002C2D0E942620F90C82E0980EBA94C80E5C
:1042F000DE1454F2DF91CF911F910F91FF90EF9058
:10430000DF90CF90BF90AF909F908F907F906F90F5
:104310005F904F9008957F928F929F92AF92BF923D
:10432000CF92DF92EF92FF920F931F936C01962E24
:10433000A42EF22E7E2C760E1EEFE19E102D11245F
:10434000812E820E672D282D0E941C20B02EBA0CC3
:10435000BA94C601672D4B2D282D0E941C20AE0C4F
:10436000100FC601692D4A2D212F0E942620F90C1D
:10437000FA94C6016F2D4A2D212F0E942620C601D6
:10438000672D4A2D2E2D01E00E946620FE18C601E1
:104390006F2D4A2D2E2D02E00E946620BE18C60108
:1043A0006F2D4B2D2E2D04E00E946620C601672D37
:1043B0004B2D2E2D08E00E9466201F910F91FF903B
:1043C000EF90DF90CF90BF90AF909F908F907F90B5
:1043D00008958F929F92AF92BF92CF92DF92EF9209
:1043E000FF920F931F936C01162FA42E922EF02E86
:1043F000BE2C8E2C860E2EEFE29EE02C11242E2D4C
:10440000290D682D0E943020AB0CFA94FE0C11503F
:10441000190D1B19C601612F4A2D2B2D01E0EF2C20
:104420000E941521C601682D4A2D2B2D02E00E9405
:1044300015211F910F91FF90EF90DF90CF90BF90CB
:10444000AF909F908F9008953F924F925F926F929E
:104450007F928F929F92AF92BF92CF92DF92EF9214
:10446000FF920F931F93CF93DF934C01362E442E70
:10447000F901A490319654906F010894C11CD11C8D
:104480008A2D992787FD9095079668E070E00E9435
:104490007730E62EFF24E7FCF09400E0C0E0D0E0A7
:1044A00060E8662E712C26C0E12FE595E595E5952F
:1044B000FF27E7FDF095EC0FFD1FEC0DFD1DE491CE
:1044C0002E2F30E0812F8770A30102C055954795AC
:1044D0008A95E2F724233523232B31F0612F630DD6
:1044E000C4014B2D0E94661F1F5F1A15ECF20F5F6F
:1044F000CE0DDF1D051524F410E0B02EB40CF5CF61
:10450000DF91CF911F910F91FF90EF90DF90CF90AF
:10451000BF90AF909F908F907F906F905F904F90E3
:104520003F900895DC01FB0184918F5F14968C937A
:104530001497319684918F5F15968C9315973196C9
:104540005E96FC93EE935D9708953F924F925F9233
:104550006F927F928F929F92AF92BF92CF92DF9293
:10456000EF92FF920F931F93CF93DF93EC01862E70
:10457000A42E422F102F3F8C23E526170CF4ABC03E
:104580003FE23A150CF4A7C0C02EDD248C8190E0E8
:1045900001979C01C29EC001C39E900DD29E900DBA
:1045A0001124262F332727FD3095820F931F1816CD
:1045B00019060CF090C08D8190E09C01C29EC00154
:1045C000C39E900DD29E900D11242A2D332727FDD6
:1045D0003095820F931F181619060CF07CC0992491
:1045E000442E55246DC09C01215030404217530782
:1045F00011F460E00EC0429EC001439E900D529E99
:10460000900D1124840F951FED8DFE8DE80FF91F7D
:1046100064914C9DC0014D9D900D5C9D900D1124A9
:10462000682C680EBB24792C780C3FC0E62EFF2442
:1046300060FF19C0113039F44B2D4A0DCE01672DA2
:104640000E94661F2EC02C9DC0012D9D900D3C9D8B
:10465000900D11244A2D480FCE01662D212F012FD8
:104660000E9430201EC098A18F8D9817D1F09F8F87
:10467000113039F44B2D4A0DCE01672D0E94661F73
:104680000FC02C9DC0012D9D900D3C9D900D1124BF
:104690004A2D480FCE01662D212F012F0E94302078
:1046A0003F8EF594E7946E2DB3942B2D332727FD81
:1046B00030958D8190E0281739070CF4B7CF93948B
:1046C000492D552747FD50958C8190E04817590793
:1046D0000CF489CF3F8EDF91CF911F910F91FF9006
:1046E000EF90DF90CF90BF90AF909F908F907F9092
:1046F0006F905F904F903F9008950F93CF93DF930B
:10470000EC01262F6A3049F48D819885899F802D90
:1047100011249A85980F9A8726C06D3029F16985F2
:104720004A8508850E94A5229C816885969F402D18
:1047300011248985480F49878F818823A9F055273F
:1047400047FD5095699F9001112484E590E0821BFC
:10475000930B8417950744F49D81699F902D112434
:104760008A85890F8A87198681E090E0DF91CF9151
:104770000F9108951F93CF93DF93EC01162FF894B8
:104780008E8560E00E94D72D8F8518161CF460E09E
:104790000E94D72D1EBD0DB407FEFDCF8EB58F85AF
:1047A00018161CF461E00E94D72D7894DF91CF9108
:1047B0001F910895FF920F931F93CF93DF93EC0106
:1047C000FF2400E010E06F2D6064CE010E94BA2348
:1047D000CE0160E80E94BA238E8561E00E94D72D49
:1047E0008F8518161CF460E00E94D72DF801E5575C
:1047F000FC4F90E080818EBD0DB407FEFDCF8EB5DD
:104800009F5F31969435B1F78F8518161CF461E0DF
:104810000E94D72DF3940C5A1F4F86E0F81699F694
:10482000CE0160E40E94BA23DF91CF911F910F91D6
:10483000FF900895CF93DF93DC0188EF91E0EBE8E0
:10484000F3E0EF019C01199221503040E1F71996F5
:104850001C9219971A961C92DF91CF910895EF92AE
:104860000F93CF93DF93EC014D876C872E87E88AF7
:104870000F8781E088878F8F18A28F83CE0162E92E
:1048800079E10E9492220E944E1E81E00E942F1E1A
:1048900085E00E943D1E8CE00E94381E8D8561E0FF
:1048A0000E946B2D8C8561E00E946B2D8E8561E0EE
:1048B0000E946B2D888918161CF461E00E946B2DF4
:1048C0008F8518161CF461E00E946B2D88891816DC
:1048D0006CF460E00E94D72D6AE070E080E090E028
:1048E0000E94882C888961E00E94D72DEC852E2FAC
:1048F000332727FD3095F901E454F34EE491F0E0BD
:10490000EE0FFF1FE855F34E859194919C8B8B8B96
:104910002053334EF90184918A8FED852E2F332752
:1049200027FD3095F901E454F34EE491F0E0EE0FE9
:10493000FF1FE855F34E859194919A8B898B2053F4
:10494000334EF9018491898FEF852E2F332727FD70
:104950003095F901E454F34EE491F0E0EE0FFF1FBF
:10496000E855F34E859194919E8B8D8B2053334E59
:10497000F90184918B8FEE852E2F332727FD3095FB
:10498000F901E454F34EE491F0E0EE0FFF1FE85517
:10499000F34E85919491988F8F8B2053334EF9016C
:1049A00084918C8FCE0161E20E94BA23CE0164E132
:1049B0000E94BA238B8587FF02C08FE78B876B85A8
:1049C0006068CE010E94BA23CE0160E20E94BA2341
:1049D000CE016CE00E94BA23CE010E94DA23DF915F
:1049E000CF910F91EF900895FC01262FE258FF4FD1
:1049F00088EE93E070E00E9477306083EE57F040DD
:104A0000822F64E10E94573081A70895CF93DF93EE
:104A1000DC01E0E8FFE685919491ED01C75ADF4F94
:104A2000AD0141595F4F8150904C09F04EC0E6E90D
:104A3000FFE6E491E883E7E9FFE6E4911496EC935E
:104A40001497E8E9FFE6E4911596EC931597E9E9E8
:104A5000FFE68591949117969C938E931697EBE9B8
:104A6000FFE68591949119969C938E931897EDE9A2
:104A7000FFE6E4919B96EC939B97EEE9FFE6E491C9
:104A80009A96EC939A97EFE9FFE6E491EA01E883BE
:104A9000E0EAFFE6859194915D969C938E935C97F6
:104AA000E2EAFFE6859194915F969C938E935E97E0
:104AB000E4EAFFE68591949191969C938E9390976A
:104AC000E6EAFFE68591949132C08CE388831496E0
:104AD0001C9214972FEF15962C93159780E293E074
:104AE00017969C938E93169784ED93E019969C935A
:104AF0008E93189781E09B968C939B979A968C93B4
:104B00009A97FA0120838CEA9DE05D969C938E93A0
:104B10005C978EED9DE05F969C938E935E9784E705
:104B20009EE091969C938E9390978CE39FE0939652
:104B30009C938E939297DF91CF910895EF92FF927D
:104B40000F931F93CF93DF937C018C01025B1F4F68
:104B5000C8010E941A24C80169E37BE10E94732EF8
:104B6000C8010E94DA2383E00E943D1E80E091E0AC
:104B7000EEEFFFE3099584E590E0E80EF91EF701FA
:104B80001082C80164E17BE10E94BE2EC8010E9430
:104B9000DA23E701CA54D040CE010E94361FCE016D
:104BA00064E00E942C1F882339F462E370E080E007
:104BB00090E00E94882CF0CFDF91CF911F910F9150
:104BC000FF90EF9008950F931F93CF93DF93EC0125
:104BD0008C01025B1F4FC80161E040E00E94621F30
:104BE000FE01E95AFF4FCE5ADF4F85E59881891BB8
:104BF000808326961882C855D040698D613081F136
:104C0000613028F0888D653008F043C03DC0CE018A
:104C100085960E94AE29CE0160E00E94691EC801FF
:104C20000E941A24CA5ADF4F81E08883C80161E6D6
:104C30007BE10E94732EC8010E94DA2383B7817F33
:104C4000846083BF83B7816083BF83B7816083BF84
:104C5000889583B78E7F83BF83B78E7F83BF1FC046
:104C6000C059DF4F88819981AA81BB818F70907074
:104C7000A070B0700897A105B10518F4C80167E0ED
:104C80000CC0C80168E709C0882349F06B5FC80100
:104C900004C0882321F0C8016FE20E94962EDF91A4
:104CA000CF911F910F910895AF92BF92CF92DF9253
:104CB000EF92FF920F931F93CF93DF93EC01CB57AB
:104CC000DF4F8881C558D040882309F44AC08C3012
:104CD00010F010E002C01CE0181BCA5ADF4F81E040
:104CE0008883C655D0406EE4C62ED12CCC0EDD1E76
:104CF000C60160E00E945E1F53E5A52EB12CAC0EEC
:104D0000BD1EF50100814DE2F42E4F2D401B410FD9
:104D10000D5FC60160E024E533E0E32E0E94E92147
:104D2000C60161E00E945E1FF5010081F01AF10EDC
:104D30000D5FC60160E04F2D24E50E948B21C95A0A
:104D4000DF4F84E08993F5018081181B115D188382
:104D5000AB9669917991C6010E94732E888181502A
:104D60008883DF91CF911F910F91FF90EF90DF909B
:104D7000CF90BF90AF900895AF92BF92CF92DF9245
:104D8000EF92FF920F931F93CF93DF93EC01EFE726
:104D9000AE2EB12CA80EB91EF501E080F180028183
:104DA00013810E94542CE61AF70A080B190B7EE7B0
:104DB000C72ED12CCC0EDD1EF601808190E0A0E044
:104DC000B0E08E159F05A007B10708F081C08E01E5
:104DD00006581F4FF80180819181A281B38100970D
:104DE000A105B10509F474C00E94542CF60120817C
:104DF000620F711D811D911DF50160837183828396
:104E00009383FE01E059FF4F80819181A281B3819C
:104E10000196A11DB11D80839183A283B383F80104
:104E200010821182128213820E94622CCA58DF4FB4
:104E3000688379838A839B83C657D040CE010E94C2
:104E40006E1ECE010A960E94361FCE0148960E9421
:104E5000E01E81E032C08E010B5D1F4FC8010E9431
:104E6000FC29C8010E94792AC8010E945C2BCE014E
:104E70000E945426CE010E94E3258E01025B1F4F43
:104E8000C8010E94DA23CC5ADF4F8881C455D04034
:104E9000882319F4C8010E941A240E94622CC65863
:104EA000DF4F688379838A839B83249728813981A4
:104EB000621B730B7A936A9380E0DF91CF911F910D
:104EC0000F91FF90EF90DF90CF90BF90AF9008953B
:104ED000C658DF4F88819981AA81BB81CA57D040CB
:104EE0000097A105B10541F7B6CF2F923F924F929F
:104EF0005F926F927F928F929F92AF92BF92CF926A
:104F0000DF92EF92FF920F931F93DF93CF93CDB772
:104F1000DEB72B970FB6F894DEBF0FBECDBF9B87D1
:104F20008A877A8369835C834B838C0101591F4F85
:104F3000F8018081882309F422C18A859B858A5AD9
:104F40009F4F9B878A8781E0EA85FB858083129249
:104F50001292E455F040FB87EA87108E9EE4E92E1A
:104F6000F12CEE0EFF1EC70161E00E945E1F8AE079
:104F7000282E312C8A859B85280E391EB5E26B2E92
:104F8000712C680E791EE981FA81F491FD83A7E501
:104F90008A2E912C880E991EF8E5CF2ED12CC80EA2
:104FA000D91EE2E54E2E512C480E591E8D5A9F4FA8
:104FB0009F838E8370E7A72EB12C8A859B85A80ED0
:104FC000B91E198708878A859B850E94BC2688237D
:104FD000D1F39D81992311F410E003C0EE81FF818C
:104FE0001081C70160E040E02DEA3BE10E942422ED
:104FF0008B819C81892B41F0145FC70160E0412FB8
:105000002B813C810E942422F40110828CE0F60165
:105010008083C70169817A810E94732EF201208109
:1050200030E0C901880F991F820F931F90958195D9
:105030009F4F8D5AF4018083EE81FF81208130E003
:10504000C901880F991F820F931F909581959F4FDB
:10505000835DF6018083F501808184FF04C0C70170
:105060006DE27CE103C0C70169E27CE10E94BE2ED3
:10507000F201208130E0C901880F991F820F931F30
:10508000909581959F4F8D5AF4018083F601808120
:105090008F5F8083EA85FB8582A5882321F0C70185
:1050A00065E27CE103C0C70161E27CE10E94BE2EA3
:1050B000F201808190E09C01220F331F280F391FDD
:1050C000309521953F4F2D5AF4012083F6018081C0
:1050D0008F5F8083C7016DE17CE10E94BE2EC1011C
:1050E00065E00E942C1F882351F0EA85FB8562A5AC
:1050F0006F5FC3010E94C52BC3010E94BF2BC1017A
:1051000064E00E942C1F882399F4E885F98560816A
:10511000262F30E040E050E0F50180819181A281AE
:10512000B38182179307A407B50708F16F3FF9F021
:105130008A859B8581599F4F9B878A878FEFEA8558
:10514000FB858083EF56F040FB87EA87C30160E070
:105150000E94A329C3010E94B92B81E0EA85FB8547
:10516000808F0DC08A859B850E949E252CCFC10112
:1051700066E00E942C1F882309F425CFF3CF2B96DD
:105180000FB6F894DEBF0FBECDBFCF91DF911F9158
:105190000F91FF90EF90DF90CF90BF90AF909F90D6
:1051A0008F907F906F905F904F903F902F900895D9
:1051B00040E050E00E9475270895AF92BF92CF92D1
:1051C000DF92EF920F93CF93DF936C018EE790E025
:1051D000C80ED91E82E3F601808381E090E0A0E052
:1051E000B0E0B293A293929382936F0185EF9FEF09
:1051F000C80ED91E8FEFF601808381E99FEFC80E9C
:10520000D91EC6010E940625C6010E94651EC60160
:105210006FEF0E94691E4AE0A42EB12CAC0CBD1C9D
:10522000C5010E941C1FC5010E94361FC601489679
:105230000E94D61EC601825B9F4F6DE04BE020E1CD
:105240000FE03EE0E32E0E942F24E601A596CE015A
:105250000E94D22BC50165E00E942C1F882329F0F3
:10526000CE0160E00E94C52B06C0CE0163E37CE165
:1052700040E00E94B229DF91CF910F91EF90DF9033
:10528000CF90BF90AF9008950F93DC01002309F0F9
:1052900047C06230A1F1633030F4662351F06130D1
:1052A00009F03EC009C0633081F1643009F038C0B4
:1052B00032C056964C9334C0842F90E0880F991FCB
:1052C0001F962D913C915097280F391FF901859118
:1052D000949190969C938E935F97FC014591549185
:1052E000642F91964C939197252F3327842F90E02C
:1052F0002817390708F4652F92966C9311C05996B8
:105300004C9359975A962C930BC05B964C935B9792
:105310005C962C9305C05D964C935D975E962C939E
:105320000F910895FC01662369F4178A158A14A267
:1053300013A2108E10928705109286051092840594
:105340001092B4000895CF93DF93EC01662319F413
:105350000E9492291982DF91CF91089560E00E9406
:10536000A32908950F931F93CF93DF93EC018B0133
:10537000442371F460E00E94A3291E870D871B8AD5
:105380001A8A81E0898389E08E8B198E1B8E1D8E8F
:10539000DF91CF911F910F910895CF93DF93EC018F
:1053A000662339F58881882321F18981882309F5CD
:1053B000898590E0880F991FEF81F885E80FF91F24
:1053C000859194912FEF8F3F920711F4188211C0AD
:1053D0009C8790E0880F991FEA85FB85E80FF91FED
:1053E00065917491CE0140E00E94B22989858F5F5A
:1053F0008987DF91CF91089560E00E94CD290895BB
:105400000F93CF93DF93EC01662309F06EC089817F
:10541000882309F46AC08D89882309F066C0EA8967
:10542000FB89EE0FFF1F4D855E85E40FF51F25916B
:1054300034912115310509F040C08989813031F45A
:105440001B8A1A8AFA012591349137C01982888102
:10545000882379F0CE0160E00E94CD298A899B895A
:10546000880F991FED85FE85E80FF91F259134916E
:1054700024C0CE0160E00E94922937C0E6E0369554
:105480002795EA95E1F76F70422F4F7175E03695D9
:1054900027957A95E1F72051CE0100E00E9444293A
:1054A0008A899B8901969B8B8A8B880F991FED8532
:1054B000FE85E80FF91F25913491B901769567951E
:1054C0007695679520FDDACF862F8F738C8B3D8B79
:1054D0001DA21CA21BA281E08F8B80938405188ED5
:1054E0008A899B8901969B8B8A8BDF91CF910F9143
:1054F000089560E00E94002A0895CF93DF93EC01A5
:10550000662309F0D6C08F89882309F4D2C08D891B
:10551000882321F4CE010E949229CBC081508D8B2B
:105520008DA1882309F03BC08BA19CA10196880F17
:10553000991FEF8DF8A1E80FF91F85919491282FFD
:1055400027702EA3AC0163E0569547956A95E1F765
:105550009A0136952795892F9927869586958FA349
:105560002F738C81289F202D11242DA341704093EF
:1055700088058BA19CA101969CA38BA329A130E057
:105580008217930760F08AA1882329F0281B31092C
:105590003CA32BA304C0CE0160E00E9492298DA100
:1055A00081508DA3988D9F5F988F2FA18C89280F94
:1055B0008C85280F2A836B8D662369F0892F9927A4
:1055C00087FD909570E00E9477308C8D869F802DAE
:1055D0001124820F8A838A8190E0CB966BE370E07E
:1055E0000E9477308A832E892B83698D662379F018
:1055F000888D772767FD7095992787FD90950E9484
:1056000077308A8D869F802D1124820F8B836D8D3C
:10561000662399F0888D992787FD909570E00E9408
:105620007730CB0162E070E00E9477309E8D899FD9
:10563000802D11249B81890F8B838B818A300CF004
:1056400089E087FD80E08B838C898F3309F41B828E
:10565000F894EA81F0E0E95AF34EE491E09385058D
:105660002D8130E08B81992787FD9095A901489F76
:105670009001499F300D589F300D112488A590E06E
:10568000A901489F9001499F300D589F300D11246A
:105690008EA1992787FD9095AC01249FC001259F7D
:1056A000900D349F900D112480938605809387057B
:1056B0007894DF91CF91089560E00E947D2A08954B
:1056C00060918605662381F1809183058F5F8093C9
:1056D000830590918505891738F130E08091840524
:1056E000882309F431E0309384051092830580917A
:1056F00088058823A9F08091670123E4829FC00177
:105700001124895B8093670190E070E00E94633010
:105710008093870505C0809187058093B400089524
:105720003323C9F780E0F9CF08951F920F920FB687
:105730000F9211242F933F934F935F936F937F9317
:105740008F939F93AF93BF93EF93FF930E94602B30
:10575000FF91EF91BF91AF919F918F917F916F9149
:105760005F914F913F912F910F900FBE0F901F901F
:1057700018956FE47CE140E00E94B229089561E44D
:105780007CE140E00E94B2290895FC01862F6681E9
:1057900070E06F5F7F4F992787FD90950E9477306B
:1057A000858308950F93FC0181E0848384E080A7C2
:1057B00082E99CE1908B8787CF0161E040E020E0A7
:1057C00000E00E94442983E061E070E00E940B2D1C
:1057D000E1EBF0E08081887F81608083F894109213
:1057E0008000E1E8F0E010821092850010928400C1
:1057F00088E191E09093890080938800808188609F
:105800008083808181608083EFE6F0E08081826028
:10581000808378940F9108951F920F920FB60F9284
:1058200011242F933F938F939F93AF93BF938091B6
:105830008D0590918E05A0918F05B09190053091C6
:1058400091050196A11DB11D232F2D5F2D3720F04D
:105850002D570196A11DB11D2093910580938D05B3
:1058600090938E05A0938F05B09390058091890544
:1058700090918A05A0918B05B0918C050196A11D90
:10588000B11D8093890590938A05A0938B05B093F1
:105890008C05BF91AF919F918F913F912F910F9068
:1058A0000FBE0F901F9018958FB7F89420918D051B
:1058B00030918E0540918F05509190058FBFB901B1
:1058C000CA0108959FB7F8942091890530918A05FF
:1058D00040918B0550918C0586B5A89B06C08F3FE3
:1058E00021F02F5F3F4F4F4F5F4F9FBF542F432FEC
:1058F000322F2227280F311D411D511D82E0220F1A
:10590000331F441F551F8A95D1F7B901CA01089565
:10591000EF92FF920F931F93CF93DF937B018C0144
:105920000E94622CEB010EC00E94622C6C1B7D0B4E
:10593000685E7340C8F30894E108F1080109110991
:10594000C851DC4FE114F1040105110569F7DF913D
:10595000CF911F910F91FF90EF900895789484B5A7
:10596000826084BD84B5816084BD85B5826085BD5B
:1059700085B5816085BDEEE6F0E080818160808341
:10598000E1E8F0E010828081826080838081816024
:105990008083E0E8F0E0808181608083E1EBF0E0EB
:1059A000808184608083E0EBF0E08081816080838F
:1059B000EAE7F0E080818460808380818260808378
:1059C0008081816080838081806880831092C100A3
:1059D0000895982F8E3008F09E509770809168013E
:1059E0008295880F880F807C892B80937C00809122
:1059F0007A00806480937A0080917A0086FDFCCFE3
:105A00002091780040917900942F80E030E0282B9D
:105A1000392BC90108951F93CF93DF93182FEB0102
:105A200061E00E946B2D209709F44AC0CF3FD10559
:105A300009F449C0E12FF0E0EC51F34E849183303A
:105A4000C1F0843028F4813051F08230B1F50CC0BF
:105A5000863019F1873049F1843079F514C084B566
:105A6000806884BDC7BD33C084B5806284BDC8BDB5
:105A70002EC080918000806880938000D093890040
:105A8000C093880024C08091800080628093800051
:105A9000D0938B00C0938A001AC08091B0008068B8
:105AA0008093B000C093B30012C08091B0008062B8
:105AB0008093B000C093B4000AC0C038D1051CF474
:105AC000812F60E002C0812F61E00E94D72DDF911D
:105AD000CF911F910895CF93DF93482F50E0CA01D3
